{"contracts/ContractRegistry.sol":{"ContractRegistry":{"abi":[{"inputs":[{"internalType":"address","name":"initialAdmin","type":"address"}],"stateMutability":"nonpayable","type":"constructor"},{"inputs":[],"name":"AccessControlBadConfirmation","type":"error"},{"inputs":[{"internalType":"address","name":"account","type":"address"},{"internalType":"bytes32","name":"neededRole","type":"bytes32"}],"name":"AccessControlUnauthorizedAccount","type":"error"},{"anonymous":false,"inputs":[{"indexed":true,"internalType":"bytes32","name":"nameHash","type":"bytes32"},{"indexed":false,"internalType":"string","name":"name","type":"string"},{"indexed":false,"internalType":"uint256","name":"timestamp","type":"uint256"}],"name":"ContractRemoved","type":"event"},{"anonymous":false,"inputs":[{"indexed":true,"internalType":"bytes32","name":"nameHash","type":"bytes32"},{"indexed":false,"internalType":"string","name":"name","type":"string"},{"indexed":true,"internalType":"address","name":"addr","type":"address"},{"indexed":false,"internalType":"uint256","name":"version","type":"uint256"},{"indexed":false,"internalType":"uint256","name":"timestamp","type":"uint256"}],"name":"ContractUpdated","type":"event"},{"anonymous":false,"inputs":[{"indexed":true,"internalType":"bytes32","name":"role","type":"bytes32"},{"indexed":true,"internalType":"bytes32","name":"previousAdminRole","type":"bytes32"},{"indexed":true,"internalType":"bytes32","name":"newAdminRole","type":"bytes32"}],"name":"RoleAdminChanged","type":"event"},{"anonymous":false,"inputs":[{"indexed":true,"internalType":"bytes32","name":"role","type":"bytes32"},{"indexed":true,"internalType":"address","name":"account","type":"address"},{"indexed":true,"internalType":"address","name":"sender","type":"address"}],"name":"RoleGranted","type":"event"},{"anonymous":false,"inputs":[{"indexed":true,"internalType":"bytes32","name":"role","type":"bytes32"},{"indexed":true,"internalType":"address","name":"account","type":"address"},{"indexed":true,"internalType":"address","name":"sender","type":"address"}],"name":"RoleRevoked","type":"event"},{"inputs":[],"name":"ADMIN_ROLE","outputs":[{"internalType":"bytes32","name":"","type":"bytes32"}],"stateMutability":"view","type":"function"},{"inputs":[],"name":"DEFAULT_ADMIN_ROLE","outputs":[{"internalType":"bytes32","name":"","type":"bytes32"}],"stateMutability":"view","type":"function"},{"inputs":[{"internalType":"bytes32","name":"","type":"bytes32"}],"name":"contracts","outputs":[{"internalType":"address","name":"","type":"address"}],"stateMutability":"view","type":"function"},{"inputs":[{"internalType":"string","name":"name","type":"string"}],"name":"getContract","outputs":[{"internalType":"address","name":"","type":"address"}],"stateMutability":"view","type":"function"},{"inputs":[{"internalType":"bytes32","name":"nameHash","type":"bytes32"}],"name":"getContractByHash","outputs":[{"internalType":"address","name":"","type":"address"}],"stateMutability":"view","type":"function"},{"inputs":[],"name":"getContractCount","outputs":[{"internalType":"uint256","name":"","type":"uint256"}],"stateMutability":"view","type":"function"},{"inputs":[{"internalType":"bytes32","name":"role","type":"bytes32"}],"name":"getRoleAdmin","outputs":[{"internalType":"bytes32","name":"","type":"bytes32"}],"stateMutability":"view","type":"function"},{"inputs":[{"internalType":"string","name":"name","type":"string"}],"name":"getVersion","outputs":[{"internalType":"uint256","name":"","type":"uint256"}],"stateMutability":"view","type":"function"},{"inputs":[{"internalType":"bytes32","name":"role","type":"bytes32"},{"internalType":"address","name":"account","type":"address"}],"name":"grantRole","outputs":[],"stateMutability":"nonpayable","type":"function"},{"inputs":[{"internalType":"bytes32","name":"role","type":"bytes32"},{"internalType":"address","name":"account","type":"address"}],"name":"hasRole","outputs":[{"internalType":"bool","name":"","type":"bool"}],"stateMutability":"view","type":"function"},{"inputs":[{"internalType":"bytes32","name":"","type":"bytes32"}],"name":"names","outputs":[{"internalType":"string","name":"","type":"string"}],"stateMutability":"view","type":"function"},{"inputs":[{"internalType":"uint256","name":"","type":"uint256"}],"name":"registeredContracts","outputs":[{"internalType":"bytes32","name":"","type":"bytes32"}],"stateMutability":"view","type":"function"},{"inputs":[{"internalType":"string","name":"name","type":"string"}],"name":"removeContract","outputs":[],"stateMutability":"nonpayable","type":"function"},{"inputs":[{"internalType":"bytes32","name":"role","type":"bytes32"},{"internalType":"address","name":"callerConfirmation","type":"address"}],"name":"renounceRole","outputs":[],"stateMutability":"nonpayable","type":"function"},{"inputs":[{"internalType":"bytes32","name":"role","type":"bytes32"},{"internalType":"address","name":"account","type":"address"}],"name":"revokeRole","outputs":[],"stateMutability":"nonpayable","type":"function"},{"inputs":[{"internalType":"string","name":"name","type":"string"},{"internalType":"address","name":"addr","type":"address"}],"name":"setContract","outputs":[],"stateMutability":"nonpayable","type":"function"},{"inputs":[{"internalType":"bytes4","name":"interfaceId","type":"bytes4"}],"name":"supportsInterface","outputs":[{"internalType":"bool","name":"","type":"bool"}],"stateMutability":"view","type":"function"},{"inputs":[{"internalType":"bytes32","name":"","type":"bytes32"}],"name":"versions","outputs":[{"internalType":"uint256","name":"","type":"uint256"}],"stateMutability":"view","type":"function"}],"evm":{"bytecode":{"linkReferences":{},"object":"608060405234801561001057600080fd5b50604051610e52380380610e5283398101604081905261002f91610118565b61003a60008261006c565b506100657fa49807205ce4d355092ef5a8a18f56e8913cf4a201fbe287825b095693c217758261006c565b5050610148565b6000828152602081815260408083206001600160a01b038516845290915281205460ff1661010e576000838152602081815260408083206001600160a01b03861684529091529020805460ff191660011790556100c63390565b6001600160a01b0316826001600160a01b0316847f2f8788117e7eff1d82e926ec794901d17c78024a50270940304540a733656f0d60405160405180910390a4506001610112565b5060005b92915050565b60006020828403121561012a57600080fd5b81516001600160a01b038116811461014157600080fd5b9392505050565b610cfb806101576000396000f3fe608060405234801561001057600080fd5b50600436106101165760003560e01c806375b238fc116100a2578063a217fddf11610071578063a217fddf1461028b578063c7cec7f814610293578063d547741f146102b3578063e33c4cd2146102c6578063ec56a373146102d957600080fd5b806375b238fc1461023657806391d148541461025d5780639399869d1461027057806397623b581461027857600080fd5b806335817773116100e957806335817773146101a957806336568abe146101d45780633ab50a9c146101e75780633f0ed0df146101fa5780636933a44c1461020d57600080fd5b806301ffc9a71461011b57806320c38e2b14610143578063248a9ca3146101635780632f2ff15d14610194575b600080fd5b61012e610129366004610902565b610302565b60405190151581526020015b60405180910390f35b610156610151366004610933565b610339565b60405161013a919061094c565b610186610171366004610933565b60009081526020819052604090206001015490565b60405190815260200161013a565b6101a76101a23660046109b6565b6103d3565b005b6101bc6101b7366004610a2b565b6103fe565b6040516001600160a01b03909116815260200161013a565b6101a76101e23660046109b6565b61043e565b6101866101f5366004610a2b565b610476565b6101a7610208366004610a6d565b6104ab565b6101bc61021b366004610933565b6000908152600160205260409020546001600160a01b031690565b6101867fa49807205ce4d355092ef5a8a18f56e8913cf4a201fbe287825b095693c2177581565b61012e61026b3660046109b6565b610649565b600454610186565b6101a7610286366004610a2b565b610672565b610186600081565b6101866102a1366004610933565b60026020526000908152604090205481565b6101a76102c13660046109b6565b610775565b6101866102d4366004610933565b61079a565b6101bc6102e7366004610933565b6001602052600090815260409020546001600160a01b031681565b60006001600160e01b03198216637965db0b60e01b148061033357506301ffc9a760e01b6001600160e01b03198316145b92915050565b6003602052600090815260409020805461035290610ac1565b80601f016020809104026020016040519081016040528092919081815260200182805461037e90610ac1565b80156103cb5780601f106103a0576101008083540402835291602001916103cb565b820191906000526020600020905b8154815290600101906020018083116103ae57829003601f168201915b505050505081565b6000828152602081905260409020600101546103ee816107bb565b6103f883836107c8565b50505050565b6000600160008484604051610414929190610afb565b60408051918290039091208252602082019290925201600020546001600160a01b03169392505050565b6001600160a01b03811633146104675760405163334bd91960e11b815260040160405180910390fd5b610471828261085a565b505050565b600060026000848460405161048c929190610afb565b6040518091039020815260200190815260200160002054905092915050565b7fa49807205ce4d355092ef5a8a18f56e8913cf4a201fbe287825b095693c217756104d5816107bb565b6001600160a01b0382166105225760405162461bcd60e51b815260206004820152600f60248201526e496e76616c6964206164647265737360881b60448201526064015b60405180910390fd5b60008484604051610534929190610afb565b604080519182900390912060008181526001602081815284832080546001600160a01b038a81166001600160a01b03198316179092556002909252948320805494965094161593909290919061058b908490610b0b565b909155505080156105e65760008281526003602052604090206105af868883610b90565b50600480546001810182556000919091527f8a35acfbc15ff81a39ae7d344fd709f28e8600b4aa8c65c6b64bfe7fe36bd19b018290555b836001600160a01b0316827f1dcd9af8fad57ac3b2248e55d4ff80e3f5dc74dbd8e90d1a5d49f83adc12b62d88886002600088815260200190815260200160002054426040516106399493929190610c7a565b60405180910390a3505050505050565b6000918252602082815260408084206001600160a01b0393909316845291905290205460ff1690565b7fa49807205ce4d355092ef5a8a18f56e8913cf4a201fbe287825b095693c2177561069c816107bb565b600083836040516106ae929190610afb565b60408051918290039091206000818152600160205291909120549091506001600160a01b03166107155760405162461bcd60e51b815260206004820152601260248201527110dbdb9d1c9858dd081b9bdd08199bdd5b9960721b6044820152606401610519565b6000818152600160205260409081902080546001600160a01b03191690555181907fb153b3339a5c9100b8bca81969e42275d61f0ad2b90266c91ebc8114051b03839061076790879087904290610ca1565b60405180910390a250505050565b600082815260208190526040902060010154610790816107bb565b6103f8838361085a565b600481815481106107aa57600080fd5b600091825260209091200154905081565b6107c581336108c5565b50565b60006107d48383610649565b610852576000838152602081815260408083206001600160a01b03861684529091529020805460ff1916600117905561080a3390565b6001600160a01b0316826001600160a01b0316847f2f8788117e7eff1d82e926ec794901d17c78024a50270940304540a733656f0d60405160405180910390a4506001610333565b506000610333565b60006108668383610649565b15610852576000838152602081815260408083206001600160a01b0386168085529252808320805460ff1916905551339286917ff6391f5c32d9c69d2a47ea670b442974b53935d1edc7fd64eb21e047a839171b9190a4506001610333565b6108cf8282610649565b6108fe5760405163e2517d3f60e01b81526001600160a01b038216600482015260248101839052604401610519565b5050565b60006020828403121561091457600080fd5b81356001600160e01b03198116811461092c57600080fd5b9392505050565b60006020828403121561094557600080fd5b5035919050565b600060208083528351808285015260005b818110156109795785810183015185820160400152820161095d565b506000604082860101526040601f19601f8301168501019250505092915050565b80356001600160a01b03811681146109b157600080fd5b919050565b600080604083850312156109c957600080fd5b823591506109d96020840161099a565b90509250929050565b60008083601f8401126109f457600080fd5b50813567ffffffffffffffff811115610a0c57600080fd5b602083019150836020828501011115610a2457600080fd5b9250929050565b60008060208385031215610a3e57600080fd5b823567ffffffffffffffff811115610a5557600080fd5b610a61858286016109e2565b90969095509350505050565b600080600060408486031215610a8257600080fd5b833567ffffffffffffffff811115610a9957600080fd5b610aa5868287016109e2565b9094509250610ab890506020850161099a565b90509250925092565b600181811c90821680610ad557607f821691505b602082108103610af557634e487b7160e01b600052602260045260246000fd5b50919050565b8183823760009101908152919050565b8082018082111561033357634e487b7160e01b600052601160045260246000fd5b634e487b7160e01b600052604160045260246000fd5b601f82111561047157600081815260208120601f850160051c81016020861015610b695750805b601f850160051c820191505b81811015610b8857828155600101610b75565b505050505050565b67ffffffffffffffff831115610ba857610ba8610b2c565b610bbc83610bb68354610ac1565b83610b42565b6000601f841160018114610bf05760008515610bd85750838201355b600019600387901b1c1916600186901b178355610c4a565b600083815260209020601f19861690835b82811015610c215786850135825560209485019460019092019101610c01565b5086821015610c3e5760001960f88860031b161c19848701351681555b505060018560011b0183555b5050505050565b81835281816020850137506000828201602090810191909152601f909101601f19169091010190565b606081526000610c8e606083018688610c51565b6020830194909452506040015292915050565b604081526000610cb5604083018587610c51565b905082602083015294935050505056fea2646970667358221220c16baf7fdd1fea05100047b9a7f465ed5ecccf09081ef06afeefbf4fc0f6a4cc64736f6c63430008140033","opcodes":"PUSH1 0x80 PUSH1 0x40 MSTORE CALLVALUE DUP1 ISZERO PUSH2 0x10 JUMPI PUSH1 0x0 DUP1 REVERT JUMPDEST POP PUSH1 0x40 MLOAD PUSH2 0xE52 CODESIZE SUB DUP1 PUSH2 0xE52 DUP4 CODECOPY DUP2 ADD PUSH1 0x40 DUP2 SWAP1 MSTORE PUSH2 0x2F SWAP2 PUSH2 0x118 JUMP JUMPDEST PUSH2 0x3A PUSH1 0x0 DUP3 PUSH2 0x6C JUMP JUMPDEST POP PUSH2 0x65 PUSH32 0xA49807205CE4D355092EF5A8A18F56E8913CF4A201FBE287825B095693C21775 DUP3 PUSH2 0x6C JUMP JUMPDEST POP POP PUSH2 0x148 JUMP JUMPDEST PUSH1 0x0 DUP3 DUP2 MSTORE PUSH1 0x20 DUP2 DUP2 MSTORE PUSH1 0x40 DUP1 DUP4 KECCAK256 PUSH1 0x1 PUSH1 0x1 PUSH1 0xA0 SHL SUB DUP6 AND DUP5 MSTORE SWAP1 SWAP2 MSTORE DUP2 KECCAK256 SLOAD PUSH1 0xFF AND PUSH2 0x10E JUMPI PUSH1 0x0 DUP4 DUP2 MSTORE PUSH1 0x20 DUP2 DUP2 MSTORE PUSH1 0x40 DUP1 DUP4 KECCAK256 PUSH1 0x1 PUSH1 0x1 PUSH1 0xA0 SHL SUB DUP7 AND DUP5 MSTORE SWAP1 SWAP2 MSTORE SWAP1 KECCAK256 DUP1 SLOAD PUSH1 0xFF NOT AND PUSH1 0x1 OR SWAP1 SSTORE PUSH2 0xC6 CALLER SWAP1 JUMP JUMPDEST PUSH1 0x1 PUSH1 0x1 PUSH1 0xA0 SHL SUB AND DUP3 PUSH1 0x1 PUSH1 0x1 PUSH1 0xA0 SHL SUB AND DUP5 PUSH32 0x2F8788117E7EFF1D82E926EC794901D17C78024A50270940304540A733656F0D PUSH1 0x40 MLOAD PUSH1 0x40 MLOAD DUP1 SWAP2 SUB SWAP1 LOG4 POP PUSH1 0x1 PUSH2 0x112 JUMP JUMPDEST POP PUSH1 0x0 JUMPDEST SWAP3 SWAP2 POP POP JUMP JUMPDEST PUSH1 0x0 PUSH1 0x20 DUP3 DUP5 SUB SLT ISZERO PUSH2 0x12A JUMPI PUSH1 0x0 DUP1 REVERT JUMPDEST DUP2 MLOAD PUSH1 0x1 PUSH1 0x1 PUSH1 0xA0 SHL SUB DUP2 AND DUP2 EQ PUSH2 0x141 JUMPI PUSH1 0x0 DUP1 REVERT JUMPDEST SWAP4 SWAP3 POP POP POP JUMP JUMPDEST PUSH2 0xCFB DUP1 PUSH2 0x157 PUSH1 0x0 CODECOPY PUSH1 0x0 RETURN INVALID PUSH1 0x80 PUSH1 0x40 MSTORE CALLVALUE DUP1 ISZERO PUSH2 0x10 JUMPI PUSH1 0x0 DUP1 REVERT JUMPDEST POP PUSH1 0x4 CALLDATASIZE LT PUSH2 0x116 JUMPI PUSH1 0x0 CALLDATALOAD PUSH1 0xE0 SHR DUP1 PUSH4 0x75B238FC GT PUSH2 0xA2 JUMPI DUP1 PUSH4 0xA217FDDF GT PUSH2 0x71 JUMPI DUP1 PUSH4 0xA217FDDF EQ PUSH2 0x28B JUMPI DUP1 PUSH4 0xC7CEC7F8 EQ PUSH2 0x293 JUMPI DUP1 PUSH4 0xD547741F EQ PUSH2 0x2B3 JUMPI DUP1 PUSH4 0xE33C4CD2 EQ PUSH2 0x2C6 JUMPI DUP1 PUSH4 0xEC56A373 EQ PUSH2 0x2D9 JUMPI PUSH1 0x0 DUP1 REVERT JUMPDEST DUP1 PUSH4 0x75B238FC EQ PUSH2 0x236 JUMPI DUP1 PUSH4 0x91D14854 EQ PUSH2 0x25D JUMPI DUP1 PUSH4 0x9399869D EQ PUSH2 0x270 JUMPI DUP1 PUSH4 0x97623B58 EQ PUSH2 0x278 JUMPI PUSH1 0x0 DUP1 REVERT JUMPDEST DUP1 PUSH4 0x35817773 GT PUSH2 0xE9 JUMPI DUP1 PUSH4 0x35817773 EQ PUSH2 0x1A9 JUMPI DUP1 PUSH4 0x36568ABE EQ PUSH2 0x1D4 JUMPI DUP1 PUSH4 0x3AB50A9C EQ PUSH2 0x1E7 JUMPI DUP1 PUSH4 0x3F0ED0DF EQ PUSH2 0x1FA JUMPI DUP1 PUSH4 0x6933A44C EQ PUSH2 0x20D JUMPI PUSH1 0x0 DUP1 REVERT JUMPDEST DUP1 PUSH4 0x1FFC9A7 EQ PUSH2 0x11B JUMPI DUP1 PUSH4 0x20C38E2B EQ PUSH2 0x143 JUMPI DUP1 PUSH4 0x248A9CA3 EQ PUSH2 0x163 JUMPI DUP1 PUSH4 0x2F2FF15D EQ PUSH2 0x194 JUMPI JUMPDEST PUSH1 0x0 DUP1 REVERT JUMPDEST PUSH2 0x12E PUSH2 0x129 CALLDATASIZE PUSH1 0x4 PUSH2 0x902 JUMP JUMPDEST PUSH2 0x302 JUMP JUMPDEST PUSH1 0x40 MLOAD SWAP1 ISZERO ISZERO DUP2 MSTORE PUSH1 0x20 ADD JUMPDEST PUSH1 0x40 MLOAD DUP1 SWAP2 SUB SWAP1 RETURN JUMPDEST PUSH2 0x156 PUSH2 0x151 CALLDATASIZE PUSH1 0x4 PUSH2 0x933 JUMP JUMPDEST PUSH2 0x339 JUMP JUMPDEST PUSH1 0x40 MLOAD PUSH2 0x13A SWAP2 SWAP1 PUSH2 0x94C JUMP JUMPDEST PUSH2 0x186 PUSH2 0x171 CALLDATASIZE PUSH1 0x4 PUSH2 0x933 JUMP JUMPDEST PUSH1 0x0 SWAP1 DUP2 MSTORE PUSH1 0x20 DUP2 SWAP1 MSTORE PUSH1 0x40 SWAP1 KECCAK256 PUSH1 0x1 ADD SLOAD SWAP1 JUMP JUMPDEST PUSH1 0x40 MLOAD SWAP1 DUP2 MSTORE PUSH1 0x20 ADD PUSH2 0x13A JUMP JUMPDEST PUSH2 0x1A7 PUSH2 0x1A2 CALLDATASIZE PUSH1 0x4 PUSH2 0x9B6 JUMP JUMPDEST PUSH2 0x3D3 JUMP JUMPDEST STOP JUMPDEST PUSH2 0x1BC PUSH2 0x1B7 CALLDATASIZE PUSH1 0x4 PUSH2 0xA2B JUMP JUMPDEST PUSH2 0x3FE JUMP JUMPDEST PUSH1 0x40 MLOAD PUSH1 0x1 PUSH1 0x1 PUSH1 0xA0 SHL SUB SWAP1 SWAP2 AND DUP2 MSTORE PUSH1 0x20 ADD PUSH2 0x13A JUMP JUMPDEST PUSH2 0x1A7 PUSH2 0x1E2 CALLDATASIZE PUSH1 0x4 PUSH2 0x9B6 JUMP JUMPDEST PUSH2 0x43E JUMP JUMPDEST PUSH2 0x186 PUSH2 0x1F5 CALLDATASIZE PUSH1 0x4 PUSH2 0xA2B JUMP JUMPDEST PUSH2 0x476 JUMP JUMPDEST PUSH2 0x1A7 PUSH2 0x208 CALLDATASIZE PUSH1 0x4 PUSH2 0xA6D JUMP JUMPDEST PUSH2 0x4AB JUMP JUMPDEST PUSH2 0x1BC PUSH2 0x21B CALLDATASIZE PUSH1 0x4 PUSH2 0x933 JUMP JUMPDEST PUSH1 0x0 SWAP1 DUP2 MSTORE PUSH1 0x1 PUSH1 0x20 MSTORE PUSH1 0x40 SWAP1 KECCAK256 SLOAD PUSH1 0x1 PUSH1 0x1 PUSH1 0xA0 SHL SUB AND SWAP1 JUMP JUMPDEST PUSH2 0x186 PUSH32 0xA49807205CE4D355092EF5A8A18F56E8913CF4A201FBE287825B095693C21775 DUP2 JUMP JUMPDEST PUSH2 0x12E PUSH2 0x26B CALLDATASIZE PUSH1 0x4 PUSH2 0x9B6 JUMP JUMPDEST PUSH2 0x649 JUMP JUMPDEST PUSH1 0x4 SLOAD PUSH2 0x186 JUMP JUMPDEST PUSH2 0x1A7 PUSH2 0x286 CALLDATASIZE PUSH1 0x4 PUSH2 0xA2B JUMP JUMPDEST PUSH2 0x672 JUMP JUMPDEST PUSH2 0x186 PUSH1 0x0 DUP2 JUMP JUMPDEST PUSH2 0x186 PUSH2 0x2A1 CALLDATASIZE PUSH1 0x4 PUSH2 0x933 JUMP JUMPDEST PUSH1 0x2 PUSH1 0x20 MSTORE PUSH1 0x0 SWAP1 DUP2 MSTORE PUSH1 0x40 SWAP1 KECCAK256 SLOAD DUP2 JUMP JUMPDEST PUSH2 0x1A7 PUSH2 0x2C1 CALLDATASIZE PUSH1 0x4 PUSH2 0x9B6 JUMP JUMPDEST PUSH2 0x775 JUMP JUMPDEST PUSH2 0x186 PUSH2 0x2D4 CALLDATASIZE PUSH1 0x4 PUSH2 0x933 JUMP JUMPDEST PUSH2 0x79A JUMP JUMPDEST PUSH2 0x1BC PUSH2 0x2E7 CALLDATASIZE PUSH1 0x4 PUSH2 0x933 JUMP JUMPDEST PUSH1 0x1 PUSH1 0x20 MSTORE PUSH1 0x0 SWAP1 DUP2 MSTORE PUSH1 0x40 SWAP1 KECCAK256 SLOAD PUSH1 0x1 PUSH1 0x1 PUSH1 0xA0 SHL SUB AND DUP2 JUMP JUMPDEST PUSH1 0x0 PUSH1 0x1 PUSH1 0x1 PUSH1 0xE0 SHL SUB NOT DUP3 AND PUSH4 0x7965DB0B PUSH1 0xE0 SHL EQ DUP1 PUSH2 0x333 JUMPI POP PUSH4 0x1FFC9A7 PUSH1 0xE0 SHL PUSH1 0x1 PUSH1 0x1 PUSH1 0xE0 SHL SUB NOT DUP4 AND EQ JUMPDEST SWAP3 SWAP2 POP POP JUMP JUMPDEST PUSH1 0x3 PUSH1 0x20 MSTORE PUSH1 0x0 SWAP1 DUP2 MSTORE PUSH1 0x40 SWAP1 KECCAK256 DUP1 SLOAD PUSH2 0x352 SWAP1 PUSH2 0xAC1 JUMP JUMPDEST DUP1 PUSH1 0x1F ADD PUSH1 0x20 DUP1 SWAP2 DIV MUL PUSH1 0x20 ADD PUSH1 0x40 MLOAD SWAP1 DUP2 ADD PUSH1 0x40 MSTORE DUP1 SWAP3 SWAP2 SWAP1 DUP2 DUP2 MSTORE PUSH1 0x20 ADD DUP3 DUP1 SLOAD PUSH2 0x37E SWAP1 PUSH2 0xAC1 JUMP JUMPDEST DUP1 ISZERO PUSH2 0x3CB JUMPI DUP1 PUSH1 0x1F LT PUSH2 0x3A0 JUMPI PUSH2 0x100 DUP1 DUP4 SLOAD DIV MUL DUP4 MSTORE SWAP2 PUSH1 0x20 ADD SWAP2 PUSH2 0x3CB JUMP JUMPDEST DUP3 ADD SWAP2 SWAP1 PUSH1 0x0 MSTORE PUSH1 0x20 PUSH1 0x0 KECCAK256 SWAP1 JUMPDEST DUP2 SLOAD DUP2 MSTORE SWAP1 PUSH1 0x1 ADD SWAP1 PUSH1 0x20 ADD DUP1 DUP4 GT PUSH2 0x3AE JUMPI DUP3 SWAP1 SUB PUSH1 0x1F AND DUP3 ADD SWAP2 JUMPDEST POP POP POP POP POP DUP2 JUMP JUMPDEST PUSH1 0x0 DUP3 DUP2 MSTORE PUSH1 0x20 DUP2 SWAP1 MSTORE PUSH1 0x40 SWAP1 KECCAK256 PUSH1 0x1 ADD SLOAD PUSH2 0x3EE DUP2 PUSH2 0x7BB JUMP JUMPDEST PUSH2 0x3F8 DUP4 DUP4 PUSH2 0x7C8 JUMP JUMPDEST POP POP POP POP JUMP JUMPDEST PUSH1 0x0 PUSH1 0x1 PUSH1 0x0 DUP5 DUP5 PUSH1 0x40 MLOAD PUSH2 0x414 SWAP3 SWAP2 SWAP1 PUSH2 0xAFB JUMP JUMPDEST PUSH1 0x40 DUP1 MLOAD SWAP2 DUP3 SWAP1 SUB SWAP1 SWAP2 KECCAK256 DUP3 MSTORE PUSH1 0x20 DUP3 ADD SWAP3 SWAP1 SWAP3 MSTORE ADD PUSH1 0x0 KECCAK256 SLOAD PUSH1 0x1 PUSH1 0x1 PUSH1 0xA0 SHL SUB AND SWAP4 SWAP3 POP POP POP JUMP JUMPDEST PUSH1 0x1 PUSH1 0x1 PUSH1 0xA0 SHL SUB DUP2 AND CALLER EQ PUSH2 0x467 JUMPI PUSH1 0x40 MLOAD PUSH4 0x334BD919 PUSH1 0xE1 SHL DUP2 MSTORE PUSH1 0x4 ADD PUSH1 0x40 MLOAD DUP1 SWAP2 SUB SWAP1 REVERT JUMPDEST PUSH2 0x471 DUP3 DUP3 PUSH2 0x85A JUMP JUMPDEST POP POP POP JUMP JUMPDEST PUSH1 0x0 PUSH1 0x2 PUSH1 0x0 DUP5 DUP5 PUSH1 0x40 MLOAD PUSH2 0x48C SWAP3 SWAP2 SWAP1 PUSH2 0xAFB JUMP JUMPDEST PUSH1 0x40 MLOAD DUP1 SWAP2 SUB SWAP1 KECCAK256 DUP2 MSTORE PUSH1 0x20 ADD SWAP1 DUP2 MSTORE PUSH1 0x20 ADD PUSH1 0x0 KECCAK256 SLOAD SWAP1 POP SWAP3 SWAP2 POP POP JUMP JUMPDEST PUSH32 0xA49807205CE4D355092EF5A8A18F56E8913CF4A201FBE287825B095693C21775 PUSH2 0x4D5 DUP2 PUSH2 0x7BB JUMP JUMPDEST PUSH1 0x1 PUSH1 0x1 PUSH1 0xA0 SHL SUB DUP3 AND PUSH2 0x522 JUMPI PUSH1 0x40 MLOAD PUSH3 0x461BCD PUSH1 0xE5 SHL DUP2 MSTORE PUSH1 0x20 PUSH1 0x4 DUP3 ADD MSTORE PUSH1 0xF PUSH1 0x24 DUP3 ADD MSTORE PUSH15 0x496E76616C69642061646472657373 PUSH1 0x88 SHL PUSH1 0x44 DUP3 ADD MSTORE PUSH1 0x64 ADD JUMPDEST PUSH1 0x40 MLOAD DUP1 SWAP2 SUB SWAP1 REVERT JUMPDEST PUSH1 0x0 DUP5 DUP5 PUSH1 0x40 MLOAD PUSH2 0x534 SWAP3 SWAP2 SWAP1 PUSH2 0xAFB JUMP JUMPDEST PUSH1 0x40 DUP1 MLOAD SWAP2 DUP3 SWAP1 SUB SWAP1 SWAP2 KECCAK256 PUSH1 0x0 DUP2 DUP2 MSTORE PUSH1 0x1 PUSH1 0x20 DUP2 DUP2 MSTORE DUP5 DUP4 KECCAK256 DUP1 SLOAD PUSH1 0x1 PUSH1 0x1 PUSH1 0xA0 SHL SUB DUP11 DUP2 AND PUSH1 0x1 PUSH1 0x1 PUSH1 0xA0 SHL SUB NOT DUP4 AND OR SWAP1 SWAP3 SSTORE PUSH1 0x2 SWAP1 SWAP3 MSTORE SWAP5 DUP4 KECCAK256 DUP1 SLOAD SWAP5 SWAP7 POP SWAP5 AND ISZERO SWAP4 SWAP1 SWAP3 SWAP1 SWAP2 SWAP1 PUSH2 0x58B SWAP1 DUP5 SWAP1 PUSH2 0xB0B JUMP JUMPDEST SWAP1 SWAP2 SSTORE POP POP DUP1 ISZERO PUSH2 0x5E6 JUMPI PUSH1 0x0 DUP3 DUP2 MSTORE PUSH1 0x3 PUSH1 0x20 MSTORE PUSH1 0x40 SWAP1 KECCAK256 PUSH2 0x5AF DUP7 DUP9 DUP4 PUSH2 0xB90 JUMP JUMPDEST POP PUSH1 0x4 DUP1 SLOAD PUSH1 0x1 DUP2 ADD DUP3 SSTORE PUSH1 0x0 SWAP2 SWAP1 SWAP2 MSTORE PUSH32 0x8A35ACFBC15FF81A39AE7D344FD709F28E8600B4AA8C65C6B64BFE7FE36BD19B ADD DUP3 SWAP1 SSTORE JUMPDEST DUP4 PUSH1 0x1 PUSH1 0x1 PUSH1 0xA0 SHL SUB AND DUP3 PUSH32 0x1DCD9AF8FAD57AC3B2248E55D4FF80E3F5DC74DBD8E90D1A5D49F83ADC12B62D DUP9 DUP9 PUSH1 0x2 PUSH1 0x0 DUP9 DUP2 MSTORE PUSH1 0x20 ADD SWAP1 DUP2 MSTORE PUSH1 0x20 ADD PUSH1 0x0 KECCAK256 SLOAD TIMESTAMP PUSH1 0x40 MLOAD PUSH2 0x639 SWAP5 SWAP4 SWAP3 SWAP2 SWAP1 PUSH2 0xC7A JUMP JUMPDEST PUSH1 0x40 MLOAD DUP1 SWAP2 SUB SWAP1 LOG3 POP POP POP POP POP POP JUMP JUMPDEST PUSH1 0x0 SWAP2 DUP3 MSTORE PUSH1 0x20 DUP3 DUP2 MSTORE PUSH1 0x40 DUP1 DUP5 KECCAK256 PUSH1 0x1 PUSH1 0x1 PUSH1 0xA0 SHL SUB SWAP4 SWAP1 SWAP4 AND DUP5 MSTORE SWAP2 SWAP1 MSTORE SWAP1 KECCAK256 SLOAD PUSH1 0xFF AND SWAP1 JUMP JUMPDEST PUSH32 0xA49807205CE4D355092EF5A8A18F56E8913CF4A201FBE287825B095693C21775 PUSH2 0x69C DUP2 PUSH2 0x7BB JUMP JUMPDEST PUSH1 0x0 DUP4 DUP4 PUSH1 0x40 MLOAD PUSH2 0x6AE SWAP3 SWAP2 SWAP1 PUSH2 0xAFB JUMP JUMPDEST PUSH1 0x40 DUP1 MLOAD SWAP2 DUP3 SWAP1 SUB SWAP1 SWAP2 KECCAK256 PUSH1 0x0 DUP2 DUP2 MSTORE PUSH1 0x1 PUSH1 0x20 MSTORE SWAP2 SWAP1 SWAP2 KECCAK256 SLOAD SWAP1 SWAP2 POP PUSH1 0x1 PUSH1 0x1 PUSH1 0xA0 SHL SUB AND PUSH2 0x715 JUMPI PUSH1 0x40 MLOAD PUSH3 0x461BCD PUSH1 0xE5 SHL DUP2 MSTORE PUSH1 0x20 PUSH1 0x4 DUP3 ADD MSTORE PUSH1 0x12 PUSH1 0x24 DUP3 ADD MSTORE PUSH18 0x10DBDB9D1C9858DD081B9BDD08199BDD5B99 PUSH1 0x72 SHL PUSH1 0x44 DUP3 ADD MSTORE PUSH1 0x64 ADD PUSH2 0x519 JUMP JUMPDEST PUSH1 0x0 DUP2 DUP2 MSTORE PUSH1 0x1 PUSH1 0x20 MSTORE PUSH1 0x40 SWAP1 DUP2 SWAP1 KECCAK256 DUP1 SLOAD PUSH1 0x1 PUSH1 0x1 PUSH1 0xA0 SHL SUB NOT AND SWAP1 SSTORE MLOAD DUP2 SWAP1 PUSH32 0xB153B3339A5C9100B8BCA81969E42275D61F0AD2B90266C91EBC8114051B0383 SWAP1 PUSH2 0x767 SWAP1 DUP8 SWAP1 DUP8 SWAP1 TIMESTAMP SWAP1 PUSH2 0xCA1 JUMP JUMPDEST PUSH1 0x40 MLOAD DUP1 SWAP2 SUB SWAP1 LOG2 POP POP POP POP JUMP JUMPDEST PUSH1 0x0 DUP3 DUP2 MSTORE PUSH1 0x20 DUP2 SWAP1 MSTORE PUSH1 0x40 SWAP1 KECCAK256 PUSH1 0x1 ADD SLOAD PUSH2 0x790 DUP2 PUSH2 0x7BB JUMP JUMPDEST PUSH2 0x3F8 DUP4 DUP4 PUSH2 0x85A JUMP JUMPDEST PUSH1 0x4 DUP2 DUP2 SLOAD DUP2 LT PUSH2 0x7AA JUMPI PUSH1 0x0 DUP1 REVERT JUMPDEST PUSH1 0x0 SWAP2 DUP3 MSTORE PUSH1 0x20 SWAP1 SWAP2 KECCAK256 ADD SLOAD SWAP1 POP DUP2 JUMP JUMPDEST PUSH2 0x7C5 DUP2 CALLER PUSH2 0x8C5 JUMP JUMPDEST POP JUMP JUMPDEST PUSH1 0x0 PUSH2 0x7D4 DUP4 DUP4 PUSH2 0x649 JUMP JUMPDEST PUSH2 0x852 JUMPI PUSH1 0x0 DUP4 DUP2 MSTORE PUSH1 0x20 DUP2 DUP2 MSTORE PUSH1 0x40 DUP1 DUP4 KECCAK256 PUSH1 0x1 PUSH1 0x1 PUSH1 0xA0 SHL SUB DUP7 AND DUP5 MSTORE SWAP1 SWAP2 MSTORE SWAP1 KECCAK256 DUP1 SLOAD PUSH1 0xFF NOT AND PUSH1 0x1 OR SWAP1 SSTORE PUSH2 0x80A CALLER SWAP1 JUMP JUMPDEST PUSH1 0x1 PUSH1 0x1 PUSH1 0xA0 SHL SUB AND DUP3 PUSH1 0x1 PUSH1 0x1 PUSH1 0xA0 SHL SUB AND DUP5 PUSH32 0x2F8788117E7EFF1D82E926EC794901D17C78024A50270940304540A733656F0D PUSH1 0x40 MLOAD PUSH1 0x40 MLOAD DUP1 SWAP2 SUB SWAP1 LOG4 POP PUSH1 0x1 PUSH2 0x333 JUMP JUMPDEST POP PUSH1 0x0 PUSH2 0x333 JUMP JUMPDEST PUSH1 0x0 PUSH2 0x866 DUP4 DUP4 PUSH2 0x649 JUMP JUMPDEST ISZERO PUSH2 0x852 JUMPI PUSH1 0x0 DUP4 DUP2 MSTORE PUSH1 0x20 DUP2 DUP2 MSTORE PUSH1 0x40 DUP1 DUP4 KECCAK256 PUSH1 0x1 PUSH1 0x1 PUSH1 0xA0 SHL SUB DUP7 AND DUP1 DUP6 MSTORE SWAP3 MSTORE DUP1 DUP4 KECCAK256 DUP1 SLOAD PUSH1 0xFF NOT AND SWAP1 SSTORE MLOAD CALLER SWAP3 DUP7 SWAP2 PUSH32 0xF6391F5C32D9C69D2A47EA670B442974B53935D1EDC7FD64EB21E047A839171B SWAP2 SWAP1 LOG4 POP PUSH1 0x1 PUSH2 0x333 JUMP JUMPDEST PUSH2 0x8CF DUP3 DUP3 PUSH2 0x649 JUMP JUMPDEST PUSH2 0x8FE JUMPI PUSH1 0x40 MLOAD PUSH4 0xE2517D3F PUSH1 0xE0 SHL DUP2 MSTORE PUSH1 0x1 PUSH1 0x1 PUSH1 0xA0 SHL SUB DUP3 AND PUSH1 0x4 DUP3 ADD MSTORE PUSH1 0x24 DUP2 ADD DUP4 SWAP1 MSTORE PUSH1 0x44 ADD PUSH2 0x519 JUMP JUMPDEST POP POP JUMP JUMPDEST PUSH1 0x0 PUSH1 0x20 DUP3 DUP5 SUB SLT ISZERO PUSH2 0x914 JUMPI PUSH1 0x0 DUP1 REVERT JUMPDEST DUP2 CALLDATALOAD PUSH1 0x1 PUSH1 0x1 PUSH1 0xE0 SHL SUB NOT DUP2 AND DUP2 EQ PUSH2 0x92C JUMPI PUSH1 0x0 DUP1 REVERT JUMPDEST SWAP4 SWAP3 POP POP POP JUMP JUMPDEST PUSH1 0x0 PUSH1 0x20 DUP3 DUP5 SUB SLT ISZERO PUSH2 0x945 JUMPI PUSH1 0x0 DUP1 REVERT JUMPDEST POP CALLDATALOAD SWAP2 SWAP1 POP JUMP JUMPDEST PUSH1 0x0 PUSH1 0x20 DUP1 DUP4 MSTORE DUP4 MLOAD DUP1 DUP3 DUP6 ADD MSTORE PUSH1 0x0 JUMPDEST DUP2 DUP2 LT ISZERO PUSH2 0x979 JUMPI DUP6 DUP2 ADD DUP4 ADD MLOAD DUP6 DUP3 ADD PUSH1 0x40 ADD MSTORE DUP3 ADD PUSH2 0x95D JUMP JUMPDEST POP PUSH1 0x0 PUSH1 0x40 DUP3 DUP7 ADD ADD MSTORE PUSH1 0x40 PUSH1 0x1F NOT PUSH1 0x1F DUP4 ADD AND DUP6 ADD ADD SWAP3 POP POP POP SWAP3 SWAP2 POP POP JUMP JUMPDEST DUP1 CALLDATALOAD PUSH1 0x1 PUSH1 0x1 PUSH1 0xA0 SHL SUB DUP2 AND DUP2 EQ PUSH2 0x9B1 JUMPI PUSH1 0x0 DUP1 REVERT JUMPDEST SWAP2 SWAP1 POP JUMP JUMPDEST PUSH1 0x0 DUP1 PUSH1 0x40 DUP4 DUP6 SUB SLT ISZERO PUSH2 0x9C9 JUMPI PUSH1 0x0 DUP1 REVERT JUMPDEST DUP3 CALLDATALOAD SWAP2 POP PUSH2 0x9D9 PUSH1 0x20 DUP5 ADD PUSH2 0x99A JUMP JUMPDEST SWAP1 POP SWAP3 POP SWAP3 SWAP1 POP JUMP JUMPDEST PUSH1 0x0 DUP1 DUP4 PUSH1 0x1F DUP5 ADD SLT PUSH2 0x9F4 JUMPI PUSH1 0x0 DUP1 REVERT JUMPDEST POP DUP2 CALLDATALOAD PUSH8 0xFFFFFFFFFFFFFFFF DUP2 GT ISZERO PUSH2 0xA0C JUMPI PUSH1 0x0 DUP1 REVERT JUMPDEST PUSH1 0x20 DUP4 ADD SWAP2 POP DUP4 PUSH1 0x20 DUP3 DUP6 ADD ADD GT ISZERO PUSH2 0xA24 JUMPI PUSH1 0x0 DUP1 REVERT JUMPDEST SWAP3 POP SWAP3 SWAP1 POP JUMP JUMPDEST PUSH1 0x0 DUP1 PUSH1 0x20 DUP4 DUP6 SUB SLT ISZERO PUSH2 0xA3E JUMPI PUSH1 0x0 DUP1 REVERT JUMPDEST DUP3 CALLDATALOAD PUSH8 0xFFFFFFFFFFFFFFFF DUP2 GT ISZERO PUSH2 0xA55 JUMPI PUSH1 0x0 DUP1 REVERT JUMPDEST PUSH2 0xA61 DUP6 DUP3 DUP7 ADD PUSH2 0x9E2 JUMP JUMPDEST SWAP1 SWAP7 SWAP1 SWAP6 POP SWAP4 POP POP POP POP JUMP JUMPDEST PUSH1 0x0 DUP1 PUSH1 0x0 PUSH1 0x40 DUP5 DUP7 SUB SLT ISZERO PUSH2 0xA82 JUMPI PUSH1 0x0 DUP1 REVERT JUMPDEST DUP4 CALLDATALOAD PUSH8 0xFFFFFFFFFFFFFFFF DUP2 GT ISZERO PUSH2 0xA99 JUMPI PUSH1 0x0 DUP1 REVERT JUMPDEST PUSH2 0xAA5 DUP7 DUP3 DUP8 ADD PUSH2 0x9E2 JUMP JUMPDEST SWAP1 SWAP5 POP SWAP3 POP PUSH2 0xAB8 SWAP1 POP PUSH1 0x20 DUP6 ADD PUSH2 0x99A JUMP JUMPDEST SWAP1 POP SWAP3 POP SWAP3 POP SWAP3 JUMP JUMPDEST PUSH1 0x1 DUP2 DUP2 SHR SWAP1 DUP3 AND DUP1 PUSH2 0xAD5 JUMPI PUSH1 0x7F DUP3 AND SWAP2 POP JUMPDEST PUSH1 0x20 DUP3 LT DUP2 SUB PUSH2 0xAF5 JUMPI PUSH4 0x4E487B71 PUSH1 0xE0 SHL PUSH1 0x0 MSTORE PUSH1 0x22 PUSH1 0x4 MSTORE PUSH1 0x24 PUSH1 0x0 REVERT JUMPDEST POP SWAP2 SWAP1 POP JUMP JUMPDEST DUP2 DUP4 DUP3 CALLDATACOPY PUSH1 0x0 SWAP2 ADD SWAP1 DUP2 MSTORE SWAP2 SWAP1 POP JUMP JUMPDEST DUP1 DUP3 ADD DUP1 DUP3 GT ISZERO PUSH2 0x333 JUMPI PUSH4 0x4E487B71 PUSH1 0xE0 SHL PUSH1 0x0 MSTORE PUSH1 0x11 PUSH1 0x4 MSTORE PUSH1 0x24 PUSH1 0x0 REVERT JUMPDEST PUSH4 0x4E487B71 PUSH1 0xE0 SHL PUSH1 0x0 MSTORE PUSH1 0x41 PUSH1 0x4 MSTORE PUSH1 0x24 PUSH1 0x0 REVERT JUMPDEST PUSH1 0x1F DUP3 GT ISZERO PUSH2 0x471 JUMPI PUSH1 0x0 DUP2 DUP2 MSTORE PUSH1 0x20 DUP2 KECCAK256 PUSH1 0x1F DUP6 ADD PUSH1 0x5 SHR DUP2 ADD PUSH1 0x20 DUP7 LT ISZERO PUSH2 0xB69 JUMPI POP DUP1 JUMPDEST PUSH1 0x1F DUP6 ADD PUSH1 0x5 SHR DUP3 ADD SWAP2 POP JUMPDEST DUP2 DUP2 LT ISZERO PUSH2 0xB88 JUMPI DUP3 DUP2 SSTORE PUSH1 0x1 ADD PUSH2 0xB75 JUMP JUMPDEST POP POP POP POP POP POP JUMP JUMPDEST PUSH8 0xFFFFFFFFFFFFFFFF DUP4 GT ISZERO PUSH2 0xBA8 JUMPI PUSH2 0xBA8 PUSH2 0xB2C JUMP JUMPDEST PUSH2 0xBBC DUP4 PUSH2 0xBB6 DUP4 SLOAD PUSH2 0xAC1 JUMP JUMPDEST DUP4 PUSH2 0xB42 JUMP JUMPDEST PUSH1 0x0 PUSH1 0x1F DUP5 GT PUSH1 0x1 DUP2 EQ PUSH2 0xBF0 JUMPI PUSH1 0x0 DUP6 ISZERO PUSH2 0xBD8 JUMPI POP DUP4 DUP3 ADD CALLDATALOAD JUMPDEST PUSH1 0x0 NOT PUSH1 0x3 DUP8 SWAP1 SHL SHR NOT AND PUSH1 0x1 DUP7 SWAP1 SHL OR DUP4 SSTORE PUSH2 0xC4A JUMP JUMPDEST PUSH1 0x0 DUP4 DUP2 MSTORE PUSH1 0x20 SWAP1 KECCAK256 PUSH1 0x1F NOT DUP7 AND SWAP1 DUP4 JUMPDEST DUP3 DUP2 LT ISZERO PUSH2 0xC21 JUMPI DUP7 DUP6 ADD CALLDATALOAD DUP3 SSTORE PUSH1 0x20 SWAP5 DUP6 ADD SWAP5 PUSH1 0x1 SWAP1 SWAP3 ADD SWAP2 ADD PUSH2 0xC01 JUMP JUMPDEST POP DUP7 DUP3 LT ISZERO PUSH2 0xC3E JUMPI PUSH1 0x0 NOT PUSH1 0xF8 DUP9 PUSH1 0x3 SHL AND SHR NOT DUP5 DUP8 ADD CALLDATALOAD AND DUP2 SSTORE JUMPDEST POP POP PUSH1 0x1 DUP6 PUSH1 0x1 SHL ADD DUP4 SSTORE JUMPDEST POP POP POP POP POP JUMP JUMPDEST DUP2 DUP4 MSTORE DUP2 DUP2 PUSH1 0x20 DUP6 ADD CALLDATACOPY POP PUSH1 0x0 DUP3 DUP3 ADD PUSH1 0x20 SWAP1 DUP2 ADD SWAP2 SWAP1 SWAP2 MSTORE PUSH1 0x1F SWAP1 SWAP2 ADD PUSH1 0x1F NOT AND SWAP1 SWAP2 ADD ADD SWAP1 JUMP JUMPDEST PUSH1 0x60 DUP2 MSTORE PUSH1 0x0 PUSH2 0xC8E PUSH1 0x60 DUP4 ADD DUP7 DUP9 PUSH2 0xC51 JUMP JUMPDEST PUSH1 0x20 DUP4 ADD SWAP5 SWAP1 SWAP5 MSTORE POP PUSH1 0x40 ADD MSTORE SWAP3 SWAP2 POP POP JUMP JUMPDEST PUSH1 0x40 DUP2 MSTORE PUSH1 0x0 PUSH2 0xCB5 PUSH1 0x40 DUP4 ADD DUP6 DUP8 PUSH2 0xC51 JUMP JUMPDEST SWAP1 POP DUP3 PUSH1 0x20 DUP4 ADD MSTORE SWAP5 SWAP4 POP POP POP POP JUMP INVALID LOG2 PUSH5 0x6970667358 0x22 SLT KECCAK256 0xC1 PUSH12 0xAF7FDD1FEA05100047B9A7F4 PUSH6 0xED5ECCCF0908 0x1E CREATE PUSH11 0xFEEFBF4FC0F6A4CC64736F PUSH13 0x63430008140033000000000000 "},"methodIdentifiers":{"ADMIN_ROLE()":"75b238fc","DEFAULT_ADMIN_ROLE()":"a217fddf","contracts(bytes32)":"ec56a373","getContract(string)":"35817773","getContractByHash(bytes32)":"6933a44c","getContractCount()":"9399869d","getRoleAdmin(bytes32)":"248a9ca3","getVersion(string)":"3ab50a9c","grantRole(bytes32,address)":"2f2ff15d","hasRole(bytes32,address)":"91d14854","names(bytes32)":"20c38e2b","registeredContracts(uint256)":"e33c4cd2","removeContract(string)":"97623b58","renounceRole(bytes32,address)":"36568abe","revokeRole(bytes32,address)":"d547741f","setContract(string,address)":"3f0ed0df","supportsInterface(bytes4)":"01ffc9a7","versions(bytes32)":"c7cec7f8"}}}}}