{"contracts/NodescryptAudit.sol":{"NodescryptAudit":{"abi":[{"inputs":[],"stateMutability":"nonpayable","type":"constructor"},{"anonymous":false,"inputs":[{"indexed":true,"internalType":"address","name":"oldAdmin","type":"address"},{"indexed":true,"internalType":"address","name":"newAdmin","type":"address"}],"name":"AdminTransferred","type":"event"},{"anonymous":false,"inputs":[{"indexed":true,"internalType":"bytes32","name":"incidentId","type":"bytes32"},{"indexed":false,"internalType":"uint8","name":"action","type":"uint8"},{"indexed":false,"internalType":"bytes32","name":"modelId","type":"bytes32"},{"indexed":true,"internalType":"address","name":"reporter","type":"address"},{"indexed":false,"internalType":"uint256","name":"timestamp","type":"uint256"}],"name":"IncidentLogged","type":"event"},{"anonymous":false,"inputs":[{"indexed":true,"internalType":"address","name":"node","type":"address"}],"name":"NodeAuthorized","type":"event"},{"anonymous":false,"inputs":[{"indexed":true,"internalType":"address","name":"node","type":"address"}],"name":"NodeRevoked","type":"event"},{"inputs":[],"name":"admin","outputs":[{"internalType":"address","name":"","type":"address"}],"stateMutability":"view","type":"function"},{"inputs":[{"internalType":"address","name":"node","type":"address"}],"name":"authorizeNode","outputs":[],"stateMutability":"nonpayable","type":"function"},{"inputs":[{"internalType":"address","name":"","type":"address"}],"name":"authorizedNodes","outputs":[{"internalType":"bool","name":"","type":"bool"}],"stateMutability":"view","type":"function"},{"inputs":[{"internalType":"bytes32","name":"incidentId","type":"bytes32"}],"name":"getIncident","outputs":[{"internalType":"uint8","name":"action","type":"uint8"},{"internalType":"bytes32","name":"modelId","type":"bytes32"},{"internalType":"uint256","name":"timestamp","type":"uint256"},{"internalType":"address","name":"reporter","type":"address"}],"stateMutability":"view","type":"function"},{"inputs":[],"name":"getIncidentCount","outputs":[{"internalType":"uint256","name":"","type":"uint256"}],"stateMutability":"view","type":"function"},{"inputs":[{"internalType":"uint256","name":"count","type":"uint256"}],"name":"getRecentIncidents","outputs":[{"internalType":"bytes32[]","name":"","type":"bytes32[]"}],"stateMutability":"view","type":"function"},{"inputs":[],"name":"getStats","outputs":[{"internalType":"uint256","name":"total","type":"uint256"},{"internalType":"uint256","name":"dropped","type":"uint256"},{"internalType":"uint256","name":"delayed","type":"uint256"}],"stateMutability":"view","type":"function"},{"inputs":[{"internalType":"uint256","name":"","type":"uint256"}],"name":"incidentIds","outputs":[{"internalType":"bytes32","name":"","type":"bytes32"}],"stateMutability":"view","type":"function"},{"inputs":[{"internalType":"bytes32","name":"","type":"bytes32"}],"name":"incidents","outputs":[{"internalType":"bytes32","name":"incidentId","type":"bytes32"},{"internalType":"uint8","name":"action","type":"uint8"},{"internalType":"bytes32","name":"modelId","type":"bytes32"},{"internalType":"uint256","name":"timestamp","type":"uint256"},{"internalType":"address","name":"reporter","type":"address"}],"stateMutability":"view","type":"function"},{"inputs":[{"internalType":"bytes32","name":"incidentId","type":"bytes32"},{"internalType":"uint8","name":"action","type":"uint8"},{"internalType":"bytes32","name":"modelId","type":"bytes32"}],"name":"logIncident","outputs":[],"stateMutability":"nonpayable","type":"function"},{"inputs":[{"internalType":"bytes32[]","name":"ids","type":"bytes32[]"},{"internalType":"uint8[]","name":"actions","type":"uint8[]"},{"internalType":"bytes32[]","name":"modelIds","type":"bytes32[]"}],"name":"logIncidentBatch","outputs":[],"stateMutability":"nonpayable","type":"function"},{"inputs":[{"internalType":"address","name":"node","type":"address"}],"name":"revokeNode","outputs":[],"stateMutability":"nonpayable","type":"function"},{"inputs":[],"name":"totalDelayed","outputs":[{"internalType":"uint256","name":"","type":"uint256"}],"stateMutability":"view","type":"function"},{"inputs":[],"name":"totalDropped","outputs":[{"internalType":"uint256","name":"","type":"uint256"}],"stateMutability":"view","type":"function"},{"inputs":[],"name":"totalIncidents","outputs":[{"internalType":"uint256","name":"","type":"uint256"}],"stateMutability":"view","type":"function"},{"inputs":[{"internalType":"address","name":"newAdmin","type":"address"}],"name":"transferAdmin","outputs":[],"stateMutability":"nonpayable","type":"function"}],"evm":{"bytecode":{"linkReferences":{},"object":"608060405234801561001057600080fd5b50600380546001600160a01b031916339081179091556000908152600260205260409020805460ff19166001179055610eef8061004e6000396000f3fe608060405234801561001057600080fd5b50600436106101005760003560e01c8063b2c4f13a11610097578063cdccab5b11610066578063cdccab5b1461031c578063d144454b1461032f578063ef6086da14610338578063f851a4401461034157600080fd5b8063b2c4f13a14610238578063b76a8bd21461024b578063b8f038281461025e578063c59d4847146102f857600080fd5b80637e53a740116100d35780637e53a7401461016d57806395962692146101a05780639739d167146101a8578063acc72bc61461022557600080fd5b8063056840781461010557806331b7733f1461011a57806375829def146101435780637910b05a14610156575b600080fd5b610118610113366004610c5e565b61036c565b005b61012d610128366004610c93565b6105c2565b60405161013a9190610cac565b60405180910390f35b610118610151366004610cf0565b61068f565b61015f60045481565b60405190815260200161013a565b61019061017b366004610cf0565b60026020526000908152604090205460ff1681565b604051901515815260200161013a565b60015461015f565b6101f26101b6366004610c93565b60006020819052908152604090208054600182015460028301546003840154600490940154929360ff909216929091906001600160a01b031685565b6040805195865260ff90941660208601529284019190915260608301526001600160a01b0316608082015260a00161013a565b610118610233366004610cf0565b610775565b610118610246366004610d6c565b6107eb565b610118610259366004610cf0565b610bb4565b6102cb61026c366004610c93565b60009081526020818152604091829020825160a08101845281548152600182015460ff1692810183905260028201549381018490526003820154606082018190526004909201546001600160a01b031660809091018190529193909190565b6040805160ff90951685526020850193909352918301526001600160a01b0316606082015260800161013a565b6004546005546006546040805193845260208401929092529082015260600161013a565b61015f61032a366004610c93565b610c27565b61015f60055481565b61015f60065481565b600354610354906001600160a01b031681565b6040516001600160a01b03909116815260200161013a565b3360009081526002602052604090205460ff168061039457506003546001600160a01b031633145b6103d65760405162461bcd60e51b815260206004820152600e60248201526d139bdd08185d5d1a1bdc9a5e995960921b60448201526064015b60405180910390fd5b600083815260208190526040902060030154156104275760405162461bcd60e51b815260206004820152600f60248201526e496e636964656e742065786973747360881b60448201526064016103cd565b60038260ff16111561046c5760405162461bcd60e51b815260206004820152600e60248201526d24b73b30b634b21030b1ba34b7b760911b60448201526064016103cd565b6040805160a08101825284815260ff84811660208084019182528385018681524260608601908152336080870190815260008b8152938490529683209551865592516001808701805460ff19169290961691909117909455516002850155905160038401559251600492830180546001600160a01b0319166001600160a01b03909216919091179055805480820182559083527fb10e2d527612073b26eecdfd717e6a320cf44b4afac2b0732d9fcbe2b7fa0cf60185905580549161053083610e1c565b91905055508160ff16600203610556576005805490600061055083610e1c565b91905055505b8160ff16600103610577576006805490600061057183610e1c565b91905055505b6040805160ff841681526020810183905242818301529051339185917f78dd360096405ef6259046abde7e2ff8ea659036a7ea69bca6cd2947e6a132319181900360600190a3505050565b600154606090808311156105d4578092505b60008367ffffffffffffffff8111156105ef576105ef610e35565b604051908082528060200260200182016040528015610618578160200160208202803683370190505b50905060005b84811015610687576001816106338286610e4b565b61063d9190610e4b565b8154811061064d5761064d610e64565b906000526020600020015482828151811061066a5761066a610e64565b60209081029190910101528061067f81610e1c565b91505061061e565b509392505050565b6003546001600160a01b031633146106b95760405162461bcd60e51b81526004016103cd90610e7a565b6001600160a01b0381166107015760405162461bcd60e51b815260206004820152600f60248201526e496e76616c6964206164647265737360881b60448201526064016103cd565b6003546040516001600160a01b038084169216907ff8ccb027dfcd135e000e9d45e6cc2d662578a8825d4c45b5e32e0adf67e79ec690600090a3600380546001600160a01b039092166001600160a01b0319909216821790556000908152600260205260409020805460ff19166001179055565b6003546001600160a01b0316331461079f5760405162461bcd60e51b81526004016103cd90610e7a565b6001600160a01b038116600081815260026020526040808220805460ff19166001179055517f8638f01ed0471fe5cd807bb572bf42f715a4a2064a2c643b9d78bad2b95ec86f9190a250565b3360009081526002602052604090205460ff168061081357506003546001600160a01b031633145b6108505760405162461bcd60e51b815260206004820152600e60248201526d139bdd08185d5d1a1bdc9a5e995960921b60448201526064016103cd565b848314801561085e57508281145b61089c5760405162461bcd60e51b815260206004820152600f60248201526e098cadccee8d040dad2e6dac2e8c6d608b1b60448201526064016103cd565b60005b85811015610bab576000808888848181106108bc576108bc610e64565b90506020020135815260200190815260200160002060030154600014801561090e575060038585838181106108f3576108f3610e64565b90506020020160208101906109089190610e9e565b60ff1611155b15610b99576040518060a0016040528088888481811061093057610930610e64565b90506020020135815260200186868481811061094e5761094e610e64565b90506020020160208101906109639190610e9e565b60ff16815260200184848481811061097d5761097d610e64565b905060200201358152602001428152602001336001600160a01b03168152506000808989858181106109b1576109b1610e64565b6020908102929092013583525081810192909252604090810160002083518155918301516001808401805460ff191660ff9093169290921790915590830151600283015560608301516003830155608090920151600490910180546001600160a01b0319166001600160a01b03909216919091179055878783818110610a3957610a39610e64565b83546001810185556000948552602080862092029390930135920191909155506004805491610a6783610e1c565b9190505550848482818110610a7e57610a7e610e64565b9050602002016020810190610a939190610e9e565b60ff16600203610ab35760058054906000610aad83610e1c565b91905055505b848482818110610ac557610ac5610e64565b9050602002016020810190610ada9190610e9e565b60ff16600103610afa5760068054906000610af483610e1c565b91905055505b33878783818110610b0d57610b0d610e64565b905060200201357f78dd360096405ef6259046abde7e2ff8ea659036a7ea69bca6cd2947e6a13231878785818110610b4757610b47610e64565b9050602002016020810190610b5c9190610e9e565b868686818110610b6e57610b6e610e64565b6040805160ff9095168552602091820293909301359084015250429082015260600160405180910390a35b80610ba381610e1c565b91505061089f565b50505050505050565b6003546001600160a01b03163314610bde5760405162461bcd60e51b81526004016103cd90610e7a565b6001600160a01b038116600081815260026020526040808220805460ff19169055517f1ed1124975b36f977f88e26d9688d6772db1efc746521b431543fa5bc7e7d4a09190a250565b60018181548110610c3757600080fd5b600091825260209091200154905081565b803560ff81168114610c5957600080fd5b919050565b600080600060608486031215610c7357600080fd5b83359250610c8360208501610c48565b9150604084013590509250925092565b600060208284031215610ca557600080fd5b5035919050565b6020808252825182820181905260009190848201906040850190845b81811015610ce457835183529284019291840191600101610cc8565b50909695505050505050565b600060208284031215610d0257600080fd5b81356001600160a01b0381168114610d1957600080fd5b9392505050565b60008083601f840112610d3257600080fd5b50813567ffffffffffffffff811115610d4a57600080fd5b6020830191508360208260051b8501011115610d6557600080fd5b9250929050565b60008060008060008060608789031215610d8557600080fd5b863567ffffffffffffffff80821115610d9d57600080fd5b610da98a838b01610d20565b90985096506020890135915080821115610dc257600080fd5b610dce8a838b01610d20565b90965094506040890135915080821115610de757600080fd5b50610df489828a01610d20565b979a9699509497509295939492505050565b634e487b7160e01b600052601160045260246000fd5b600060018201610e2e57610e2e610e06565b5060010190565b634e487b7160e01b600052604160045260246000fd5b81810381811115610e5e57610e5e610e06565b92915050565b634e487b7160e01b600052603260045260246000fd5b6020808252600a908201526927b7363c9030b236b4b760b11b604082015260600190565b600060208284031215610eb057600080fd5b610d1982610c4856fea2646970667358221220f76a9908946177ed368331fe33ccb2fcc6aa86a679b53531fc990d628cc65d0364736f6c63430008140033","opcodes":"PUSH1 0x80 PUSH1 0x40 MSTORE CALLVALUE DUP1 ISZERO PUSH2 0x10 JUMPI PUSH1 0x0 DUP1 REVERT JUMPDEST POP PUSH1 0x3 DUP1 SLOAD PUSH1 0x1 PUSH1 0x1 PUSH1 0xA0 SHL SUB NOT AND CALLER SWAP1 DUP2 OR SWAP1 SWAP2 SSTORE PUSH1 0x0 SWAP1 DUP2 MSTORE PUSH1 0x2 PUSH1 0x20 MSTORE PUSH1 0x40 SWAP1 KECCAK256 DUP1 SLOAD PUSH1 0xFF NOT AND PUSH1 0x1 OR SWAP1 SSTORE PUSH2 0xEEF DUP1 PUSH2 0x4E PUSH1 0x0 CODECOPY PUSH1 0x0 RETURN INVALID PUSH1 0x80 PUSH1 0x40 MSTORE CALLVALUE DUP1 ISZERO PUSH2 0x10 JUMPI PUSH1 0x0 DUP1 REVERT JUMPDEST POP PUSH1 0x4 CALLDATASIZE LT PUSH2 0x100 JUMPI PUSH1 0x0 CALLDATALOAD PUSH1 0xE0 SHR DUP1 PUSH4 0xB2C4F13A GT PUSH2 0x97 JUMPI DUP1 PUSH4 0xCDCCAB5B GT PUSH2 0x66 JUMPI DUP1 PUSH4 0xCDCCAB5B EQ PUSH2 0x31C JUMPI DUP1 PUSH4 0xD144454B EQ PUSH2 0x32F JUMPI DUP1 PUSH4 0xEF6086DA EQ PUSH2 0x338 JUMPI DUP1 PUSH4 0xF851A440 EQ PUSH2 0x341 JUMPI PUSH1 0x0 DUP1 REVERT JUMPDEST DUP1 PUSH4 0xB2C4F13A EQ PUSH2 0x238 JUMPI DUP1 PUSH4 0xB76A8BD2 EQ PUSH2 0x24B JUMPI DUP1 PUSH4 0xB8F03828 EQ PUSH2 0x25E JUMPI DUP1 PUSH4 0xC59D4847 EQ PUSH2 0x2F8 JUMPI PUSH1 0x0 DUP1 REVERT JUMPDEST DUP1 PUSH4 0x7E53A740 GT PUSH2 0xD3 JUMPI DUP1 PUSH4 0x7E53A740 EQ PUSH2 0x16D JUMPI DUP1 PUSH4 0x95962692 EQ PUSH2 0x1A0 JUMPI DUP1 PUSH4 0x9739D167 EQ PUSH2 0x1A8 JUMPI DUP1 PUSH4 0xACC72BC6 EQ PUSH2 0x225 JUMPI PUSH1 0x0 DUP1 REVERT JUMPDEST DUP1 PUSH4 0x5684078 EQ PUSH2 0x105 JUMPI DUP1 PUSH4 0x31B7733F EQ PUSH2 0x11A JUMPI DUP1 PUSH4 0x75829DEF EQ PUSH2 0x143 JUMPI DUP1 PUSH4 0x7910B05A EQ PUSH2 0x156 JUMPI JUMPDEST PUSH1 0x0 DUP1 REVERT JUMPDEST PUSH2 0x118 PUSH2 0x113 CALLDATASIZE PUSH1 0x4 PUSH2 0xC5E JUMP JUMPDEST PUSH2 0x36C JUMP JUMPDEST STOP JUMPDEST PUSH2 0x12D PUSH2 0x128 CALLDATASIZE PUSH1 0x4 PUSH2 0xC93 JUMP JUMPDEST PUSH2 0x5C2 JUMP JUMPDEST PUSH1 0x40 MLOAD PUSH2 0x13A SWAP2 SWAP1 PUSH2 0xCAC JUMP JUMPDEST PUSH1 0x40 MLOAD DUP1 SWAP2 SUB SWAP1 RETURN JUMPDEST PUSH2 0x118 PUSH2 0x151 CALLDATASIZE PUSH1 0x4 PUSH2 0xCF0 JUMP JUMPDEST PUSH2 0x68F JUMP JUMPDEST PUSH2 0x15F PUSH1 0x4 SLOAD DUP2 JUMP JUMPDEST PUSH1 0x40 MLOAD SWAP1 DUP2 MSTORE PUSH1 0x20 ADD PUSH2 0x13A JUMP JUMPDEST PUSH2 0x190 PUSH2 0x17B CALLDATASIZE PUSH1 0x4 PUSH2 0xCF0 JUMP JUMPDEST PUSH1 0x2 PUSH1 0x20 MSTORE PUSH1 0x0 SWAP1 DUP2 MSTORE PUSH1 0x40 SWAP1 KECCAK256 SLOAD PUSH1 0xFF AND DUP2 JUMP JUMPDEST PUSH1 0x40 MLOAD SWAP1 ISZERO ISZERO DUP2 MSTORE PUSH1 0x20 ADD PUSH2 0x13A JUMP JUMPDEST PUSH1 0x1 SLOAD PUSH2 0x15F JUMP JUMPDEST PUSH2 0x1F2 PUSH2 0x1B6 CALLDATASIZE PUSH1 0x4 PUSH2 0xC93 JUMP JUMPDEST PUSH1 0x0 PUSH1 0x20 DUP2 SWAP1 MSTORE SWAP1 DUP2 MSTORE PUSH1 0x40 SWAP1 KECCAK256 DUP1 SLOAD PUSH1 0x1 DUP3 ADD SLOAD PUSH1 0x2 DUP4 ADD SLOAD PUSH1 0x3 DUP5 ADD SLOAD PUSH1 0x4 SWAP1 SWAP5 ADD SLOAD SWAP3 SWAP4 PUSH1 0xFF SWAP1 SWAP3 AND SWAP3 SWAP1 SWAP2 SWAP1 PUSH1 0x1 PUSH1 0x1 PUSH1 0xA0 SHL SUB AND DUP6 JUMP JUMPDEST PUSH1 0x40 DUP1 MLOAD SWAP6 DUP7 MSTORE PUSH1 0xFF SWAP1 SWAP5 AND PUSH1 0x20 DUP7 ADD MSTORE SWAP3 DUP5 ADD SWAP2 SWAP1 SWAP2 MSTORE PUSH1 0x60 DUP4 ADD MSTORE PUSH1 0x1 PUSH1 0x1 PUSH1 0xA0 SHL SUB AND PUSH1 0x80 DUP3 ADD MSTORE PUSH1 0xA0 ADD PUSH2 0x13A JUMP JUMPDEST PUSH2 0x118 PUSH2 0x233 CALLDATASIZE PUSH1 0x4 PUSH2 0xCF0 JUMP JUMPDEST PUSH2 0x775 JUMP JUMPDEST PUSH2 0x118 PUSH2 0x246 CALLDATASIZE PUSH1 0x4 PUSH2 0xD6C JUMP JUMPDEST PUSH2 0x7EB JUMP JUMPDEST PUSH2 0x118 PUSH2 0x259 CALLDATASIZE PUSH1 0x4 PUSH2 0xCF0 JUMP JUMPDEST PUSH2 0xBB4 JUMP JUMPDEST PUSH2 0x2CB PUSH2 0x26C CALLDATASIZE PUSH1 0x4 PUSH2 0xC93 JUMP JUMPDEST PUSH1 0x0 SWAP1 DUP2 MSTORE PUSH1 0x20 DUP2 DUP2 MSTORE PUSH1 0x40 SWAP2 DUP3 SWAP1 KECCAK256 DUP3 MLOAD PUSH1 0xA0 DUP2 ADD DUP5 MSTORE DUP2 SLOAD DUP2 MSTORE PUSH1 0x1 DUP3 ADD SLOAD PUSH1 0xFF AND SWAP3 DUP2 ADD DUP4 SWAP1 MSTORE PUSH1 0x2 DUP3 ADD SLOAD SWAP4 DUP2 ADD DUP5 SWAP1 MSTORE PUSH1 0x3 DUP3 ADD SLOAD PUSH1 0x60 DUP3 ADD DUP2 SWAP1 MSTORE PUSH1 0x4 SWAP1 SWAP3 ADD SLOAD PUSH1 0x1 PUSH1 0x1 PUSH1 0xA0 SHL SUB AND PUSH1 0x80 SWAP1 SWAP2 ADD DUP2 SWAP1 MSTORE SWAP2 SWAP4 SWAP1 SWAP2 SWAP1 JUMP JUMPDEST PUSH1 0x40 DUP1 MLOAD PUSH1 0xFF SWAP1 SWAP6 AND DUP6 MSTORE PUSH1 0x20 DUP6 ADD SWAP4 SWAP1 SWAP4 MSTORE SWAP2 DUP4 ADD MSTORE PUSH1 0x1 PUSH1 0x1 PUSH1 0xA0 SHL SUB AND PUSH1 0x60 DUP3 ADD MSTORE PUSH1 0x80 ADD PUSH2 0x13A JUMP JUMPDEST PUSH1 0x4 SLOAD PUSH1 0x5 SLOAD PUSH1 0x6 SLOAD PUSH1 0x40 DUP1 MLOAD SWAP4 DUP5 MSTORE PUSH1 0x20 DUP5 ADD SWAP3 SWAP1 SWAP3 MSTORE SWAP1 DUP3 ADD MSTORE PUSH1 0x60 ADD PUSH2 0x13A JUMP JUMPDEST PUSH2 0x15F PUSH2 0x32A CALLDATASIZE PUSH1 0x4 PUSH2 0xC93 JUMP JUMPDEST PUSH2 0xC27 JUMP JUMPDEST PUSH2 0x15F PUSH1 0x5 SLOAD DUP2 JUMP JUMPDEST PUSH2 0x15F PUSH1 0x6 SLOAD DUP2 JUMP JUMPDEST PUSH1 0x3 SLOAD PUSH2 0x354 SWAP1 PUSH1 0x1 PUSH1 0x1 PUSH1 0xA0 SHL SUB AND DUP2 JUMP JUMPDEST PUSH1 0x40 MLOAD PUSH1 0x1 PUSH1 0x1 PUSH1 0xA0 SHL SUB SWAP1 SWAP2 AND DUP2 MSTORE PUSH1 0x20 ADD PUSH2 0x13A JUMP JUMPDEST CALLER PUSH1 0x0 SWAP1 DUP2 MSTORE PUSH1 0x2 PUSH1 0x20 MSTORE PUSH1 0x40 SWAP1 KECCAK256 SLOAD PUSH1 0xFF AND DUP1 PUSH2 0x394 JUMPI POP PUSH1 0x3 SLOAD PUSH1 0x1 PUSH1 0x1 PUSH1 0xA0 SHL SUB AND CALLER EQ JUMPDEST PUSH2 0x3D6 JUMPI PUSH1 0x40 MLOAD PUSH3 0x461BCD PUSH1 0xE5 SHL DUP2 MSTORE PUSH1 0x20 PUSH1 0x4 DUP3 ADD MSTORE PUSH1 0xE PUSH1 0x24 DUP3 ADD MSTORE PUSH14 0x139BDD08185D5D1A1BDC9A5E9959 PUSH1 0x92 SHL PUSH1 0x44 DUP3 ADD MSTORE PUSH1 0x64 ADD JUMPDEST PUSH1 0x40 MLOAD DUP1 SWAP2 SUB SWAP1 REVERT JUMPDEST PUSH1 0x0 DUP4 DUP2 MSTORE PUSH1 0x20 DUP2 SWAP1 MSTORE PUSH1 0x40 SWAP1 KECCAK256 PUSH1 0x3 ADD SLOAD ISZERO PUSH2 0x427 JUMPI PUSH1 0x40 MLOAD PUSH3 0x461BCD PUSH1 0xE5 SHL DUP2 MSTORE PUSH1 0x20 PUSH1 0x4 DUP3 ADD MSTORE PUSH1 0xF PUSH1 0x24 DUP3 ADD MSTORE PUSH15 0x496E636964656E7420657869737473 PUSH1 0x88 SHL PUSH1 0x44 DUP3 ADD MSTORE PUSH1 0x64 ADD PUSH2 0x3CD JUMP JUMPDEST PUSH1 0x3 DUP3 PUSH1 0xFF AND GT ISZERO PUSH2 0x46C JUMPI PUSH1 0x40 MLOAD PUSH3 0x461BCD PUSH1 0xE5 SHL DUP2 MSTORE PUSH1 0x20 PUSH1 0x4 DUP3 ADD MSTORE PUSH1 0xE PUSH1 0x24 DUP3 ADD MSTORE PUSH14 0x24B73B30B634B21030B1BA34B7B7 PUSH1 0x91 SHL PUSH1 0x44 DUP3 ADD MSTORE PUSH1 0x64 ADD PUSH2 0x3CD JUMP JUMPDEST PUSH1 0x40 DUP1 MLOAD PUSH1 0xA0 DUP2 ADD DUP3 MSTORE DUP5 DUP2 MSTORE PUSH1 0xFF DUP5 DUP2 AND PUSH1 0x20 DUP1 DUP5 ADD SWAP2 DUP3 MSTORE DUP4 DUP6 ADD DUP7 DUP2 MSTORE TIMESTAMP PUSH1 0x60 DUP7 ADD SWAP1 DUP2 MSTORE CALLER PUSH1 0x80 DUP8 ADD SWAP1 DUP2 MSTORE PUSH1 0x0 DUP12 DUP2 MSTORE SWAP4 DUP5 SWAP1 MSTORE SWAP7 DUP4 KECCAK256 SWAP6 MLOAD DUP7 SSTORE SWAP3 MLOAD PUSH1 0x1 DUP1 DUP8 ADD DUP1 SLOAD PUSH1 0xFF NOT AND SWAP3 SWAP1 SWAP7 AND SWAP2 SWAP1 SWAP2 OR SWAP1 SWAP5 SSTORE MLOAD PUSH1 0x2 DUP6 ADD SSTORE SWAP1 MLOAD PUSH1 0x3 DUP5 ADD SSTORE SWAP3 MLOAD PUSH1 0x4 SWAP3 DUP4 ADD DUP1 SLOAD PUSH1 0x1 PUSH1 0x1 PUSH1 0xA0 SHL SUB NOT AND PUSH1 0x1 PUSH1 0x1 PUSH1 0xA0 SHL SUB SWAP1 SWAP3 AND SWAP2 SWAP1 SWAP2 OR SWAP1 SSTORE DUP1 SLOAD DUP1 DUP3 ADD DUP3 SSTORE SWAP1 DUP4 MSTORE PUSH32 0xB10E2D527612073B26EECDFD717E6A320CF44B4AFAC2B0732D9FCBE2B7FA0CF6 ADD DUP6 SWAP1 SSTORE DUP1 SLOAD SWAP2 PUSH2 0x530 DUP4 PUSH2 0xE1C JUMP JUMPDEST SWAP2 SWAP1 POP SSTORE POP DUP2 PUSH1 0xFF AND PUSH1 0x2 SUB PUSH2 0x556 JUMPI PUSH1 0x5 DUP1 SLOAD SWAP1 PUSH1 0x0 PUSH2 0x550 DUP4 PUSH2 0xE1C JUMP JUMPDEST SWAP2 SWAP1 POP SSTORE POP JUMPDEST DUP2 PUSH1 0xFF AND PUSH1 0x1 SUB PUSH2 0x577 JUMPI PUSH1 0x6 DUP1 SLOAD SWAP1 PUSH1 0x0 PUSH2 0x571 DUP4 PUSH2 0xE1C JUMP JUMPDEST SWAP2 SWAP1 POP SSTORE POP JUMPDEST PUSH1 0x40 DUP1 MLOAD PUSH1 0xFF DUP5 AND DUP2 MSTORE PUSH1 0x20 DUP2 ADD DUP4 SWAP1 MSTORE TIMESTAMP DUP2 DUP4 ADD MSTORE SWAP1 MLOAD CALLER SWAP2 DUP6 SWAP2 PUSH32 0x78DD360096405EF6259046ABDE7E2FF8EA659036A7EA69BCA6CD2947E6A13231 SWAP2 DUP2 SWAP1 SUB PUSH1 0x60 ADD SWAP1 LOG3 POP POP POP JUMP JUMPDEST PUSH1 0x1 SLOAD PUSH1 0x60 SWAP1 DUP1 DUP4 GT ISZERO PUSH2 0x5D4 JUMPI DUP1 SWAP3 POP JUMPDEST PUSH1 0x0 DUP4 PUSH8 0xFFFFFFFFFFFFFFFF DUP2 GT ISZERO PUSH2 0x5EF JUMPI PUSH2 0x5EF PUSH2 0xE35 JUMP JUMPDEST PUSH1 0x40 MLOAD SWAP1 DUP1 DUP3 MSTORE DUP1 PUSH1 0x20 MUL PUSH1 0x20 ADD DUP3 ADD PUSH1 0x40 MSTORE DUP1 ISZERO PUSH2 0x618 JUMPI DUP2 PUSH1 0x20 ADD PUSH1 0x20 DUP3 MUL DUP1 CALLDATASIZE DUP4 CALLDATACOPY ADD SWAP1 POP JUMPDEST POP SWAP1 POP PUSH1 0x0 JUMPDEST DUP5 DUP2 LT ISZERO PUSH2 0x687 JUMPI PUSH1 0x1 DUP2 PUSH2 0x633 DUP3 DUP7 PUSH2 0xE4B JUMP JUMPDEST PUSH2 0x63D SWAP2 SWAP1 PUSH2 0xE4B JUMP JUMPDEST DUP2 SLOAD DUP2 LT PUSH2 0x64D JUMPI PUSH2 0x64D PUSH2 0xE64 JUMP JUMPDEST SWAP1 PUSH1 0x0 MSTORE PUSH1 0x20 PUSH1 0x0 KECCAK256 ADD SLOAD DUP3 DUP3 DUP2 MLOAD DUP2 LT PUSH2 0x66A JUMPI PUSH2 0x66A PUSH2 0xE64 JUMP JUMPDEST PUSH1 0x20 SWAP1 DUP2 MUL SWAP2 SWAP1 SWAP2 ADD ADD MSTORE DUP1 PUSH2 0x67F DUP2 PUSH2 0xE1C JUMP JUMPDEST SWAP2 POP POP PUSH2 0x61E JUMP JUMPDEST POP SWAP4 SWAP3 POP POP POP JUMP JUMPDEST PUSH1 0x3 SLOAD PUSH1 0x1 PUSH1 0x1 PUSH1 0xA0 SHL SUB AND CALLER EQ PUSH2 0x6B9 JUMPI PUSH1 0x40 MLOAD PUSH3 0x461BCD PUSH1 0xE5 SHL DUP2 MSTORE PUSH1 0x4 ADD PUSH2 0x3CD SWAP1 PUSH2 0xE7A JUMP JUMPDEST PUSH1 0x1 PUSH1 0x1 PUSH1 0xA0 SHL SUB DUP2 AND PUSH2 0x701 JUMPI PUSH1 0x40 MLOAD PUSH3 0x461BCD PUSH1 0xE5 SHL DUP2 MSTORE PUSH1 0x20 PUSH1 0x4 DUP3 ADD MSTORE PUSH1 0xF PUSH1 0x24 DUP3 ADD MSTORE PUSH15 0x496E76616C69642061646472657373 PUSH1 0x88 SHL PUSH1 0x44 DUP3 ADD MSTORE PUSH1 0x64 ADD PUSH2 0x3CD JUMP JUMPDEST PUSH1 0x3 SLOAD PUSH1 0x40 MLOAD PUSH1 0x1 PUSH1 0x1 PUSH1 0xA0 SHL SUB DUP1 DUP5 AND SWAP3 AND SWAP1 PUSH32 0xF8CCB027DFCD135E000E9D45E6CC2D662578A8825D4C45B5E32E0ADF67E79EC6 SWAP1 PUSH1 0x0 SWAP1 LOG3 PUSH1 0x3 DUP1 SLOAD PUSH1 0x1 PUSH1 0x1 PUSH1 0xA0 SHL SUB SWAP1 SWAP3 AND PUSH1 0x1 PUSH1 0x1 PUSH1 0xA0 SHL SUB NOT SWAP1 SWAP3 AND DUP3 OR SWAP1 SSTORE PUSH1 0x0 SWAP1 DUP2 MSTORE PUSH1 0x2 PUSH1 0x20 MSTORE PUSH1 0x40 SWAP1 KECCAK256 DUP1 SLOAD PUSH1 0xFF NOT AND PUSH1 0x1 OR SWAP1 SSTORE JUMP JUMPDEST PUSH1 0x3 SLOAD PUSH1 0x1 PUSH1 0x1 PUSH1 0xA0 SHL SUB AND CALLER EQ PUSH2 0x79F JUMPI PUSH1 0x40 MLOAD PUSH3 0x461BCD PUSH1 0xE5 SHL DUP2 MSTORE PUSH1 0x4 ADD PUSH2 0x3CD SWAP1 PUSH2 0xE7A JUMP JUMPDEST PUSH1 0x1 PUSH1 0x1 PUSH1 0xA0 SHL SUB DUP2 AND PUSH1 0x0 DUP2 DUP2 MSTORE PUSH1 0x2 PUSH1 0x20 MSTORE PUSH1 0x40 DUP1 DUP3 KECCAK256 DUP1 SLOAD PUSH1 0xFF NOT AND PUSH1 0x1 OR SWAP1 SSTORE MLOAD PUSH32 0x8638F01ED0471FE5CD807BB572BF42F715A4A2064A2C643B9D78BAD2B95EC86F SWAP2 SWAP1 LOG2 POP JUMP JUMPDEST CALLER PUSH1 0x0 SWAP1 DUP2 MSTORE PUSH1 0x2 PUSH1 0x20 MSTORE PUSH1 0x40 SWAP1 KECCAK256 SLOAD PUSH1 0xFF AND DUP1 PUSH2 0x813 JUMPI POP PUSH1 0x3 SLOAD PUSH1 0x1 PUSH1 0x1 PUSH1 0xA0 SHL SUB AND CALLER EQ JUMPDEST PUSH2 0x850 JUMPI PUSH1 0x40 MLOAD PUSH3 0x461BCD PUSH1 0xE5 SHL DUP2 MSTORE PUSH1 0x20 PUSH1 0x4 DUP3 ADD MSTORE PUSH1 0xE PUSH1 0x24 DUP3 ADD MSTORE PUSH14 0x139BDD08185D5D1A1BDC9A5E9959 PUSH1 0x92 SHL PUSH1 0x44 DUP3 ADD MSTORE PUSH1 0x64 ADD PUSH2 0x3CD JUMP JUMPDEST DUP5 DUP4 EQ DUP1 ISZERO PUSH2 0x85E JUMPI POP DUP3 DUP2 EQ JUMPDEST PUSH2 0x89C JUMPI PUSH1 0x40 MLOAD PUSH3 0x461BCD PUSH1 0xE5 SHL DUP2 MSTORE PUSH1 0x20 PUSH1 0x4 DUP3 ADD MSTORE PUSH1 0xF PUSH1 0x24 DUP3 ADD MSTORE PUSH15 0x98CADCCEE8D040DAD2E6DAC2E8C6D PUSH1 0x8B SHL PUSH1 0x44 DUP3 ADD MSTORE PUSH1 0x64 ADD PUSH2 0x3CD JUMP JUMPDEST PUSH1 0x0 JUMPDEST DUP6 DUP2 LT ISZERO PUSH2 0xBAB JUMPI PUSH1 0x0 DUP1 DUP9 DUP9 DUP5 DUP2 DUP2 LT PUSH2 0x8BC JUMPI PUSH2 0x8BC PUSH2 0xE64 JUMP JUMPDEST SWAP1 POP PUSH1 0x20 MUL ADD CALLDATALOAD DUP2 MSTORE PUSH1 0x20 ADD SWAP1 DUP2 MSTORE PUSH1 0x20 ADD PUSH1 0x0 KECCAK256 PUSH1 0x3 ADD SLOAD PUSH1 0x0 EQ DUP1 ISZERO PUSH2 0x90E JUMPI POP PUSH1 0x3 DUP6 DUP6 DUP4 DUP2 DUP2 LT PUSH2 0x8F3 JUMPI PUSH2 0x8F3 PUSH2 0xE64 JUMP JUMPDEST SWAP1 POP PUSH1 0x20 MUL ADD PUSH1 0x20 DUP2 ADD SWAP1 PUSH2 0x908 SWAP2 SWAP1 PUSH2 0xE9E JUMP JUMPDEST PUSH1 0xFF AND GT ISZERO JUMPDEST ISZERO PUSH2 0xB99 JUMPI PUSH1 0x40 MLOAD DUP1 PUSH1 0xA0 ADD PUSH1 0x40 MSTORE DUP1 DUP9 DUP9 DUP5 DUP2 DUP2 LT PUSH2 0x930 JUMPI PUSH2 0x930 PUSH2 0xE64 JUMP JUMPDEST SWAP1 POP PUSH1 0x20 MUL ADD CALLDATALOAD DUP2 MSTORE PUSH1 0x20 ADD DUP7 DUP7 DUP5 DUP2 DUP2 LT PUSH2 0x94E JUMPI PUSH2 0x94E PUSH2 0xE64 JUMP JUMPDEST SWAP1 POP PUSH1 0x20 MUL ADD PUSH1 0x20 DUP2 ADD SWAP1 PUSH2 0x963 SWAP2 SWAP1 PUSH2 0xE9E JUMP JUMPDEST PUSH1 0xFF AND DUP2 MSTORE PUSH1 0x20 ADD DUP5 DUP5 DUP5 DUP2 DUP2 LT PUSH2 0x97D JUMPI PUSH2 0x97D PUSH2 0xE64 JUMP JUMPDEST SWAP1 POP PUSH1 0x20 MUL ADD CALLDATALOAD DUP2 MSTORE PUSH1 0x20 ADD TIMESTAMP DUP2 MSTORE PUSH1 0x20 ADD CALLER PUSH1 0x1 PUSH1 0x1 PUSH1 0xA0 SHL SUB AND DUP2 MSTORE POP PUSH1 0x0 DUP1 DUP10 DUP10 DUP6 DUP2 DUP2 LT PUSH2 0x9B1 JUMPI PUSH2 0x9B1 PUSH2 0xE64 JUMP JUMPDEST PUSH1 0x20 SWAP1 DUP2 MUL SWAP3 SWAP1 SWAP3 ADD CALLDATALOAD DUP4 MSTORE POP DUP2 DUP2 ADD SWAP3 SWAP1 SWAP3 MSTORE PUSH1 0x40 SWAP1 DUP2 ADD PUSH1 0x0 KECCAK256 DUP4 MLOAD DUP2 SSTORE SWAP2 DUP4 ADD MLOAD PUSH1 0x1 DUP1 DUP5 ADD DUP1 SLOAD PUSH1 0xFF NOT AND PUSH1 0xFF SWAP1 SWAP4 AND SWAP3 SWAP1 SWAP3 OR SWAP1 SWAP2 SSTORE SWAP1 DUP4 ADD MLOAD PUSH1 0x2 DUP4 ADD SSTORE PUSH1 0x60 DUP4 ADD MLOAD PUSH1 0x3 DUP4 ADD SSTORE PUSH1 0x80 SWAP1 SWAP3 ADD MLOAD PUSH1 0x4 SWAP1 SWAP2 ADD DUP1 SLOAD PUSH1 0x1 PUSH1 0x1 PUSH1 0xA0 SHL SUB NOT AND PUSH1 0x1 PUSH1 0x1 PUSH1 0xA0 SHL SUB SWAP1 SWAP3 AND SWAP2 SWAP1 SWAP2 OR SWAP1 SSTORE DUP8 DUP8 DUP4 DUP2 DUP2 LT PUSH2 0xA39 JUMPI PUSH2 0xA39 PUSH2 0xE64 JUMP JUMPDEST DUP4 SLOAD PUSH1 0x1 DUP2 ADD DUP6 SSTORE PUSH1 0x0 SWAP5 DUP6 MSTORE PUSH1 0x20 DUP1 DUP7 KECCAK256 SWAP3 MUL SWAP4 SWAP1 SWAP4 ADD CALLDATALOAD SWAP3 ADD SWAP2 SWAP1 SWAP2 SSTORE POP PUSH1 0x4 DUP1 SLOAD SWAP2 PUSH2 0xA67 DUP4 PUSH2 0xE1C JUMP JUMPDEST SWAP2 SWAP1 POP SSTORE POP DUP5 DUP5 DUP3 DUP2 DUP2 LT PUSH2 0xA7E JUMPI PUSH2 0xA7E PUSH2 0xE64 JUMP JUMPDEST SWAP1 POP PUSH1 0x20 MUL ADD PUSH1 0x20 DUP2 ADD SWAP1 PUSH2 0xA93 SWAP2 SWAP1 PUSH2 0xE9E JUMP JUMPDEST PUSH1 0xFF AND PUSH1 0x2 SUB PUSH2 0xAB3 JUMPI PUSH1 0x5 DUP1 SLOAD SWAP1 PUSH1 0x0 PUSH2 0xAAD DUP4 PUSH2 0xE1C JUMP JUMPDEST SWAP2 SWAP1 POP SSTORE POP JUMPDEST DUP5 DUP5 DUP3 DUP2 DUP2 LT PUSH2 0xAC5 JUMPI PUSH2 0xAC5 PUSH2 0xE64 JUMP JUMPDEST SWAP1 POP PUSH1 0x20 MUL ADD PUSH1 0x20 DUP2 ADD SWAP1 PUSH2 0xADA SWAP2 SWAP1 PUSH2 0xE9E JUMP JUMPDEST PUSH1 0xFF AND PUSH1 0x1 SUB PUSH2 0xAFA JUMPI PUSH1 0x6 DUP1 SLOAD SWAP1 PUSH1 0x0 PUSH2 0xAF4 DUP4 PUSH2 0xE1C JUMP JUMPDEST SWAP2 SWAP1 POP SSTORE POP JUMPDEST CALLER DUP8 DUP8 DUP4 DUP2 DUP2 LT PUSH2 0xB0D JUMPI PUSH2 0xB0D PUSH2 0xE64 JUMP JUMPDEST SWAP1 POP PUSH1 0x20 MUL ADD CALLDATALOAD PUSH32 0x78DD360096405EF6259046ABDE7E2FF8EA659036A7EA69BCA6CD2947E6A13231 DUP8 DUP8 DUP6 DUP2 DUP2 LT PUSH2 0xB47 JUMPI PUSH2 0xB47 PUSH2 0xE64 JUMP JUMPDEST SWAP1 POP PUSH1 0x20 MUL ADD PUSH1 0x20 DUP2 ADD SWAP1 PUSH2 0xB5C SWAP2 SWAP1 PUSH2 0xE9E JUMP JUMPDEST DUP7 DUP7 DUP7 DUP2 DUP2 LT PUSH2 0xB6E JUMPI PUSH2 0xB6E PUSH2 0xE64 JUMP JUMPDEST PUSH1 0x40 DUP1 MLOAD PUSH1 0xFF SWAP1 SWAP6 AND DUP6 MSTORE PUSH1 0x20 SWAP2 DUP3 MUL SWAP4 SWAP1 SWAP4 ADD CALLDATALOAD SWAP1 DUP5 ADD MSTORE POP TIMESTAMP SWAP1 DUP3 ADD MSTORE PUSH1 0x60 ADD PUSH1 0x40 MLOAD DUP1 SWAP2 SUB SWAP1 LOG3 JUMPDEST DUP1 PUSH2 0xBA3 DUP2 PUSH2 0xE1C JUMP JUMPDEST SWAP2 POP POP PUSH2 0x89F JUMP JUMPDEST POP POP POP POP POP POP POP JUMP JUMPDEST PUSH1 0x3 SLOAD PUSH1 0x1 PUSH1 0x1 PUSH1 0xA0 SHL SUB AND CALLER EQ PUSH2 0xBDE JUMPI PUSH1 0x40 MLOAD PUSH3 0x461BCD PUSH1 0xE5 SHL DUP2 MSTORE PUSH1 0x4 ADD PUSH2 0x3CD SWAP1 PUSH2 0xE7A JUMP JUMPDEST PUSH1 0x1 PUSH1 0x1 PUSH1 0xA0 SHL SUB DUP2 AND PUSH1 0x0 DUP2 DUP2 MSTORE PUSH1 0x2 PUSH1 0x20 MSTORE PUSH1 0x40 DUP1 DUP3 KECCAK256 DUP1 SLOAD PUSH1 0xFF NOT AND SWAP1 SSTORE MLOAD PUSH32 0x1ED1124975B36F977F88E26D9688D6772DB1EFC746521B431543FA5BC7E7D4A0 SWAP2 SWAP1 LOG2 POP JUMP JUMPDEST PUSH1 0x1 DUP2 DUP2 SLOAD DUP2 LT PUSH2 0xC37 JUMPI PUSH1 0x0 DUP1 REVERT JUMPDEST PUSH1 0x0 SWAP2 DUP3 MSTORE PUSH1 0x20 SWAP1 SWAP2 KECCAK256 ADD SLOAD SWAP1 POP DUP2 JUMP JUMPDEST DUP1 CALLDATALOAD PUSH1 0xFF DUP2 AND DUP2 EQ PUSH2 0xC59 JUMPI PUSH1 0x0 DUP1 REVERT JUMPDEST SWAP2 SWAP1 POP JUMP JUMPDEST PUSH1 0x0 DUP1 PUSH1 0x0 PUSH1 0x60 DUP5 DUP7 SUB SLT ISZERO PUSH2 0xC73 JUMPI PUSH1 0x0 DUP1 REVERT JUMPDEST DUP4 CALLDATALOAD SWAP3 POP PUSH2 0xC83 PUSH1 0x20 DUP6 ADD PUSH2 0xC48 JUMP JUMPDEST SWAP2 POP PUSH1 0x40 DUP5 ADD CALLDATALOAD SWAP1 POP SWAP3 POP SWAP3 POP SWAP3 JUMP JUMPDEST PUSH1 0x0 PUSH1 0x20 DUP3 DUP5 SUB SLT ISZERO PUSH2 0xCA5 JUMPI PUSH1 0x0 DUP1 REVERT JUMPDEST POP CALLDATALOAD SWAP2 SWAP1 POP JUMP JUMPDEST PUSH1 0x20 DUP1 DUP3 MSTORE DUP3 MLOAD DUP3 DUP3 ADD DUP2 SWAP1 MSTORE PUSH1 0x0 SWAP2 SWAP1 DUP5 DUP3 ADD SWAP1 PUSH1 0x40 DUP6 ADD SWAP1 DUP5 JUMPDEST DUP2 DUP2 LT ISZERO PUSH2 0xCE4 JUMPI DUP4 MLOAD DUP4 MSTORE SWAP3 DUP5 ADD SWAP3 SWAP2 DUP5 ADD SWAP2 PUSH1 0x1 ADD PUSH2 0xCC8 JUMP JUMPDEST POP SWAP1 SWAP7 SWAP6 POP POP POP POP POP POP JUMP JUMPDEST PUSH1 0x0 PUSH1 0x20 DUP3 DUP5 SUB SLT ISZERO PUSH2 0xD02 JUMPI PUSH1 0x0 DUP1 REVERT JUMPDEST DUP2 CALLDATALOAD PUSH1 0x1 PUSH1 0x1 PUSH1 0xA0 SHL SUB DUP2 AND DUP2 EQ PUSH2 0xD19 JUMPI PUSH1 0x0 DUP1 REVERT JUMPDEST SWAP4 SWAP3 POP POP POP JUMP JUMPDEST PUSH1 0x0 DUP1 DUP4 PUSH1 0x1F DUP5 ADD SLT PUSH2 0xD32 JUMPI PUSH1 0x0 DUP1 REVERT JUMPDEST POP DUP2 CALLDATALOAD PUSH8 0xFFFFFFFFFFFFFFFF DUP2 GT ISZERO PUSH2 0xD4A JUMPI PUSH1 0x0 DUP1 REVERT JUMPDEST PUSH1 0x20 DUP4 ADD SWAP2 POP DUP4 PUSH1 0x20 DUP3 PUSH1 0x5 SHL DUP6 ADD ADD GT ISZERO PUSH2 0xD65 JUMPI PUSH1 0x0 DUP1 REVERT JUMPDEST SWAP3 POP SWAP3 SWAP1 POP JUMP JUMPDEST PUSH1 0x0 DUP1 PUSH1 0x0 DUP1 PUSH1 0x0 DUP1 PUSH1 0x60 DUP8 DUP10 SUB SLT ISZERO PUSH2 0xD85 JUMPI PUSH1 0x0 DUP1 REVERT JUMPDEST DUP7 CALLDATALOAD PUSH8 0xFFFFFFFFFFFFFFFF DUP1 DUP3 GT ISZERO PUSH2 0xD9D JUMPI PUSH1 0x0 DUP1 REVERT JUMPDEST PUSH2 0xDA9 DUP11 DUP4 DUP12 ADD PUSH2 0xD20 JUMP JUMPDEST SWAP1 SWAP9 POP SWAP7 POP PUSH1 0x20 DUP10 ADD CALLDATALOAD SWAP2 POP DUP1 DUP3 GT ISZERO PUSH2 0xDC2 JUMPI PUSH1 0x0 DUP1 REVERT JUMPDEST PUSH2 0xDCE DUP11 DUP4 DUP12 ADD PUSH2 0xD20 JUMP JUMPDEST SWAP1 SWAP7 POP SWAP5 POP PUSH1 0x40 DUP10 ADD CALLDATALOAD SWAP2 POP DUP1 DUP3 GT ISZERO PUSH2 0xDE7 JUMPI PUSH1 0x0 DUP1 REVERT JUMPDEST POP PUSH2 0xDF4 DUP10 DUP3 DUP11 ADD PUSH2 0xD20 JUMP JUMPDEST SWAP8 SWAP11 SWAP7 SWAP10 POP SWAP5 SWAP8 POP SWAP3 SWAP6 SWAP4 SWAP5 SWAP3 POP POP POP JUMP JUMPDEST PUSH4 0x4E487B71 PUSH1 0xE0 SHL PUSH1 0x0 MSTORE PUSH1 0x11 PUSH1 0x4 MSTORE PUSH1 0x24 PUSH1 0x0 REVERT JUMPDEST PUSH1 0x0 PUSH1 0x1 DUP3 ADD PUSH2 0xE2E JUMPI PUSH2 0xE2E PUSH2 0xE06 JUMP JUMPDEST POP PUSH1 0x1 ADD SWAP1 JUMP JUMPDEST PUSH4 0x4E487B71 PUSH1 0xE0 SHL PUSH1 0x0 MSTORE PUSH1 0x41 PUSH1 0x4 MSTORE PUSH1 0x24 PUSH1 0x0 REVERT JUMPDEST DUP2 DUP2 SUB DUP2 DUP2 GT ISZERO PUSH2 0xE5E JUMPI PUSH2 0xE5E PUSH2 0xE06 JUMP JUMPDEST SWAP3 SWAP2 POP POP JUMP JUMPDEST PUSH4 0x4E487B71 PUSH1 0xE0 SHL PUSH1 0x0 MSTORE PUSH1 0x32 PUSH1 0x4 MSTORE PUSH1 0x24 PUSH1 0x0 REVERT JUMPDEST PUSH1 0x20 DUP1 DUP3 MSTORE PUSH1 0xA SWAP1 DUP3 ADD MSTORE PUSH10 0x27B7363C9030B236B4B7 PUSH1 0xB1 SHL PUSH1 0x40 DUP3 ADD MSTORE PUSH1 0x60 ADD SWAP1 JUMP JUMPDEST PUSH1 0x0 PUSH1 0x20 DUP3 DUP5 SUB SLT ISZERO PUSH2 0xEB0 JUMPI PUSH1 0x0 DUP1 REVERT JUMPDEST PUSH2 0xD19 DUP3 PUSH2 0xC48 JUMP INVALID LOG2 PUSH5 0x6970667358 0x22 SLT KECCAK256 0xF7 PUSH11 0x9908946177ED368331FE33 0xCC 0xB2 0xFC 0xC6 0xAA DUP7 0xA6 PUSH26 0xB53531FC990D628CC65D0364736F6C6343000814003300000000 "},"methodIdentifiers":{"admin()":"f851a440","authorizeNode(address)":"acc72bc6","authorizedNodes(address)":"7e53a740","getIncident(bytes32)":"b8f03828","getIncidentCount()":"95962692","getRecentIncidents(uint256)":"31b7733f","getStats()":"c59d4847","incidentIds(uint256)":"cdccab5b","incidents(bytes32)":"9739d167","logIncident(bytes32,uint8,bytes32)":"05684078","logIncidentBatch(bytes32[],uint8[],bytes32[])":"b2c4f13a","revokeNode(address)":"b76a8bd2","totalDelayed()":"ef6086da","totalDropped()":"d144454b","totalIncidents()":"7910b05a","transferAdmin(address)":"75829def"}}}}}