{"contracts/Governance.sol":{"Governance":{"abi":[{"inputs":[{"internalType":"address","name":"admin","type":"address"},{"internalType":"uint256","name":"_requiredApprovals","type":"uint256"},{"internalType":"uint256","name":"_proposalDuration","type":"uint256"}],"stateMutability":"nonpayable","type":"constructor"},{"inputs":[],"name":"AccessControlBadConfirmation","type":"error"},{"inputs":[{"internalType":"address","name":"account","type":"address"},{"internalType":"bytes32","name":"neededRole","type":"bytes32"}],"name":"AccessControlUnauthorizedAccount","type":"error"},{"anonymous":false,"inputs":[{"indexed":true,"internalType":"bytes32","name":"actionHash","type":"bytes32"},{"indexed":false,"internalType":"address","name":"executor","type":"address"},{"indexed":false,"internalType":"uint256","name":"timestamp","type":"uint256"}],"name":"EmergencyActionTaken","type":"event"},{"anonymous":false,"inputs":[{"indexed":true,"internalType":"uint256","name":"proposalId","type":"uint256"},{"indexed":false,"internalType":"uint256","name":"timestamp","type":"uint256"}],"name":"ProposalCancelled","type":"event"},{"anonymous":false,"inputs":[{"indexed":true,"internalType":"uint256","name":"proposalId","type":"uint256"},{"indexed":false,"internalType":"enum Governance.ProposalType","name":"proposalType","type":"uint8"},{"indexed":false,"internalType":"bytes32","name":"contentHash","type":"bytes32"},{"indexed":true,"internalType":"address","name":"proposer","type":"address"},{"indexed":false,"internalType":"uint256","name":"expiresAt","type":"uint256"}],"name":"ProposalCreated","type":"event"},{"anonymous":false,"inputs":[{"indexed":true,"internalType":"uint256","name":"proposalId","type":"uint256"},{"indexed":false,"internalType":"uint256","name":"timestamp","type":"uint256"}],"name":"ProposalExecuted","type":"event"},{"anonymous":false,"inputs":[{"indexed":true,"internalType":"uint256","name":"proposalId","type":"uint256"},{"indexed":true,"internalType":"address","name":"voter","type":"address"},{"indexed":false,"internalType":"bool","name":"approved","type":"bool"}],"name":"ProposalVoted","type":"event"},{"anonymous":false,"inputs":[{"indexed":true,"internalType":"bytes32","name":"role","type":"bytes32"},{"indexed":true,"internalType":"bytes32","name":"previousAdminRole","type":"bytes32"},{"indexed":true,"internalType":"bytes32","name":"newAdminRole","type":"bytes32"}],"name":"RoleAdminChanged","type":"event"},{"anonymous":false,"inputs":[{"indexed":true,"internalType":"bytes32","name":"role","type":"bytes32"},{"indexed":true,"internalType":"address","name":"account","type":"address"},{"indexed":true,"internalType":"address","name":"sender","type":"address"}],"name":"RoleGranted","type":"event"},{"anonymous":false,"inputs":[{"indexed":true,"internalType":"bytes32","name":"role","type":"bytes32"},{"indexed":true,"internalType":"address","name":"account","type":"address"},{"indexed":true,"internalType":"address","name":"sender","type":"address"}],"name":"RoleRevoked","type":"event"},{"anonymous":false,"inputs":[{"indexed":true,"internalType":"bytes32","name":"ruleHash","type":"bytes32"},{"indexed":false,"internalType":"uint256","name":"proposalId","type":"uint256"},{"indexed":false,"internalType":"uint256","name":"timestamp","type":"uint256"}],"name":"RuleApproved","type":"event"},{"inputs":[],"name":"DEFAULT_ADMIN_ROLE","outputs":[{"internalType":"bytes32","name":"","type":"bytes32"}],"stateMutability":"view","type":"function"},{"inputs":[],"name":"EXECUTOR_ROLE","outputs":[{"internalType":"bytes32","name":"","type":"bytes32"}],"stateMutability":"view","type":"function"},{"inputs":[],"name":"PROPOSER_ROLE","outputs":[{"internalType":"bytes32","name":"","type":"bytes32"}],"stateMutability":"view","type":"function"},{"inputs":[],"name":"VOTER_ROLE","outputs":[{"internalType":"bytes32","name":"","type":"bytes32"}],"stateMutability":"view","type":"function"},{"inputs":[{"internalType":"bytes32","name":"","type":"bytes32"}],"name":"approvedRules","outputs":[{"internalType":"bool","name":"","type":"bool"}],"stateMutability":"view","type":"function"},{"inputs":[{"internalType":"uint256","name":"proposalId","type":"uint256"}],"name":"cancelProposal","outputs":[],"stateMutability":"nonpayable","type":"function"},{"inputs":[{"internalType":"enum Governance.ProposalType","name":"proposalType","type":"uint8"},{"internalType":"bytes32","name":"contentHash","type":"bytes32"},{"internalType":"string","name":"description","type":"string"}],"name":"createProposal","outputs":[{"internalType":"uint256","name":"","type":"uint256"}],"stateMutability":"nonpayable","type":"function"},{"inputs":[{"internalType":"bytes32","name":"actionHash","type":"bytes32"}],"name":"emergencyAction","outputs":[],"stateMutability":"nonpayable","type":"function"},{"inputs":[{"internalType":"uint256","name":"proposalId","type":"uint256"}],"name":"executeProposal","outputs":[],"stateMutability":"nonpayable","type":"function"},{"inputs":[{"internalType":"uint256","name":"proposalId","type":"uint256"}],"name":"getProposal","outputs":[{"internalType":"enum Governance.ProposalType","name":"proposalType","type":"uint8"},{"internalType":"enum Governance.ProposalStatus","name":"status","type":"uint8"},{"internalType":"bytes32","name":"contentHash","type":"bytes32"},{"internalType":"address","name":"proposer","type":"address"},{"internalType":"uint256","name":"approvals","type":"uint256"},{"internalType":"uint256","name":"rejections","type":"uint256"},{"internalType":"uint256","name":"expiresAt","type":"uint256"}],"stateMutability":"view","type":"function"},{"inputs":[{"internalType":"bytes32","name":"role","type":"bytes32"}],"name":"getRoleAdmin","outputs":[{"internalType":"bytes32","name":"","type":"bytes32"}],"stateMutability":"view","type":"function"},{"inputs":[{"internalType":"bytes32","name":"role","type":"bytes32"},{"internalType":"address","name":"account","type":"address"}],"name":"grantRole","outputs":[],"stateMutability":"nonpayable","type":"function"},{"inputs":[{"internalType":"bytes32","name":"role","type":"bytes32"},{"internalType":"address","name":"account","type":"address"}],"name":"hasRole","outputs":[{"internalType":"bool","name":"","type":"bool"}],"stateMutability":"view","type":"function"},{"inputs":[{"internalType":"uint256","name":"","type":"uint256"},{"internalType":"address","name":"","type":"address"}],"name":"hasVoted","outputs":[{"internalType":"bool","name":"","type":"bool"}],"stateMutability":"view","type":"function"},{"inputs":[{"internalType":"bytes32","name":"ruleHash","type":"bytes32"}],"name":"isRuleApproved","outputs":[{"internalType":"bool","name":"","type":"bool"}],"stateMutability":"view","type":"function"},{"inputs":[],"name":"proposalCount","outputs":[{"internalType":"uint256","name":"","type":"uint256"}],"stateMutability":"view","type":"function"},{"inputs":[],"name":"proposalDuration","outputs":[{"internalType":"uint256","name":"","type":"uint256"}],"stateMutability":"view","type":"function"},{"inputs":[{"internalType":"uint256","name":"","type":"uint256"}],"name":"proposals","outputs":[{"internalType":"enum Governance.ProposalType","name":"proposalType","type":"uint8"},{"internalType":"enum Governance.ProposalStatus","name":"status","type":"uint8"},{"internalType":"bytes32","name":"contentHash","type":"bytes32"},{"internalType":"address","name":"proposer","type":"address"},{"internalType":"uint256","name":"createdAt","type":"uint256"},{"internalType":"uint256","name":"expiresAt","type":"uint256"},{"internalType":"uint256","name":"approvals","type":"uint256"},{"internalType":"uint256","name":"rejections","type":"uint256"},{"internalType":"string","name":"description","type":"string"}],"stateMutability":"view","type":"function"},{"inputs":[{"internalType":"bytes32","name":"role","type":"bytes32"},{"internalType":"address","name":"callerConfirmation","type":"address"}],"name":"renounceRole","outputs":[],"stateMutability":"nonpayable","type":"function"},{"inputs":[],"name":"requiredApprovals","outputs":[{"internalType":"uint256","name":"","type":"uint256"}],"stateMutability":"view","type":"function"},{"inputs":[{"internalType":"bytes32","name":"role","type":"bytes32"},{"internalType":"address","name":"account","type":"address"}],"name":"revokeRole","outputs":[],"stateMutability":"nonpayable","type":"function"},{"inputs":[{"internalType":"bytes4","name":"interfaceId","type":"bytes4"}],"name":"supportsInterface","outputs":[{"internalType":"bool","name":"","type":"bool"}],"stateMutability":"view","type":"function"},{"inputs":[{"internalType":"uint256","name":"_requiredApprovals","type":"uint256"},{"internalType":"uint256","name":"_proposalDuration","type":"uint256"}],"name":"updateParameters","outputs":[],"stateMutability":"nonpayable","type":"function"},{"inputs":[{"internalType":"uint256","name":"proposalId","type":"uint256"},{"internalType":"bool","name":"approve","type":"bool"}],"name":"vote","outputs":[],"stateMutability":"nonpayable","type":"function"}],"evm":{"bytecode":{"linkReferences":{},"object":"60806040523480156200001157600080fd5b506040516200165b3803806200165b8339810160408190526200003491620001ad565b62000041600084620000fe565b506200006e7fb09aa5aeb3702cfd50b6b62bc4532604938f21248a27a1d5ca736082b6819cc184620000fe565b506200009b7f72c3eec1760bf69946625c2d4fb8e44e2c806345041960b434674fb9ab3976cf84620000fe565b50620000c87fd8aa0f3194971a2a116679f7c2090f6939c8d4e01a2a8d7e41d55e5351469e6384620000fe565b5060008211620000da576001620000dc565b815b60055580620000ef5762093a80620000f1565b805b60065550620001f2915050565b6000828152602081815260408083206001600160a01b038516845290915281205460ff16620001a3576000838152602081815260408083206001600160a01b03861684529091529020805460ff191660011790556200015a3390565b6001600160a01b0316826001600160a01b0316847f2f8788117e7eff1d82e926ec794901d17c78024a50270940304540a733656f0d60405160405180910390a4506001620001a7565b5060005b92915050565b600080600060608486031215620001c357600080fd5b83516001600160a01b0381168114620001db57600080fd5b602085015160409095015190969495509392505050565b61145980620002026000396000f3fe608060405234801561001057600080fd5b50600436106101585760003560e01c80638fa482bf116100c3578063c7f758a81161007c578063c7f758a814610349578063c9d27afe1461036f578063d547741f14610382578063da35c66414610395578063e0a8f6f51461039e578063fca883cb146103b157600080fd5b80638fa482bf146102c857806391d14854146102eb57806399c1aadc146102fe578063a217fddf14610307578063a45b0ab41461030f578063a94015c81461032257600080fd5b8063248a9ca311610115578063248a9ca3146102215780632f2ff15d14610244578063301099621461025757806336568abe1461026057806343859632146102735780638f61f4f5146102a157600080fd5b8063013cf08b1461015d57806301ffc9a71461018e57806307bd0265146101b157806309c7e623146101e65780630d61b519146101fb578063161282111461020e575b600080fd5b61017061016b366004610fbb565b6103d4565b60405161018599989796959493929190611008565b60405180910390f35b6101a161019c3660046110b3565b6104b1565b6040519015158152602001610185565b6101d87fd8aa0f3194971a2a116679f7c2090f6939c8d4e01a2a8d7e41d55e5351469e6381565b604051908152602001610185565b6101f96101f4366004610fbb565b6104e8565b005b6101f9610209366004610fbb565b610532565b6101f961021c3660046110e4565b61069a565b6101d861022f366004610fbb565b60009081526020819052604090206001015490565b6101f9610252366004611122565b6106b1565b6101d860065481565b6101f961026e366004611122565b6106dc565b6101a1610281366004611122565b600260209081526000928352604080842090915290825290205460ff1681565b6101d87fb09aa5aeb3702cfd50b6b62bc4532604938f21248a27a1d5ca736082b6819cc181565b6101a16102d6366004610fbb565b60036020526000908152604090205460ff1681565b6101a16102f9366004611122565b610714565b6101d860055481565b6101d8600081565b6101d861031d36600461114e565b61073d565b6101d87f72c3eec1760bf69946625c2d4fb8e44e2c806345041960b434674fb9ab3976cf81565b61035c610357366004610fbb565b610949565b60405161018597969594939291906111db565b6101f961037d36600461122d565b610aec565b6101f9610390366004611122565b610d0f565b6101d860045481565b6101f96103ac366004610fbb565b610d34565b6101a16103bf366004610fbb565b60009081526003602052604090205460ff1690565b60016020819052600091825260409091208054918101546002820154600383015460048401546005850154600686015460078701805460ff808b169a610100900416986001600160a01b0390971696919061042e90611262565b80601f016020809104026020016040519081016040528092919081815260200182805461045a90611262565b80156104a75780601f1061047c576101008083540402835291602001916104a7565b820191906000526020600020905b81548152906001019060200180831161048a57829003601f168201915b5050505050905089565b60006001600160e01b03198216637965db0b60e01b14806104e257506301ffc9a760e01b6001600160e01b03198316145b92915050565b60006104f381610e74565b6040805133815242602082015283917fbe91f61379c1807a8d577094a87febfc469eeecc59314dfcf537bab0f1736eb691015b60405180910390a25050565b7fd8aa0f3194971a2a116679f7c2090f6939c8d4e01a2a8d7e41d55e5351469e6361055c81610e74565b6000828152600160208190526040909120908154610100900460ff16600481111561058957610589610fd4565b146105ca5760405162461bcd60e51b815260206004820152600c60248201526b139bdd08185c1c1c9bdd995960a21b60448201526064015b60405180910390fd5b805461030061ff0019821617825560009060ff1660048111156105ef576105ef610fd4565b0361065b576001818101805460009081526003602052604090819020805460ff19169093179092555490517fcb9e029f3a366069adb098585630d8d31769a11e1b3eb50f8defcea4bc49ce7a906106529086904290918252602082015260400190565b60405180910390a25b827ff758fc91e01b00ea6b4a6138756f7f28e021f9bf21db6dbf8c36c88eb737257a4260405161068d91815260200190565b60405180910390a2505050565b60006106a581610e74565b50600591909155600655565b6000828152602081905260409020600101546106cc81610e74565b6106d68383610e81565b50505050565b6001600160a01b03811633146107055760405163334bd91960e11b815260040160405180910390fd5b61070f8282610f13565b505050565b6000918252602082815260408084206001600160a01b0393909316845291905290205460ff1690565b60007fb09aa5aeb3702cfd50b6b62bc4532604938f21248a27a1d5ca736082b6819cc161076981610e74565b600480546000918261077a836112b2565b91905055905060405180610120016040528088600481111561079e5761079e610fd4565b815260200160008152602001878152602001336001600160a01b03168152602001428152602001600654426107d391906112cb565b8152602001600081526020016000815260200186868080601f01602080910402602001604051908101604052809392919081815260200183838082843760009201829052509390945250508381526001602081905260409091208351815491935091839160ff19169083600481111561084e5761084e610fd4565b021790555060208201518154829061ff00191661010083600481111561087657610876610fd4565b02179055506040820151600182015560608201516002820180546001600160a01b0319166001600160a01b039092169190911790556080820151600382015560a0820151600482015560c0820151600582015560e0820151600682015561010082015160078201906108e89082611342565b50905050336001600160a01b0316817fac4968d741b5b22faa117f2cd6e4b138b0af9117ebe9575d69f6a79723628bc189896006544261092891906112cb565b60405161093793929190611402565b60405180910390a39695505050505050565b60008181526001602052604080822081516101208101909252805483928392839283928392839283929190829060ff16600481111561098a5761098a610fd4565b600481111561099b5761099b610fd4565b81528154602090910190610100900460ff1660048111156109be576109be610fd4565b60048111156109cf576109cf610fd4565b81526001820154602082015260028201546001600160a01b031660408201526003820154606082015260048201546080820152600582015460a0820152600682015460c082015260078201805460e090920191610a2b90611262565b80601f0160208091040260200160405190810160405280929190818152602001828054610a5790611262565b8015610aa45780601f10610a7957610100808354040283529160200191610aa4565b820191906000526020600020905b815481529060010190602001808311610a8757829003601f168201915b505050505081525050905080600001518160200151826040015183606001518460c001518560e001518660a00151975097509750975097509750975050919395979092949650565b7f72c3eec1760bf69946625c2d4fb8e44e2c806345041960b434674fb9ab3976cf610b1681610e74565b60008381526001602052604090206003810154610b6a5760405162461bcd60e51b8152602060048201526012602482015271141c9bdc1bdcd85b081b9bdd08199bdd5b9960721b60448201526064016105c1565b60008154610100900460ff166004811115610b8757610b87610fd4565b14610bc25760405162461bcd60e51b815260206004820152600b60248201526a4e6f742070656e64696e6760a81b60448201526064016105c1565b80600401544210610bff5760405162461bcd60e51b8152602060048201526007602482015266115e1c1a5c995960ca1b60448201526064016105c1565b600084815260026020908152604080832033845290915290205460ff1615610c595760405162461bcd60e51b815260206004820152600d60248201526c105b1c9958591e481d9bdd1959609a1b60448201526064016105c1565b60008481526002602090815260408083203384529091529020805460ff191660011790558215610c9f57600581018054906000610c95836112b2565b9190505550610cb7565b600681018054906000610cb1836112b2565b91905055505b6040518315158152339085907f0def80f9a3b4c7a4251442658ccf516bf33ea4acaf31638fc6da8ebdb0f64c729060200160405180910390a36005548160050154106106d657805461ff001916610100179055505050565b600082815260208190526040902060010154610d2a81610e74565b6106d68383610f13565b60008181526001602052604090206003810154610d7f5760405162461bcd60e51b8152602060048201526009602482015268139bdd08199bdd5b9960ba1b60448201526064016105c1565b60028101546001600160a01b0316331480610da05750610da0600033610714565b610ddd5760405162461bcd60e51b815260206004820152600e60248201526d139bdd08185d5d1a1bdc9a5e995960921b60448201526064016105c1565b60008154610100900460ff166004811115610dfa57610dfa610fd4565b14610e355760405162461bcd60e51b815260206004820152600b60248201526a4e6f742070656e64696e6760a81b60448201526064016105c1565b805461ff00191661040017815560405142815282907f5be67b1762c29673dceae3c1de04ecbf702ab0755c93f0fcc8aec5252df5a2b490602001610526565b610e7e8133610f7e565b50565b6000610e8d8383610714565b610f0b576000838152602081815260408083206001600160a01b03861684529091529020805460ff19166001179055610ec33390565b6001600160a01b0316826001600160a01b0316847f2f8788117e7eff1d82e926ec794901d17c78024a50270940304540a733656f0d60405160405180910390a45060016104e2565b5060006104e2565b6000610f1f8383610714565b15610f0b576000838152602081815260408083206001600160a01b0386168085529252808320805460ff1916905551339286917ff6391f5c32d9c69d2a47ea670b442974b53935d1edc7fd64eb21e047a839171b9190a45060016104e2565b610f888282610714565b610fb75760405163e2517d3f60e01b81526001600160a01b0382166004820152602481018390526044016105c1565b5050565b600060208284031215610fcd57600080fd5b5035919050565b634e487b7160e01b600052602160045260246000fd5b60058110610e7e57634e487b7160e01b600052602160045260246000fd5b60006101206110168c610fea565b8b835260206110248c610fea565b8b818501528a604085015260018060a01b038a1660608501528860808501528760a08501528660c08501528560e08501528161010085015284518083860152600092505b8083101561108757858301820151858401610140015291810191611068565b6101409250600083828701015282601f19601f83011686010193505050509a9950505050505050505050565b6000602082840312156110c557600080fd5b81356001600160e01b0319811681146110dd57600080fd5b9392505050565b600080604083850312156110f757600080fd5b50508035926020909101359150565b80356001600160a01b038116811461111d57600080fd5b919050565b6000806040838503121561113557600080fd5b8235915061114560208401611106565b90509250929050565b6000806000806060858703121561116457600080fd5b84356005811061117357600080fd5b935060208501359250604085013567ffffffffffffffff8082111561119757600080fd5b818701915087601f8301126111ab57600080fd5b8135818111156111ba57600080fd5b8860208285010111156111cc57600080fd5b95989497505060200194505050565b60e081016111e889610fea565b8882526111f488610fea565b602082019790975260408101959095526001600160a01b03939093166060850152608084019190915260a083015260c090910152919050565b6000806040838503121561124057600080fd5b823591506020830135801515811461125757600080fd5b809150509250929050565b600181811c9082168061127657607f821691505b60208210810361129657634e487b7160e01b600052602260045260246000fd5b50919050565b634e487b7160e01b600052601160045260246000fd5b6000600182016112c4576112c461129c565b5060010190565b808201808211156104e2576104e261129c565b634e487b7160e01b600052604160045260246000fd5b601f82111561070f57600081815260208120601f850160051c8101602086101561131b5750805b601f850160051c820191505b8181101561133a57828155600101611327565b505050505050565b815167ffffffffffffffff81111561135c5761135c6112de565b6113708161136a8454611262565b846112f4565b602080601f8311600181146113a5576000841561138d5750858301515b600019600386901b1c1916600185901b17855561133a565b600085815260208120601f198616915b828110156113d4578886015182559484019460019091019084016113b5565b50858210156113f25787850151600019600388901b60f8161c191681555b5050505050600190811b01905550565b6060810161140f85610fea565b93815260208101929092526040909101529056fea26469706673582212206a6caa4a9eeebb4a074c4e0452545519f3ac1b05278d76c03bf1c40aef98072064736f6c63430008140033","opcodes":"PUSH1 0x80 PUSH1 0x40 MSTORE CALLVALUE DUP1 ISZERO PUSH3 0x11 JUMPI PUSH1 0x0 DUP1 REVERT JUMPDEST POP PUSH1 0x40 MLOAD PUSH3 0x165B CODESIZE SUB DUP1 PUSH3 0x165B DUP4 CODECOPY DUP2 ADD PUSH1 0x40 DUP2 SWAP1 MSTORE PUSH3 0x34 SWAP2 PUSH3 0x1AD JUMP JUMPDEST PUSH3 0x41 PUSH1 0x0 DUP5 PUSH3 0xFE JUMP JUMPDEST POP PUSH3 0x6E PUSH32 0xB09AA5AEB3702CFD50B6B62BC4532604938F21248A27A1D5CA736082B6819CC1 DUP5 PUSH3 0xFE JUMP JUMPDEST POP PUSH3 0x9B PUSH32 0x72C3EEC1760BF69946625C2D4FB8E44E2C806345041960B434674FB9AB3976CF DUP5 PUSH3 0xFE JUMP JUMPDEST POP PUSH3 0xC8 PUSH32 0xD8AA0F3194971A2A116679F7C2090F6939C8D4E01A2A8D7E41D55E5351469E63 DUP5 PUSH3 0xFE JUMP JUMPDEST POP PUSH1 0x0 DUP3 GT PUSH3 0xDA JUMPI PUSH1 0x1 PUSH3 0xDC JUMP JUMPDEST DUP2 JUMPDEST PUSH1 0x5 SSTORE DUP1 PUSH3 0xEF JUMPI PUSH3 0x93A80 PUSH3 0xF1 JUMP JUMPDEST DUP1 JUMPDEST PUSH1 0x6 SSTORE POP PUSH3 0x1F2 SWAP2 POP POP JUMP JUMPDEST PUSH1 0x0 DUP3 DUP2 MSTORE PUSH1 0x20 DUP2 DUP2 MSTORE PUSH1 0x40 DUP1 DUP4 KECCAK256 PUSH1 0x1 PUSH1 0x1 PUSH1 0xA0 SHL SUB DUP6 AND DUP5 MSTORE SWAP1 SWAP2 MSTORE DUP2 KECCAK256 SLOAD PUSH1 0xFF AND PUSH3 0x1A3 JUMPI PUSH1 0x0 DUP4 DUP2 MSTORE PUSH1 0x20 DUP2 DUP2 MSTORE PUSH1 0x40 DUP1 DUP4 KECCAK256 PUSH1 0x1 PUSH1 0x1 PUSH1 0xA0 SHL SUB DUP7 AND DUP5 MSTORE SWAP1 SWAP2 MSTORE SWAP1 KECCAK256 DUP1 SLOAD PUSH1 0xFF NOT AND PUSH1 0x1 OR SWAP1 SSTORE PUSH3 0x15A CALLER SWAP1 JUMP JUMPDEST PUSH1 0x1 PUSH1 0x1 PUSH1 0xA0 SHL SUB AND DUP3 PUSH1 0x1 PUSH1 0x1 PUSH1 0xA0 SHL SUB AND DUP5 PUSH32 0x2F8788117E7EFF1D82E926EC794901D17C78024A50270940304540A733656F0D PUSH1 0x40 MLOAD PUSH1 0x40 MLOAD DUP1 SWAP2 SUB SWAP1 LOG4 POP PUSH1 0x1 PUSH3 0x1A7 JUMP JUMPDEST POP PUSH1 0x0 JUMPDEST SWAP3 SWAP2 POP POP JUMP JUMPDEST PUSH1 0x0 DUP1 PUSH1 0x0 PUSH1 0x60 DUP5 DUP7 SUB SLT ISZERO PUSH3 0x1C3 JUMPI PUSH1 0x0 DUP1 REVERT JUMPDEST DUP4 MLOAD PUSH1 0x1 PUSH1 0x1 PUSH1 0xA0 SHL SUB DUP2 AND DUP2 EQ PUSH3 0x1DB JUMPI PUSH1 0x0 DUP1 REVERT JUMPDEST PUSH1 0x20 DUP6 ADD MLOAD PUSH1 0x40 SWAP1 SWAP6 ADD MLOAD SWAP1 SWAP7 SWAP5 SWAP6 POP SWAP4 SWAP3 POP POP POP JUMP JUMPDEST PUSH2 0x1459 DUP1 PUSH3 0x202 PUSH1 0x0 CODECOPY PUSH1 0x0 RETURN INVALID PUSH1 0x80 PUSH1 0x40 MSTORE CALLVALUE DUP1 ISZERO PUSH2 0x10 JUMPI PUSH1 0x0 DUP1 REVERT JUMPDEST POP PUSH1 0x4 CALLDATASIZE LT PUSH2 0x158 JUMPI PUSH1 0x0 CALLDATALOAD PUSH1 0xE0 SHR DUP1 PUSH4 0x8FA482BF GT PUSH2 0xC3 JUMPI DUP1 PUSH4 0xC7F758A8 GT PUSH2 0x7C JUMPI DUP1 PUSH4 0xC7F758A8 EQ PUSH2 0x349 JUMPI DUP1 PUSH4 0xC9D27AFE EQ PUSH2 0x36F JUMPI DUP1 PUSH4 0xD547741F EQ PUSH2 0x382 JUMPI DUP1 PUSH4 0xDA35C664 EQ PUSH2 0x395 JUMPI DUP1 PUSH4 0xE0A8F6F5 EQ PUSH2 0x39E JUMPI DUP1 PUSH4 0xFCA883CB EQ PUSH2 0x3B1 JUMPI PUSH1 0x0 DUP1 REVERT JUMPDEST DUP1 PUSH4 0x8FA482BF EQ PUSH2 0x2C8 JUMPI DUP1 PUSH4 0x91D14854 EQ PUSH2 0x2EB JUMPI DUP1 PUSH4 0x99C1AADC EQ PUSH2 0x2FE JUMPI DUP1 PUSH4 0xA217FDDF EQ PUSH2 0x307 JUMPI DUP1 PUSH4 0xA45B0AB4 EQ PUSH2 0x30F JUMPI DUP1 PUSH4 0xA94015C8 EQ PUSH2 0x322 JUMPI PUSH1 0x0 DUP1 REVERT JUMPDEST DUP1 PUSH4 0x248A9CA3 GT PUSH2 0x115 JUMPI DUP1 PUSH4 0x248A9CA3 EQ PUSH2 0x221 JUMPI DUP1 PUSH4 0x2F2FF15D EQ PUSH2 0x244 JUMPI DUP1 PUSH4 0x30109962 EQ PUSH2 0x257 JUMPI DUP1 PUSH4 0x36568ABE EQ PUSH2 0x260 JUMPI DUP1 PUSH4 0x43859632 EQ PUSH2 0x273 JUMPI DUP1 PUSH4 0x8F61F4F5 EQ PUSH2 0x2A1 JUMPI PUSH1 0x0 DUP1 REVERT JUMPDEST DUP1 PUSH4 0x13CF08B EQ PUSH2 0x15D JUMPI DUP1 PUSH4 0x1FFC9A7 EQ PUSH2 0x18E JUMPI DUP1 PUSH4 0x7BD0265 EQ PUSH2 0x1B1 JUMPI DUP1 PUSH4 0x9C7E623 EQ PUSH2 0x1E6 JUMPI DUP1 PUSH4 0xD61B519 EQ PUSH2 0x1FB JUMPI DUP1 PUSH4 0x16128211 EQ PUSH2 0x20E JUMPI JUMPDEST PUSH1 0x0 DUP1 REVERT JUMPDEST PUSH2 0x170 PUSH2 0x16B CALLDATASIZE PUSH1 0x4 PUSH2 0xFBB JUMP JUMPDEST PUSH2 0x3D4 JUMP JUMPDEST PUSH1 0x40 MLOAD PUSH2 0x185 SWAP10 SWAP9 SWAP8 SWAP7 SWAP6 SWAP5 SWAP4 SWAP3 SWAP2 SWAP1 PUSH2 0x1008 JUMP JUMPDEST PUSH1 0x40 MLOAD DUP1 SWAP2 SUB SWAP1 RETURN JUMPDEST PUSH2 0x1A1 PUSH2 0x19C CALLDATASIZE PUSH1 0x4 PUSH2 0x10B3 JUMP JUMPDEST PUSH2 0x4B1 JUMP JUMPDEST PUSH1 0x40 MLOAD SWAP1 ISZERO ISZERO DUP2 MSTORE PUSH1 0x20 ADD PUSH2 0x185 JUMP JUMPDEST PUSH2 0x1D8 PUSH32 0xD8AA0F3194971A2A116679F7C2090F6939C8D4E01A2A8D7E41D55E5351469E63 DUP2 JUMP JUMPDEST PUSH1 0x40 MLOAD SWAP1 DUP2 MSTORE PUSH1 0x20 ADD PUSH2 0x185 JUMP JUMPDEST PUSH2 0x1F9 PUSH2 0x1F4 CALLDATASIZE PUSH1 0x4 PUSH2 0xFBB JUMP JUMPDEST PUSH2 0x4E8 JUMP JUMPDEST STOP JUMPDEST PUSH2 0x1F9 PUSH2 0x209 CALLDATASIZE PUSH1 0x4 PUSH2 0xFBB JUMP JUMPDEST PUSH2 0x532 JUMP JUMPDEST PUSH2 0x1F9 PUSH2 0x21C CALLDATASIZE PUSH1 0x4 PUSH2 0x10E4 JUMP JUMPDEST PUSH2 0x69A JUMP JUMPDEST PUSH2 0x1D8 PUSH2 0x22F CALLDATASIZE PUSH1 0x4 PUSH2 0xFBB JUMP JUMPDEST PUSH1 0x0 SWAP1 DUP2 MSTORE PUSH1 0x20 DUP2 SWAP1 MSTORE PUSH1 0x40 SWAP1 KECCAK256 PUSH1 0x1 ADD SLOAD SWAP1 JUMP JUMPDEST PUSH2 0x1F9 PUSH2 0x252 CALLDATASIZE PUSH1 0x4 PUSH2 0x1122 JUMP JUMPDEST PUSH2 0x6B1 JUMP JUMPDEST PUSH2 0x1D8 PUSH1 0x6 SLOAD DUP2 JUMP JUMPDEST PUSH2 0x1F9 PUSH2 0x26E CALLDATASIZE PUSH1 0x4 PUSH2 0x1122 JUMP JUMPDEST PUSH2 0x6DC JUMP JUMPDEST PUSH2 0x1A1 PUSH2 0x281 CALLDATASIZE PUSH1 0x4 PUSH2 0x1122 JUMP JUMPDEST PUSH1 0x2 PUSH1 0x20 SWAP1 DUP2 MSTORE PUSH1 0x0 SWAP3 DUP4 MSTORE PUSH1 0x40 DUP1 DUP5 KECCAK256 SWAP1 SWAP2 MSTORE SWAP1 DUP3 MSTORE SWAP1 KECCAK256 SLOAD PUSH1 0xFF AND DUP2 JUMP JUMPDEST PUSH2 0x1D8 PUSH32 0xB09AA5AEB3702CFD50B6B62BC4532604938F21248A27A1D5CA736082B6819CC1 DUP2 JUMP JUMPDEST PUSH2 0x1A1 PUSH2 0x2D6 CALLDATASIZE PUSH1 0x4 PUSH2 0xFBB JUMP JUMPDEST PUSH1 0x3 PUSH1 0x20 MSTORE PUSH1 0x0 SWAP1 DUP2 MSTORE PUSH1 0x40 SWAP1 KECCAK256 SLOAD PUSH1 0xFF AND DUP2 JUMP JUMPDEST PUSH2 0x1A1 PUSH2 0x2F9 CALLDATASIZE PUSH1 0x4 PUSH2 0x1122 JUMP JUMPDEST PUSH2 0x714 JUMP JUMPDEST PUSH2 0x1D8 PUSH1 0x5 SLOAD DUP2 JUMP JUMPDEST PUSH2 0x1D8 PUSH1 0x0 DUP2 JUMP JUMPDEST PUSH2 0x1D8 PUSH2 0x31D CALLDATASIZE PUSH1 0x4 PUSH2 0x114E JUMP JUMPDEST PUSH2 0x73D JUMP JUMPDEST PUSH2 0x1D8 PUSH32 0x72C3EEC1760BF69946625C2D4FB8E44E2C806345041960B434674FB9AB3976CF DUP2 JUMP JUMPDEST PUSH2 0x35C PUSH2 0x357 CALLDATASIZE PUSH1 0x4 PUSH2 0xFBB JUMP JUMPDEST PUSH2 0x949 JUMP JUMPDEST PUSH1 0x40 MLOAD PUSH2 0x185 SWAP8 SWAP7 SWAP6 SWAP5 SWAP4 SWAP3 SWAP2 SWAP1 PUSH2 0x11DB JUMP JUMPDEST PUSH2 0x1F9 PUSH2 0x37D CALLDATASIZE PUSH1 0x4 PUSH2 0x122D JUMP JUMPDEST PUSH2 0xAEC JUMP JUMPDEST PUSH2 0x1F9 PUSH2 0x390 CALLDATASIZE PUSH1 0x4 PUSH2 0x1122 JUMP JUMPDEST PUSH2 0xD0F JUMP JUMPDEST PUSH2 0x1D8 PUSH1 0x4 SLOAD DUP2 JUMP JUMPDEST PUSH2 0x1F9 PUSH2 0x3AC CALLDATASIZE PUSH1 0x4 PUSH2 0xFBB JUMP JUMPDEST PUSH2 0xD34 JUMP JUMPDEST PUSH2 0x1A1 PUSH2 0x3BF CALLDATASIZE PUSH1 0x4 PUSH2 0xFBB JUMP JUMPDEST PUSH1 0x0 SWAP1 DUP2 MSTORE PUSH1 0x3 PUSH1 0x20 MSTORE PUSH1 0x40 SWAP1 KECCAK256 SLOAD PUSH1 0xFF AND SWAP1 JUMP JUMPDEST PUSH1 0x1 PUSH1 0x20 DUP2 SWAP1 MSTORE PUSH1 0x0 SWAP2 DUP3 MSTORE PUSH1 0x40 SWAP1 SWAP2 KECCAK256 DUP1 SLOAD SWAP2 DUP2 ADD SLOAD PUSH1 0x2 DUP3 ADD SLOAD PUSH1 0x3 DUP4 ADD SLOAD PUSH1 0x4 DUP5 ADD SLOAD PUSH1 0x5 DUP6 ADD SLOAD PUSH1 0x6 DUP7 ADD SLOAD PUSH1 0x7 DUP8 ADD DUP1 SLOAD PUSH1 0xFF DUP1 DUP12 AND SWAP11 PUSH2 0x100 SWAP1 DIV AND SWAP9 PUSH1 0x1 PUSH1 0x1 PUSH1 0xA0 SHL SUB SWAP1 SWAP8 AND SWAP7 SWAP2 SWAP1 PUSH2 0x42E SWAP1 PUSH2 0x1262 JUMP JUMPDEST DUP1 PUSH1 0x1F ADD PUSH1 0x20 DUP1 SWAP2 DIV MUL PUSH1 0x20 ADD PUSH1 0x40 MLOAD SWAP1 DUP2 ADD PUSH1 0x40 MSTORE DUP1 SWAP3 SWAP2 SWAP1 DUP2 DUP2 MSTORE PUSH1 0x20 ADD DUP3 DUP1 SLOAD PUSH2 0x45A SWAP1 PUSH2 0x1262 JUMP JUMPDEST DUP1 ISZERO PUSH2 0x4A7 JUMPI DUP1 PUSH1 0x1F LT PUSH2 0x47C JUMPI PUSH2 0x100 DUP1 DUP4 SLOAD DIV MUL DUP4 MSTORE SWAP2 PUSH1 0x20 ADD SWAP2 PUSH2 0x4A7 JUMP JUMPDEST DUP3 ADD SWAP2 SWAP1 PUSH1 0x0 MSTORE PUSH1 0x20 PUSH1 0x0 KECCAK256 SWAP1 JUMPDEST DUP2 SLOAD DUP2 MSTORE SWAP1 PUSH1 0x1 ADD SWAP1 PUSH1 0x20 ADD DUP1 DUP4 GT PUSH2 0x48A JUMPI DUP3 SWAP1 SUB PUSH1 0x1F AND DUP3 ADD SWAP2 JUMPDEST POP POP POP POP POP SWAP1 POP DUP10 JUMP JUMPDEST PUSH1 0x0 PUSH1 0x1 PUSH1 0x1 PUSH1 0xE0 SHL SUB NOT DUP3 AND PUSH4 0x7965DB0B PUSH1 0xE0 SHL EQ DUP1 PUSH2 0x4E2 JUMPI POP PUSH4 0x1FFC9A7 PUSH1 0xE0 SHL PUSH1 0x1 PUSH1 0x1 PUSH1 0xE0 SHL SUB NOT DUP4 AND EQ JUMPDEST SWAP3 SWAP2 POP POP JUMP JUMPDEST PUSH1 0x0 PUSH2 0x4F3 DUP2 PUSH2 0xE74 JUMP JUMPDEST PUSH1 0x40 DUP1 MLOAD CALLER DUP2 MSTORE TIMESTAMP PUSH1 0x20 DUP3 ADD MSTORE DUP4 SWAP2 PUSH32 0xBE91F61379C1807A8D577094A87FEBFC469EEECC59314DFCF537BAB0F1736EB6 SWAP2 ADD JUMPDEST PUSH1 0x40 MLOAD DUP1 SWAP2 SUB SWAP1 LOG2 POP POP JUMP JUMPDEST PUSH32 0xD8AA0F3194971A2A116679F7C2090F6939C8D4E01A2A8D7E41D55E5351469E63 PUSH2 0x55C DUP2 PUSH2 0xE74 JUMP JUMPDEST PUSH1 0x0 DUP3 DUP2 MSTORE PUSH1 0x1 PUSH1 0x20 DUP2 SWAP1 MSTORE PUSH1 0x40 SWAP1 SWAP2 KECCAK256 SWAP1 DUP2 SLOAD PUSH2 0x100 SWAP1 DIV PUSH1 0xFF AND PUSH1 0x4 DUP2 GT ISZERO PUSH2 0x589 JUMPI PUSH2 0x589 PUSH2 0xFD4 JUMP JUMPDEST EQ PUSH2 0x5CA JUMPI PUSH1 0x40 MLOAD PUSH3 0x461BCD PUSH1 0xE5 SHL DUP2 MSTORE PUSH1 0x20 PUSH1 0x4 DUP3 ADD MSTORE PUSH1 0xC PUSH1 0x24 DUP3 ADD MSTORE PUSH12 0x139BDD08185C1C1C9BDD9959 PUSH1 0xA2 SHL PUSH1 0x44 DUP3 ADD MSTORE PUSH1 0x64 ADD JUMPDEST PUSH1 0x40 MLOAD DUP1 SWAP2 SUB SWAP1 REVERT JUMPDEST DUP1 SLOAD PUSH2 0x300 PUSH2 0xFF00 NOT DUP3 AND OR DUP3 SSTORE PUSH1 0x0 SWAP1 PUSH1 0xFF AND PUSH1 0x4 DUP2 GT ISZERO PUSH2 0x5EF JUMPI PUSH2 0x5EF PUSH2 0xFD4 JUMP JUMPDEST SUB PUSH2 0x65B JUMPI PUSH1 0x1 DUP2 DUP2 ADD DUP1 SLOAD PUSH1 0x0 SWAP1 DUP2 MSTORE PUSH1 0x3 PUSH1 0x20 MSTORE PUSH1 0x40 SWAP1 DUP2 SWAP1 KECCAK256 DUP1 SLOAD PUSH1 0xFF NOT AND SWAP1 SWAP4 OR SWAP1 SWAP3 SSTORE SLOAD SWAP1 MLOAD PUSH32 0xCB9E029F3A366069ADB098585630D8D31769A11E1B3EB50F8DEFCEA4BC49CE7A SWAP1 PUSH2 0x652 SWAP1 DUP7 SWAP1 TIMESTAMP SWAP1 SWAP2 DUP3 MSTORE PUSH1 0x20 DUP3 ADD MSTORE PUSH1 0x40 ADD SWAP1 JUMP JUMPDEST PUSH1 0x40 MLOAD DUP1 SWAP2 SUB SWAP1 LOG2 JUMPDEST DUP3 PUSH32 0xF758FC91E01B00EA6B4A6138756F7F28E021F9BF21DB6DBF8C36C88EB737257A TIMESTAMP PUSH1 0x40 MLOAD PUSH2 0x68D SWAP2 DUP2 MSTORE PUSH1 0x20 ADD SWAP1 JUMP JUMPDEST PUSH1 0x40 MLOAD DUP1 SWAP2 SUB SWAP1 LOG2 POP POP POP JUMP JUMPDEST PUSH1 0x0 PUSH2 0x6A5 DUP2 PUSH2 0xE74 JUMP JUMPDEST POP PUSH1 0x5 SWAP2 SWAP1 SWAP2 SSTORE PUSH1 0x6 SSTORE JUMP JUMPDEST PUSH1 0x0 DUP3 DUP2 MSTORE PUSH1 0x20 DUP2 SWAP1 MSTORE PUSH1 0x40 SWAP1 KECCAK256 PUSH1 0x1 ADD SLOAD PUSH2 0x6CC DUP2 PUSH2 0xE74 JUMP JUMPDEST PUSH2 0x6D6 DUP4 DUP4 PUSH2 0xE81 JUMP JUMPDEST POP POP POP POP JUMP JUMPDEST PUSH1 0x1 PUSH1 0x1 PUSH1 0xA0 SHL SUB DUP2 AND CALLER EQ PUSH2 0x705 JUMPI PUSH1 0x40 MLOAD PUSH4 0x334BD919 PUSH1 0xE1 SHL DUP2 MSTORE PUSH1 0x4 ADD PUSH1 0x40 MLOAD DUP1 SWAP2 SUB SWAP1 REVERT JUMPDEST PUSH2 0x70F DUP3 DUP3 PUSH2 0xF13 JUMP JUMPDEST POP POP POP JUMP JUMPDEST PUSH1 0x0 SWAP2 DUP3 MSTORE PUSH1 0x20 DUP3 DUP2 MSTORE PUSH1 0x40 DUP1 DUP5 KECCAK256 PUSH1 0x1 PUSH1 0x1 PUSH1 0xA0 SHL SUB SWAP4 SWAP1 SWAP4 AND DUP5 MSTORE SWAP2 SWAP1 MSTORE SWAP1 KECCAK256 SLOAD PUSH1 0xFF AND SWAP1 JUMP JUMPDEST PUSH1 0x0 PUSH32 0xB09AA5AEB3702CFD50B6B62BC4532604938F21248A27A1D5CA736082B6819CC1 PUSH2 0x769 DUP2 PUSH2 0xE74 JUMP JUMPDEST PUSH1 0x4 DUP1 SLOAD PUSH1 0x0 SWAP2 DUP3 PUSH2 0x77A DUP4 PUSH2 0x12B2 JUMP JUMPDEST SWAP2 SWAP1 POP SSTORE SWAP1 POP PUSH1 0x40 MLOAD DUP1 PUSH2 0x120 ADD PUSH1 0x40 MSTORE DUP1 DUP9 PUSH1 0x4 DUP2 GT ISZERO PUSH2 0x79E JUMPI PUSH2 0x79E PUSH2 0xFD4 JUMP JUMPDEST DUP2 MSTORE PUSH1 0x20 ADD PUSH1 0x0 DUP2 MSTORE PUSH1 0x20 ADD DUP8 DUP2 MSTORE PUSH1 0x20 ADD CALLER PUSH1 0x1 PUSH1 0x1 PUSH1 0xA0 SHL SUB AND DUP2 MSTORE PUSH1 0x20 ADD TIMESTAMP DUP2 MSTORE PUSH1 0x20 ADD PUSH1 0x6 SLOAD TIMESTAMP PUSH2 0x7D3 SWAP2 SWAP1 PUSH2 0x12CB JUMP JUMPDEST DUP2 MSTORE PUSH1 0x20 ADD PUSH1 0x0 DUP2 MSTORE PUSH1 0x20 ADD PUSH1 0x0 DUP2 MSTORE PUSH1 0x20 ADD DUP7 DUP7 DUP1 DUP1 PUSH1 0x1F ADD PUSH1 0x20 DUP1 SWAP2 DIV MUL PUSH1 0x20 ADD PUSH1 0x40 MLOAD SWAP1 DUP2 ADD PUSH1 0x40 MSTORE DUP1 SWAP4 SWAP3 SWAP2 SWAP1 DUP2 DUP2 MSTORE PUSH1 0x20 ADD DUP4 DUP4 DUP1 DUP3 DUP5 CALLDATACOPY PUSH1 0x0 SWAP3 ADD DUP3 SWAP1 MSTORE POP SWAP4 SWAP1 SWAP5 MSTORE POP POP DUP4 DUP2 MSTORE PUSH1 0x1 PUSH1 0x20 DUP2 SWAP1 MSTORE PUSH1 0x40 SWAP1 SWAP2 KECCAK256 DUP4 MLOAD DUP2 SLOAD SWAP2 SWAP4 POP SWAP2 DUP4 SWAP2 PUSH1 0xFF NOT AND SWAP1 DUP4 PUSH1 0x4 DUP2 GT ISZERO PUSH2 0x84E JUMPI PUSH2 0x84E PUSH2 0xFD4 JUMP JUMPDEST MUL OR SWAP1 SSTORE POP PUSH1 0x20 DUP3 ADD MLOAD DUP2 SLOAD DUP3 SWAP1 PUSH2 0xFF00 NOT AND PUSH2 0x100 DUP4 PUSH1 0x4 DUP2 GT ISZERO PUSH2 0x876 JUMPI PUSH2 0x876 PUSH2 0xFD4 JUMP JUMPDEST MUL OR SWAP1 SSTORE POP PUSH1 0x40 DUP3 ADD MLOAD PUSH1 0x1 DUP3 ADD SSTORE PUSH1 0x60 DUP3 ADD MLOAD PUSH1 0x2 DUP3 ADD DUP1 SLOAD PUSH1 0x1 PUSH1 0x1 PUSH1 0xA0 SHL SUB NOT AND PUSH1 0x1 PUSH1 0x1 PUSH1 0xA0 SHL SUB SWAP1 SWAP3 AND SWAP2 SWAP1 SWAP2 OR SWAP1 SSTORE PUSH1 0x80 DUP3 ADD MLOAD PUSH1 0x3 DUP3 ADD SSTORE PUSH1 0xA0 DUP3 ADD MLOAD PUSH1 0x4 DUP3 ADD SSTORE PUSH1 0xC0 DUP3 ADD MLOAD PUSH1 0x5 DUP3 ADD SSTORE PUSH1 0xE0 DUP3 ADD MLOAD PUSH1 0x6 DUP3 ADD SSTORE PUSH2 0x100 DUP3 ADD MLOAD PUSH1 0x7 DUP3 ADD SWAP1 PUSH2 0x8E8 SWAP1 DUP3 PUSH2 0x1342 JUMP JUMPDEST POP SWAP1 POP POP CALLER PUSH1 0x1 PUSH1 0x1 PUSH1 0xA0 SHL SUB AND DUP2 PUSH32 0xAC4968D741B5B22FAA117F2CD6E4B138B0AF9117EBE9575D69F6A79723628BC1 DUP10 DUP10 PUSH1 0x6 SLOAD TIMESTAMP PUSH2 0x928 SWAP2 SWAP1 PUSH2 0x12CB JUMP JUMPDEST PUSH1 0x40 MLOAD PUSH2 0x937 SWAP4 SWAP3 SWAP2 SWAP1 PUSH2 0x1402 JUMP JUMPDEST PUSH1 0x40 MLOAD DUP1 SWAP2 SUB SWAP1 LOG3 SWAP7 SWAP6 POP POP POP POP POP POP JUMP JUMPDEST PUSH1 0x0 DUP2 DUP2 MSTORE PUSH1 0x1 PUSH1 0x20 MSTORE PUSH1 0x40 DUP1 DUP3 KECCAK256 DUP2 MLOAD PUSH2 0x120 DUP2 ADD SWAP1 SWAP3 MSTORE DUP1 SLOAD DUP4 SWAP3 DUP4 SWAP3 DUP4 SWAP3 DUP4 SWAP3 DUP4 SWAP3 DUP4 SWAP3 DUP4 SWAP3 SWAP2 SWAP1 DUP3 SWAP1 PUSH1 0xFF AND PUSH1 0x4 DUP2 GT ISZERO PUSH2 0x98A JUMPI PUSH2 0x98A PUSH2 0xFD4 JUMP JUMPDEST PUSH1 0x4 DUP2 GT ISZERO PUSH2 0x99B JUMPI PUSH2 0x99B PUSH2 0xFD4 JUMP JUMPDEST DUP2 MSTORE DUP2 SLOAD PUSH1 0x20 SWAP1 SWAP2 ADD SWAP1 PUSH2 0x100 SWAP1 DIV PUSH1 0xFF AND PUSH1 0x4 DUP2 GT ISZERO PUSH2 0x9BE JUMPI PUSH2 0x9BE PUSH2 0xFD4 JUMP JUMPDEST PUSH1 0x4 DUP2 GT ISZERO PUSH2 0x9CF JUMPI PUSH2 0x9CF PUSH2 0xFD4 JUMP JUMPDEST DUP2 MSTORE PUSH1 0x1 DUP3 ADD SLOAD PUSH1 0x20 DUP3 ADD MSTORE PUSH1 0x2 DUP3 ADD SLOAD PUSH1 0x1 PUSH1 0x1 PUSH1 0xA0 SHL SUB AND PUSH1 0x40 DUP3 ADD MSTORE PUSH1 0x3 DUP3 ADD SLOAD PUSH1 0x60 DUP3 ADD MSTORE PUSH1 0x4 DUP3 ADD SLOAD PUSH1 0x80 DUP3 ADD MSTORE PUSH1 0x5 DUP3 ADD SLOAD PUSH1 0xA0 DUP3 ADD MSTORE PUSH1 0x6 DUP3 ADD SLOAD PUSH1 0xC0 DUP3 ADD MSTORE PUSH1 0x7 DUP3 ADD DUP1 SLOAD PUSH1 0xE0 SWAP1 SWAP3 ADD SWAP2 PUSH2 0xA2B SWAP1 PUSH2 0x1262 JUMP JUMPDEST DUP1 PUSH1 0x1F ADD PUSH1 0x20 DUP1 SWAP2 DIV MUL PUSH1 0x20 ADD PUSH1 0x40 MLOAD SWAP1 DUP2 ADD PUSH1 0x40 MSTORE DUP1 SWAP3 SWAP2 SWAP1 DUP2 DUP2 MSTORE PUSH1 0x20 ADD DUP3 DUP1 SLOAD PUSH2 0xA57 SWAP1 PUSH2 0x1262 JUMP JUMPDEST DUP1 ISZERO PUSH2 0xAA4 JUMPI DUP1 PUSH1 0x1F LT PUSH2 0xA79 JUMPI PUSH2 0x100 DUP1 DUP4 SLOAD DIV MUL DUP4 MSTORE SWAP2 PUSH1 0x20 ADD SWAP2 PUSH2 0xAA4 JUMP JUMPDEST DUP3 ADD SWAP2 SWAP1 PUSH1 0x0 MSTORE PUSH1 0x20 PUSH1 0x0 KECCAK256 SWAP1 JUMPDEST DUP2 SLOAD DUP2 MSTORE SWAP1 PUSH1 0x1 ADD SWAP1 PUSH1 0x20 ADD DUP1 DUP4 GT PUSH2 0xA87 JUMPI DUP3 SWAP1 SUB PUSH1 0x1F AND DUP3 ADD SWAP2 JUMPDEST POP POP POP POP POP DUP2 MSTORE POP POP SWAP1 POP DUP1 PUSH1 0x0 ADD MLOAD DUP2 PUSH1 0x20 ADD MLOAD DUP3 PUSH1 0x40 ADD MLOAD DUP4 PUSH1 0x60 ADD MLOAD DUP5 PUSH1 0xC0 ADD MLOAD DUP6 PUSH1 0xE0 ADD MLOAD DUP7 PUSH1 0xA0 ADD MLOAD SWAP8 POP SWAP8 POP SWAP8 POP SWAP8 POP SWAP8 POP SWAP8 POP SWAP8 POP POP SWAP2 SWAP4 SWAP6 SWAP8 SWAP1 SWAP3 SWAP5 SWAP7 POP JUMP JUMPDEST PUSH32 0x72C3EEC1760BF69946625C2D4FB8E44E2C806345041960B434674FB9AB3976CF PUSH2 0xB16 DUP2 PUSH2 0xE74 JUMP JUMPDEST PUSH1 0x0 DUP4 DUP2 MSTORE PUSH1 0x1 PUSH1 0x20 MSTORE PUSH1 0x40 SWAP1 KECCAK256 PUSH1 0x3 DUP2 ADD SLOAD PUSH2 0xB6A JUMPI PUSH1 0x40 MLOAD PUSH3 0x461BCD PUSH1 0xE5 SHL DUP2 MSTORE PUSH1 0x20 PUSH1 0x4 DUP3 ADD MSTORE PUSH1 0x12 PUSH1 0x24 DUP3 ADD MSTORE PUSH18 0x141C9BDC1BDCD85B081B9BDD08199BDD5B99 PUSH1 0x72 SHL PUSH1 0x44 DUP3 ADD MSTORE PUSH1 0x64 ADD PUSH2 0x5C1 JUMP JUMPDEST PUSH1 0x0 DUP2 SLOAD PUSH2 0x100 SWAP1 DIV PUSH1 0xFF AND PUSH1 0x4 DUP2 GT ISZERO PUSH2 0xB87 JUMPI PUSH2 0xB87 PUSH2 0xFD4 JUMP JUMPDEST EQ PUSH2 0xBC2 JUMPI PUSH1 0x40 MLOAD PUSH3 0x461BCD PUSH1 0xE5 SHL DUP2 MSTORE PUSH1 0x20 PUSH1 0x4 DUP3 ADD MSTORE PUSH1 0xB PUSH1 0x24 DUP3 ADD MSTORE PUSH11 0x4E6F742070656E64696E67 PUSH1 0xA8 SHL PUSH1 0x44 DUP3 ADD MSTORE PUSH1 0x64 ADD PUSH2 0x5C1 JUMP JUMPDEST DUP1 PUSH1 0x4 ADD SLOAD TIMESTAMP LT PUSH2 0xBFF JUMPI PUSH1 0x40 MLOAD PUSH3 0x461BCD PUSH1 0xE5 SHL DUP2 MSTORE PUSH1 0x20 PUSH1 0x4 DUP3 ADD MSTORE PUSH1 0x7 PUSH1 0x24 DUP3 ADD MSTORE PUSH7 0x115E1C1A5C9959 PUSH1 0xCA SHL PUSH1 0x44 DUP3 ADD MSTORE PUSH1 0x64 ADD PUSH2 0x5C1 JUMP JUMPDEST PUSH1 0x0 DUP5 DUP2 MSTORE PUSH1 0x2 PUSH1 0x20 SWAP1 DUP2 MSTORE PUSH1 0x40 DUP1 DUP4 KECCAK256 CALLER DUP5 MSTORE SWAP1 SWAP2 MSTORE SWAP1 KECCAK256 SLOAD PUSH1 0xFF AND ISZERO PUSH2 0xC59 JUMPI PUSH1 0x40 MLOAD PUSH3 0x461BCD PUSH1 0xE5 SHL DUP2 MSTORE PUSH1 0x20 PUSH1 0x4 DUP3 ADD MSTORE PUSH1 0xD PUSH1 0x24 DUP3 ADD MSTORE PUSH13 0x105B1C9958591E481D9BDD1959 PUSH1 0x9A SHL PUSH1 0x44 DUP3 ADD MSTORE PUSH1 0x64 ADD PUSH2 0x5C1 JUMP JUMPDEST PUSH1 0x0 DUP5 DUP2 MSTORE PUSH1 0x2 PUSH1 0x20 SWAP1 DUP2 MSTORE PUSH1 0x40 DUP1 DUP4 KECCAK256 CALLER DUP5 MSTORE SWAP1 SWAP2 MSTORE SWAP1 KECCAK256 DUP1 SLOAD PUSH1 0xFF NOT AND PUSH1 0x1 OR SWAP1 SSTORE DUP3 ISZERO PUSH2 0xC9F JUMPI PUSH1 0x5 DUP2 ADD DUP1 SLOAD SWAP1 PUSH1 0x0 PUSH2 0xC95 DUP4 PUSH2 0x12B2 JUMP JUMPDEST SWAP2 SWAP1 POP SSTORE POP PUSH2 0xCB7 JUMP JUMPDEST PUSH1 0x6 DUP2 ADD DUP1 SLOAD SWAP1 PUSH1 0x0 PUSH2 0xCB1 DUP4 PUSH2 0x12B2 JUMP JUMPDEST SWAP2 SWAP1 POP SSTORE POP JUMPDEST PUSH1 0x40 MLOAD DUP4 ISZERO ISZERO DUP2 MSTORE CALLER SWAP1 DUP6 SWAP1 PUSH32 0xDEF80F9A3B4C7A4251442658CCF516BF33EA4ACAF31638FC6DA8EBDB0F64C72 SWAP1 PUSH1 0x20 ADD PUSH1 0x40 MLOAD DUP1 SWAP2 SUB SWAP1 LOG3 PUSH1 0x5 SLOAD DUP2 PUSH1 0x5 ADD SLOAD LT PUSH2 0x6D6 JUMPI DUP1 SLOAD PUSH2 0xFF00 NOT AND PUSH2 0x100 OR SWAP1 SSTORE POP POP POP JUMP JUMPDEST PUSH1 0x0 DUP3 DUP2 MSTORE PUSH1 0x20 DUP2 SWAP1 MSTORE PUSH1 0x40 SWAP1 KECCAK256 PUSH1 0x1 ADD SLOAD PUSH2 0xD2A DUP2 PUSH2 0xE74 JUMP JUMPDEST PUSH2 0x6D6 DUP4 DUP4 PUSH2 0xF13 JUMP JUMPDEST PUSH1 0x0 DUP2 DUP2 MSTORE PUSH1 0x1 PUSH1 0x20 MSTORE PUSH1 0x40 SWAP1 KECCAK256 PUSH1 0x3 DUP2 ADD SLOAD PUSH2 0xD7F JUMPI PUSH1 0x40 MLOAD PUSH3 0x461BCD PUSH1 0xE5 SHL DUP2 MSTORE PUSH1 0x20 PUSH1 0x4 DUP3 ADD MSTORE PUSH1 0x9 PUSH1 0x24 DUP3 ADD MSTORE PUSH9 0x139BDD08199BDD5B99 PUSH1 0xBA SHL PUSH1 0x44 DUP3 ADD MSTORE PUSH1 0x64 ADD PUSH2 0x5C1 JUMP JUMPDEST PUSH1 0x2 DUP2 ADD SLOAD PUSH1 0x1 PUSH1 0x1 PUSH1 0xA0 SHL SUB AND CALLER EQ DUP1 PUSH2 0xDA0 JUMPI POP PUSH2 0xDA0 PUSH1 0x0 CALLER PUSH2 0x714 JUMP JUMPDEST PUSH2 0xDDD JUMPI PUSH1 0x40 MLOAD PUSH3 0x461BCD PUSH1 0xE5 SHL DUP2 MSTORE PUSH1 0x20 PUSH1 0x4 DUP3 ADD MSTORE PUSH1 0xE PUSH1 0x24 DUP3 ADD MSTORE PUSH14 0x139BDD08185D5D1A1BDC9A5E9959 PUSH1 0x92 SHL PUSH1 0x44 DUP3 ADD MSTORE PUSH1 0x64 ADD PUSH2 0x5C1 JUMP JUMPDEST PUSH1 0x0 DUP2 SLOAD PUSH2 0x100 SWAP1 DIV PUSH1 0xFF AND PUSH1 0x4 DUP2 GT ISZERO PUSH2 0xDFA JUMPI PUSH2 0xDFA PUSH2 0xFD4 JUMP JUMPDEST EQ PUSH2 0xE35 JUMPI PUSH1 0x40 MLOAD PUSH3 0x461BCD PUSH1 0xE5 SHL DUP2 MSTORE PUSH1 0x20 PUSH1 0x4 DUP3 ADD MSTORE PUSH1 0xB PUSH1 0x24 DUP3 ADD MSTORE PUSH11 0x4E6F742070656E64696E67 PUSH1 0xA8 SHL PUSH1 0x44 DUP3 ADD MSTORE PUSH1 0x64 ADD PUSH2 0x5C1 JUMP JUMPDEST DUP1 SLOAD PUSH2 0xFF00 NOT AND PUSH2 0x400 OR DUP2 SSTORE PUSH1 0x40 MLOAD TIMESTAMP DUP2 MSTORE DUP3 SWAP1 PUSH32 0x5BE67B1762C29673DCEAE3C1DE04ECBF702AB0755C93F0FCC8AEC5252DF5A2B4 SWAP1 PUSH1 0x20 ADD PUSH2 0x526 JUMP JUMPDEST PUSH2 0xE7E DUP2 CALLER PUSH2 0xF7E JUMP JUMPDEST POP JUMP JUMPDEST PUSH1 0x0 PUSH2 0xE8D DUP4 DUP4 PUSH2 0x714 JUMP JUMPDEST PUSH2 0xF0B JUMPI PUSH1 0x0 DUP4 DUP2 MSTORE PUSH1 0x20 DUP2 DUP2 MSTORE PUSH1 0x40 DUP1 DUP4 KECCAK256 PUSH1 0x1 PUSH1 0x1 PUSH1 0xA0 SHL SUB DUP7 AND DUP5 MSTORE SWAP1 SWAP2 MSTORE SWAP1 KECCAK256 DUP1 SLOAD PUSH1 0xFF NOT AND PUSH1 0x1 OR SWAP1 SSTORE PUSH2 0xEC3 CALLER SWAP1 JUMP JUMPDEST PUSH1 0x1 PUSH1 0x1 PUSH1 0xA0 SHL SUB AND DUP3 PUSH1 0x1 PUSH1 0x1 PUSH1 0xA0 SHL SUB AND DUP5 PUSH32 0x2F8788117E7EFF1D82E926EC794901D17C78024A50270940304540A733656F0D PUSH1 0x40 MLOAD PUSH1 0x40 MLOAD DUP1 SWAP2 SUB SWAP1 LOG4 POP PUSH1 0x1 PUSH2 0x4E2 JUMP JUMPDEST POP PUSH1 0x0 PUSH2 0x4E2 JUMP JUMPDEST PUSH1 0x0 PUSH2 0xF1F DUP4 DUP4 PUSH2 0x714 JUMP JUMPDEST ISZERO PUSH2 0xF0B JUMPI PUSH1 0x0 DUP4 DUP2 MSTORE PUSH1 0x20 DUP2 DUP2 MSTORE PUSH1 0x40 DUP1 DUP4 KECCAK256 PUSH1 0x1 PUSH1 0x1 PUSH1 0xA0 SHL SUB DUP7 AND DUP1 DUP6 MSTORE SWAP3 MSTORE DUP1 DUP4 KECCAK256 DUP1 SLOAD PUSH1 0xFF NOT AND SWAP1 SSTORE MLOAD CALLER SWAP3 DUP7 SWAP2 PUSH32 0xF6391F5C32D9C69D2A47EA670B442974B53935D1EDC7FD64EB21E047A839171B SWAP2 SWAP1 LOG4 POP PUSH1 0x1 PUSH2 0x4E2 JUMP JUMPDEST PUSH2 0xF88 DUP3 DUP3 PUSH2 0x714 JUMP JUMPDEST PUSH2 0xFB7 JUMPI PUSH1 0x40 MLOAD PUSH4 0xE2517D3F PUSH1 0xE0 SHL DUP2 MSTORE PUSH1 0x1 PUSH1 0x1 PUSH1 0xA0 SHL SUB DUP3 AND PUSH1 0x4 DUP3 ADD MSTORE PUSH1 0x24 DUP2 ADD DUP4 SWAP1 MSTORE PUSH1 0x44 ADD PUSH2 0x5C1 JUMP JUMPDEST POP POP JUMP JUMPDEST PUSH1 0x0 PUSH1 0x20 DUP3 DUP5 SUB SLT ISZERO PUSH2 0xFCD JUMPI PUSH1 0x0 DUP1 REVERT JUMPDEST POP CALLDATALOAD SWAP2 SWAP1 POP JUMP JUMPDEST PUSH4 0x4E487B71 PUSH1 0xE0 SHL PUSH1 0x0 MSTORE PUSH1 0x21 PUSH1 0x4 MSTORE PUSH1 0x24 PUSH1 0x0 REVERT JUMPDEST PUSH1 0x5 DUP2 LT PUSH2 0xE7E JUMPI PUSH4 0x4E487B71 PUSH1 0xE0 SHL PUSH1 0x0 MSTORE PUSH1 0x21 PUSH1 0x4 MSTORE PUSH1 0x24 PUSH1 0x0 REVERT JUMPDEST PUSH1 0x0 PUSH2 0x120 PUSH2 0x1016 DUP13 PUSH2 0xFEA JUMP JUMPDEST DUP12 DUP4 MSTORE PUSH1 0x20 PUSH2 0x1024 DUP13 PUSH2 0xFEA JUMP JUMPDEST DUP12 DUP2 DUP6 ADD MSTORE DUP11 PUSH1 0x40 DUP6 ADD MSTORE PUSH1 0x1 DUP1 PUSH1 0xA0 SHL SUB DUP11 AND PUSH1 0x60 DUP6 ADD MSTORE DUP9 PUSH1 0x80 DUP6 ADD MSTORE DUP8 PUSH1 0xA0 DUP6 ADD MSTORE DUP7 PUSH1 0xC0 DUP6 ADD MSTORE DUP6 PUSH1 0xE0 DUP6 ADD MSTORE DUP2 PUSH2 0x100 DUP6 ADD MSTORE DUP5 MLOAD DUP1 DUP4 DUP7 ADD MSTORE PUSH1 0x0 SWAP3 POP JUMPDEST DUP1 DUP4 LT ISZERO PUSH2 0x1087 JUMPI DUP6 DUP4 ADD DUP3 ADD MLOAD DUP6 DUP5 ADD PUSH2 0x140 ADD MSTORE SWAP2 DUP2 ADD SWAP2 PUSH2 0x1068 JUMP JUMPDEST PUSH2 0x140 SWAP3 POP PUSH1 0x0 DUP4 DUP3 DUP8 ADD ADD MSTORE DUP3 PUSH1 0x1F NOT PUSH1 0x1F DUP4 ADD AND DUP7 ADD ADD SWAP4 POP POP POP POP SWAP11 SWAP10 POP POP POP POP POP POP POP POP POP POP JUMP JUMPDEST PUSH1 0x0 PUSH1 0x20 DUP3 DUP5 SUB SLT ISZERO PUSH2 0x10C5 JUMPI PUSH1 0x0 DUP1 REVERT JUMPDEST DUP2 CALLDATALOAD PUSH1 0x1 PUSH1 0x1 PUSH1 0xE0 SHL SUB NOT DUP2 AND DUP2 EQ PUSH2 0x10DD JUMPI PUSH1 0x0 DUP1 REVERT JUMPDEST SWAP4 SWAP3 POP POP POP JUMP JUMPDEST PUSH1 0x0 DUP1 PUSH1 0x40 DUP4 DUP6 SUB SLT ISZERO PUSH2 0x10F7 JUMPI PUSH1 0x0 DUP1 REVERT JUMPDEST POP POP DUP1 CALLDATALOAD SWAP3 PUSH1 0x20 SWAP1 SWAP2 ADD CALLDATALOAD SWAP2 POP JUMP JUMPDEST DUP1 CALLDATALOAD PUSH1 0x1 PUSH1 0x1 PUSH1 0xA0 SHL SUB DUP2 AND DUP2 EQ PUSH2 0x111D JUMPI PUSH1 0x0 DUP1 REVERT JUMPDEST SWAP2 SWAP1 POP JUMP JUMPDEST PUSH1 0x0 DUP1 PUSH1 0x40 DUP4 DUP6 SUB SLT ISZERO PUSH2 0x1135 JUMPI PUSH1 0x0 DUP1 REVERT JUMPDEST DUP3 CALLDATALOAD SWAP2 POP PUSH2 0x1145 PUSH1 0x20 DUP5 ADD PUSH2 0x1106 JUMP JUMPDEST SWAP1 POP SWAP3 POP SWAP3 SWAP1 POP JUMP JUMPDEST PUSH1 0x0 DUP1 PUSH1 0x0 DUP1 PUSH1 0x60 DUP6 DUP8 SUB SLT ISZERO PUSH2 0x1164 JUMPI PUSH1 0x0 DUP1 REVERT JUMPDEST DUP5 CALLDATALOAD PUSH1 0x5 DUP2 LT PUSH2 0x1173 JUMPI PUSH1 0x0 DUP1 REVERT JUMPDEST SWAP4 POP PUSH1 0x20 DUP6 ADD CALLDATALOAD SWAP3 POP PUSH1 0x40 DUP6 ADD CALLDATALOAD PUSH8 0xFFFFFFFFFFFFFFFF DUP1 DUP3 GT ISZERO PUSH2 0x1197 JUMPI PUSH1 0x0 DUP1 REVERT JUMPDEST DUP2 DUP8 ADD SWAP2 POP DUP8 PUSH1 0x1F DUP4 ADD SLT PUSH2 0x11AB JUMPI PUSH1 0x0 DUP1 REVERT JUMPDEST DUP2 CALLDATALOAD DUP2 DUP2 GT ISZERO PUSH2 0x11BA JUMPI PUSH1 0x0 DUP1 REVERT JUMPDEST DUP9 PUSH1 0x20 DUP3 DUP6 ADD ADD GT ISZERO PUSH2 0x11CC JUMPI PUSH1 0x0 DUP1 REVERT JUMPDEST SWAP6 SWAP9 SWAP5 SWAP8 POP POP PUSH1 0x20 ADD SWAP5 POP POP POP JUMP JUMPDEST PUSH1 0xE0 DUP2 ADD PUSH2 0x11E8 DUP10 PUSH2 0xFEA JUMP JUMPDEST DUP9 DUP3 MSTORE PUSH2 0x11F4 DUP9 PUSH2 0xFEA JUMP JUMPDEST PUSH1 0x20 DUP3 ADD SWAP8 SWAP1 SWAP8 MSTORE PUSH1 0x40 DUP2 ADD SWAP6 SWAP1 SWAP6 MSTORE PUSH1 0x1 PUSH1 0x1 PUSH1 0xA0 SHL SUB SWAP4 SWAP1 SWAP4 AND PUSH1 0x60 DUP6 ADD MSTORE PUSH1 0x80 DUP5 ADD SWAP2 SWAP1 SWAP2 MSTORE PUSH1 0xA0 DUP4 ADD MSTORE PUSH1 0xC0 SWAP1 SWAP2 ADD MSTORE SWAP2 SWAP1 POP JUMP JUMPDEST PUSH1 0x0 DUP1 PUSH1 0x40 DUP4 DUP6 SUB SLT ISZERO PUSH2 0x1240 JUMPI PUSH1 0x0 DUP1 REVERT JUMPDEST DUP3 CALLDATALOAD SWAP2 POP PUSH1 0x20 DUP4 ADD CALLDATALOAD DUP1 ISZERO ISZERO DUP2 EQ PUSH2 0x1257 JUMPI PUSH1 0x0 DUP1 REVERT JUMPDEST DUP1 SWAP2 POP POP SWAP3 POP SWAP3 SWAP1 POP JUMP JUMPDEST PUSH1 0x1 DUP2 DUP2 SHR SWAP1 DUP3 AND DUP1 PUSH2 0x1276 JUMPI PUSH1 0x7F DUP3 AND SWAP2 POP JUMPDEST PUSH1 0x20 DUP3 LT DUP2 SUB PUSH2 0x1296 JUMPI PUSH4 0x4E487B71 PUSH1 0xE0 SHL PUSH1 0x0 MSTORE PUSH1 0x22 PUSH1 0x4 MSTORE PUSH1 0x24 PUSH1 0x0 REVERT JUMPDEST POP SWAP2 SWAP1 POP JUMP JUMPDEST PUSH4 0x4E487B71 PUSH1 0xE0 SHL PUSH1 0x0 MSTORE PUSH1 0x11 PUSH1 0x4 MSTORE PUSH1 0x24 PUSH1 0x0 REVERT JUMPDEST PUSH1 0x0 PUSH1 0x1 DUP3 ADD PUSH2 0x12C4 JUMPI PUSH2 0x12C4 PUSH2 0x129C JUMP JUMPDEST POP PUSH1 0x1 ADD SWAP1 JUMP JUMPDEST DUP1 DUP3 ADD DUP1 DUP3 GT ISZERO PUSH2 0x4E2 JUMPI PUSH2 0x4E2 PUSH2 0x129C JUMP JUMPDEST PUSH4 0x4E487B71 PUSH1 0xE0 SHL PUSH1 0x0 MSTORE PUSH1 0x41 PUSH1 0x4 MSTORE PUSH1 0x24 PUSH1 0x0 REVERT JUMPDEST PUSH1 0x1F DUP3 GT ISZERO PUSH2 0x70F JUMPI PUSH1 0x0 DUP2 DUP2 MSTORE PUSH1 0x20 DUP2 KECCAK256 PUSH1 0x1F DUP6 ADD PUSH1 0x5 SHR DUP2 ADD PUSH1 0x20 DUP7 LT ISZERO PUSH2 0x131B JUMPI POP DUP1 JUMPDEST PUSH1 0x1F DUP6 ADD PUSH1 0x5 SHR DUP3 ADD SWAP2 POP JUMPDEST DUP2 DUP2 LT ISZERO PUSH2 0x133A JUMPI DUP3 DUP2 SSTORE PUSH1 0x1 ADD PUSH2 0x1327 JUMP JUMPDEST POP POP POP POP POP POP JUMP JUMPDEST DUP2 MLOAD PUSH8 0xFFFFFFFFFFFFFFFF DUP2 GT ISZERO PUSH2 0x135C JUMPI PUSH2 0x135C PUSH2 0x12DE JUMP JUMPDEST PUSH2 0x1370 DUP2 PUSH2 0x136A DUP5 SLOAD PUSH2 0x1262 JUMP JUMPDEST DUP5 PUSH2 0x12F4 JUMP JUMPDEST PUSH1 0x20 DUP1 PUSH1 0x1F DUP4 GT PUSH1 0x1 DUP2 EQ PUSH2 0x13A5 JUMPI PUSH1 0x0 DUP5 ISZERO PUSH2 0x138D JUMPI POP DUP6 DUP4 ADD MLOAD JUMPDEST PUSH1 0x0 NOT PUSH1 0x3 DUP7 SWAP1 SHL SHR NOT AND PUSH1 0x1 DUP6 SWAP1 SHL OR DUP6 SSTORE PUSH2 0x133A JUMP JUMPDEST PUSH1 0x0 DUP6 DUP2 MSTORE PUSH1 0x20 DUP2 KECCAK256 PUSH1 0x1F NOT DUP7 AND SWAP2 JUMPDEST DUP3 DUP2 LT ISZERO PUSH2 0x13D4 JUMPI DUP9 DUP7 ADD MLOAD DUP3 SSTORE SWAP5 DUP5 ADD SWAP5 PUSH1 0x1 SWAP1 SWAP2 ADD SWAP1 DUP5 ADD PUSH2 0x13B5 JUMP JUMPDEST POP DUP6 DUP3 LT ISZERO PUSH2 0x13F2 JUMPI DUP8 DUP6 ADD MLOAD PUSH1 0x0 NOT PUSH1 0x3 DUP9 SWAP1 SHL PUSH1 0xF8 AND SHR NOT AND DUP2 SSTORE JUMPDEST POP POP POP POP POP PUSH1 0x1 SWAP1 DUP2 SHL ADD SWAP1 SSTORE POP JUMP JUMPDEST PUSH1 0x60 DUP2 ADD PUSH2 0x140F DUP6 PUSH2 0xFEA JUMP JUMPDEST SWAP4 DUP2 MSTORE PUSH1 0x20 DUP2 ADD SWAP3 SWAP1 SWAP3 MSTORE PUSH1 0x40 SWAP1 SWAP2 ADD MSTORE SWAP1 JUMP INVALID LOG2 PUSH5 0x6970667358 0x22 SLT KECCAK256 PUSH11 0x6CAA4A9EEEBB4A074C4E04 MSTORE SLOAD SSTORE NOT RETURN 0xAC SHL SDIV 0x27 DUP14 PUSH23 0xC03BF1C40AEF98072064736F6C63430008140033000000 "},"methodIdentifiers":{"DEFAULT_ADMIN_ROLE()":"a217fddf","EXECUTOR_ROLE()":"07bd0265","PROPOSER_ROLE()":"8f61f4f5","VOTER_ROLE()":"a94015c8","approvedRules(bytes32)":"8fa482bf","cancelProposal(uint256)":"e0a8f6f5","createProposal(uint8,bytes32,string)":"a45b0ab4","emergencyAction(bytes32)":"09c7e623","executeProposal(uint256)":"0d61b519","getProposal(uint256)":"c7f758a8","getRoleAdmin(bytes32)":"248a9ca3","grantRole(bytes32,address)":"2f2ff15d","hasRole(bytes32,address)":"91d14854","hasVoted(uint256,address)":"43859632","isRuleApproved(bytes32)":"fca883cb","proposalCount()":"da35c664","proposalDuration()":"30109962","proposals(uint256)":"013cf08b","renounceRole(bytes32,address)":"36568abe","requiredApprovals()":"99c1aadc","revokeRole(bytes32,address)":"d547741f","supportsInterface(bytes4)":"01ffc9a7","updateParameters(uint256,uint256)":"16128211","vote(uint256,bool)":"c9d27afe"}}}}}