{
  "_format": "hh-sol-artifact-1",
  "contractName": "Governance",
  "sourceName": "contracts/Governance.sol",
  "abi": [
    {
      "inputs": [
        {
          "internalType": "address",
          "name": "admin",
          "type": "address"
        },
        {
          "internalType": "uint256",
          "name": "_requiredApprovals",
          "type": "uint256"
        },
        {
          "internalType": "uint256",
          "name": "_proposalDuration",
          "type": "uint256"
        }
      ],
      "stateMutability": "nonpayable",
      "type": "constructor"
    },
    {
      "inputs": [],
      "name": "AccessControlBadConfirmation",
      "type": "error"
    },
    {
      "inputs": [
        {
          "internalType": "address",
          "name": "account",
          "type": "address"
        },
        {
          "internalType": "bytes32",
          "name": "neededRole",
          "type": "bytes32"
        }
      ],
      "name": "AccessControlUnauthorizedAccount",
      "type": "error"
    },
    {
      "anonymous": false,
      "inputs": [
        {
          "indexed": true,
          "internalType": "bytes32",
          "name": "actionHash",
          "type": "bytes32"
        },
        {
          "indexed": false,
          "internalType": "address",
          "name": "executor",
          "type": "address"
        },
        {
          "indexed": false,
          "internalType": "uint256",
          "name": "timestamp",
          "type": "uint256"
        }
      ],
      "name": "EmergencyActionTaken",
      "type": "event"
    },
    {
      "anonymous": false,
      "inputs": [
        {
          "indexed": true,
          "internalType": "uint256",
          "name": "proposalId",
          "type": "uint256"
        },
        {
          "indexed": false,
          "internalType": "uint256",
          "name": "timestamp",
          "type": "uint256"
        }
      ],
      "name": "ProposalCancelled",
      "type": "event"
    },
    {
      "anonymous": false,
      "inputs": [
        {
          "indexed": true,
          "internalType": "uint256",
          "name": "proposalId",
          "type": "uint256"
        },
        {
          "indexed": false,
          "internalType": "enum Governance.ProposalType",
          "name": "proposalType",
          "type": "uint8"
        },
        {
          "indexed": false,
          "internalType": "bytes32",
          "name": "contentHash",
          "type": "bytes32"
        },
        {
          "indexed": true,
          "internalType": "address",
          "name": "proposer",
          "type": "address"
        },
        {
          "indexed": false,
          "internalType": "uint256",
          "name": "expiresAt",
          "type": "uint256"
        }
      ],
      "name": "ProposalCreated",
      "type": "event"
    },
    {
      "anonymous": false,
      "inputs": [
        {
          "indexed": true,
          "internalType": "uint256",
          "name": "proposalId",
          "type": "uint256"
        },
        {
          "indexed": false,
          "internalType": "uint256",
          "name": "timestamp",
          "type": "uint256"
        }
      ],
      "name": "ProposalExecuted",
      "type": "event"
    },
    {
      "anonymous": false,
      "inputs": [
        {
          "indexed": true,
          "internalType": "uint256",
          "name": "proposalId",
          "type": "uint256"
        },
        {
          "indexed": true,
          "internalType": "address",
          "name": "voter",
          "type": "address"
        },
        {
          "indexed": false,
          "internalType": "bool",
          "name": "approved",
          "type": "bool"
        }
      ],
      "name": "ProposalVoted",
      "type": "event"
    },
    {
      "anonymous": false,
      "inputs": [
        {
          "indexed": true,
          "internalType": "bytes32",
          "name": "role",
          "type": "bytes32"
        },
        {
          "indexed": true,
          "internalType": "bytes32",
          "name": "previousAdminRole",
          "type": "bytes32"
        },
        {
          "indexed": true,
          "internalType": "bytes32",
          "name": "newAdminRole",
          "type": "bytes32"
        }
      ],
      "name": "RoleAdminChanged",
      "type": "event"
    },
    {
      "anonymous": false,
      "inputs": [
        {
          "indexed": true,
          "internalType": "bytes32",
          "name": "role",
          "type": "bytes32"
        },
        {
          "indexed": true,
          "internalType": "address",
          "name": "account",
          "type": "address"
        },
        {
          "indexed": true,
          "internalType": "address",
          "name": "sender",
          "type": "address"
        }
      ],
      "name": "RoleGranted",
      "type": "event"
    },
    {
      "anonymous": false,
      "inputs": [
        {
          "indexed": true,
          "internalType": "bytes32",
          "name": "role",
          "type": "bytes32"
        },
        {
          "indexed": true,
          "internalType": "address",
          "name": "account",
          "type": "address"
        },
        {
          "indexed": true,
          "internalType": "address",
          "name": "sender",
          "type": "address"
        }
      ],
      "name": "RoleRevoked",
      "type": "event"
    },
    {
      "anonymous": false,
      "inputs": [
        {
          "indexed": true,
          "internalType": "bytes32",
          "name": "ruleHash",
          "type": "bytes32"
        },
        {
          "indexed": false,
          "internalType": "uint256",
          "name": "proposalId",
          "type": "uint256"
        },
        {
          "indexed": false,
          "internalType": "uint256",
          "name": "timestamp",
          "type": "uint256"
        }
      ],
      "name": "RuleApproved",
      "type": "event"
    },
    {
      "inputs": [],
      "name": "DEFAULT_ADMIN_ROLE",
      "outputs": [
        {
          "internalType": "bytes32",
          "name": "",
          "type": "bytes32"
        }
      ],
      "stateMutability": "view",
      "type": "function"
    },
    {
      "inputs": [],
      "name": "EXECUTOR_ROLE",
      "outputs": [
        {
          "internalType": "bytes32",
          "name": "",
          "type": "bytes32"
        }
      ],
      "stateMutability": "view",
      "type": "function"
    },
    {
      "inputs": [],
      "name": "PROPOSER_ROLE",
      "outputs": [
        {
          "internalType": "bytes32",
          "name": "",
          "type": "bytes32"
        }
      ],
      "stateMutability": "view",
      "type": "function"
    },
    {
      "inputs": [],
      "name": "VOTER_ROLE",
      "outputs": [
        {
          "internalType": "bytes32",
          "name": "",
          "type": "bytes32"
        }
      ],
      "stateMutability": "view",
      "type": "function"
    },
    {
      "inputs": [
        {
          "internalType": "bytes32",
          "name": "",
          "type": "bytes32"
        }
      ],
      "name": "approvedRules",
      "outputs": [
        {
          "internalType": "bool",
          "name": "",
          "type": "bool"
        }
      ],
      "stateMutability": "view",
      "type": "function"
    },
    {
      "inputs": [
        {
          "internalType": "uint256",
          "name": "proposalId",
          "type": "uint256"
        }
      ],
      "name": "cancelProposal",
      "outputs": [],
      "stateMutability": "nonpayable",
      "type": "function"
    },
    {
      "inputs": [
        {
          "internalType": "enum Governance.ProposalType",
          "name": "proposalType",
          "type": "uint8"
        },
        {
          "internalType": "bytes32",
          "name": "contentHash",
          "type": "bytes32"
        },
        {
          "internalType": "string",
          "name": "description",
          "type": "string"
        }
      ],
      "name": "createProposal",
      "outputs": [
        {
          "internalType": "uint256",
          "name": "",
          "type": "uint256"
        }
      ],
      "stateMutability": "nonpayable",
      "type": "function"
    },
    {
      "inputs": [
        {
          "internalType": "bytes32",
          "name": "actionHash",
          "type": "bytes32"
        }
      ],
      "name": "emergencyAction",
      "outputs": [],
      "stateMutability": "nonpayable",
      "type": "function"
    },
    {
      "inputs": [
        {
          "internalType": "uint256",
          "name": "proposalId",
          "type": "uint256"
        }
      ],
      "name": "executeProposal",
      "outputs": [],
      "stateMutability": "nonpayable",
      "type": "function"
    },
    {
      "inputs": [
        {
          "internalType": "uint256",
          "name": "proposalId",
          "type": "uint256"
        }
      ],
      "name": "getProposal",
      "outputs": [
        {
          "internalType": "enum Governance.ProposalType",
          "name": "proposalType",
          "type": "uint8"
        },
        {
          "internalType": "enum Governance.ProposalStatus",
          "name": "status",
          "type": "uint8"
        },
        {
          "internalType": "bytes32",
          "name": "contentHash",
          "type": "bytes32"
        },
        {
          "internalType": "address",
          "name": "proposer",
          "type": "address"
        },
        {
          "internalType": "uint256",
          "name": "approvals",
          "type": "uint256"
        },
        {
          "internalType": "uint256",
          "name": "rejections",
          "type": "uint256"
        },
        {
          "internalType": "uint256",
          "name": "expiresAt",
          "type": "uint256"
        }
      ],
      "stateMutability": "view",
      "type": "function"
    },
    {
      "inputs": [
        {
          "internalType": "bytes32",
          "name": "role",
          "type": "bytes32"
        }
      ],
      "name": "getRoleAdmin",
      "outputs": [
        {
          "internalType": "bytes32",
          "name": "",
          "type": "bytes32"
        }
      ],
      "stateMutability": "view",
      "type": "function"
    },
    {
      "inputs": [
        {
          "internalType": "bytes32",
          "name": "role",
          "type": "bytes32"
        },
        {
          "internalType": "address",
          "name": "account",
          "type": "address"
        }
      ],
      "name": "grantRole",
      "outputs": [],
      "stateMutability": "nonpayable",
      "type": "function"
    },
    {
      "inputs": [
        {
          "internalType": "bytes32",
          "name": "role",
          "type": "bytes32"
        },
        {
          "internalType": "address",
          "name": "account",
          "type": "address"
        }
      ],
      "name": "hasRole",
      "outputs": [
        {
          "internalType": "bool",
          "name": "",
          "type": "bool"
        }
      ],
      "stateMutability": "view",
      "type": "function"
    },
    {
      "inputs": [
        {
          "internalType": "uint256",
          "name": "",
          "type": "uint256"
        },
        {
          "internalType": "address",
          "name": "",
          "type": "address"
        }
      ],
      "name": "hasVoted",
      "outputs": [
        {
          "internalType": "bool",
          "name": "",
          "type": "bool"
        }
      ],
      "stateMutability": "view",
      "type": "function"
    },
    {
      "inputs": [
        {
          "internalType": "bytes32",
          "name": "ruleHash",
          "type": "bytes32"
        }
      ],
      "name": "isRuleApproved",
      "outputs": [
        {
          "internalType": "bool",
          "name": "",
          "type": "bool"
        }
      ],
      "stateMutability": "view",
      "type": "function"
    },
    {
      "inputs": [],
      "name": "proposalCount",
      "outputs": [
        {
          "internalType": "uint256",
          "name": "",
          "type": "uint256"
        }
      ],
      "stateMutability": "view",
      "type": "function"
    },
    {
      "inputs": [],
      "name": "proposalDuration",
      "outputs": [
        {
          "internalType": "uint256",
          "name": "",
          "type": "uint256"
        }
      ],
      "stateMutability": "view",
      "type": "function"
    },
    {
      "inputs": [
        {
          "internalType": "uint256",
          "name": "",
          "type": "uint256"
        }
      ],
      "name": "proposals",
      "outputs": [
        {
          "internalType": "enum Governance.ProposalType",
          "name": "proposalType",
          "type": "uint8"
        },
        {
          "internalType": "enum Governance.ProposalStatus",
          "name": "status",
          "type": "uint8"
        },
        {
          "internalType": "bytes32",
          "name": "contentHash",
          "type": "bytes32"
        },
        {
          "internalType": "address",
          "name": "proposer",
          "type": "address"
        },
        {
          "internalType": "uint256",
          "name": "createdAt",
          "type": "uint256"
        },
        {
          "internalType": "uint256",
          "name": "expiresAt",
          "type": "uint256"
        },
        {
          "internalType": "uint256",
          "name": "approvals",
          "type": "uint256"
        },
        {
          "internalType": "uint256",
          "name": "rejections",
          "type": "uint256"
        },
        {
          "internalType": "string",
          "name": "description",
          "type": "string"
        }
      ],
      "stateMutability": "view",
      "type": "function"
    },
    {
      "inputs": [
        {
          "internalType": "bytes32",
          "name": "role",
          "type": "bytes32"
        },
        {
          "internalType": "address",
          "name": "callerConfirmation",
          "type": "address"
        }
      ],
      "name": "renounceRole",
      "outputs": [],
      "stateMutability": "nonpayable",
      "type": "function"
    },
    {
      "inputs": [],
      "name": "requiredApprovals",
      "outputs": [
        {
          "internalType": "uint256",
          "name": "",
          "type": "uint256"
        }
      ],
      "stateMutability": "view",
      "type": "function"
    },
    {
      "inputs": [
        {
          "internalType": "bytes32",
          "name": "role",
          "type": "bytes32"
        },
        {
          "internalType": "address",
          "name": "account",
          "type": "address"
        }
      ],
      "name": "revokeRole",
      "outputs": [],
      "stateMutability": "nonpayable",
      "type": "function"
    },
    {
      "inputs": [
        {
          "internalType": "bytes4",
          "name": "interfaceId",
          "type": "bytes4"
        }
      ],
      "name": "supportsInterface",
      "outputs": [
        {
          "internalType": "bool",
          "name": "",
          "type": "bool"
        }
      ],
      "stateMutability": "view",
      "type": "function"
    },
    {
      "inputs": [
        {
          "internalType": "uint256",
          "name": "_requiredApprovals",
          "type": "uint256"
        },
        {
          "internalType": "uint256",
          "name": "_proposalDuration",
          "type": "uint256"
        }
      ],
      "name": "updateParameters",
      "outputs": [],
      "stateMutability": "nonpayable",
      "type": "function"
    },
    {
      "inputs": [
        {
          "internalType": "uint256",
          "name": "proposalId",
          "type": "uint256"
        },
        {
          "internalType": "bool",
          "name": "approve",
          "type": "bool"
        }
      ],
      "name": "vote",
      "outputs": [],
      "stateMutability": "nonpayable",
      "type": "function"
    }
  ],
  "bytecode": "0x60806040523480156200001157600080fd5b506040516200165b3803806200165b8339810160408190526200003491620001ad565b62000041600084620000fe565b506200006e7fb09aa5aeb3702cfd50b6b62bc4532604938f21248a27a1d5ca736082b6819cc184620000fe565b506200009b7f72c3eec1760bf69946625c2d4fb8e44e2c806345041960b434674fb9ab3976cf84620000fe565b50620000c87fd8aa0f3194971a2a116679f7c2090f6939c8d4e01a2a8d7e41d55e5351469e6384620000fe565b5060008211620000da576001620000dc565b815b60055580620000ef5762093a80620000f1565b805b60065550620001f2915050565b6000828152602081815260408083206001600160a01b038516845290915281205460ff16620001a3576000838152602081815260408083206001600160a01b03861684529091529020805460ff191660011790556200015a3390565b6001600160a01b0316826001600160a01b0316847f2f8788117e7eff1d82e926ec794901d17c78024a50270940304540a733656f0d60405160405180910390a4506001620001a7565b5060005b92915050565b600080600060608486031215620001c357600080fd5b83516001600160a01b0381168114620001db57600080fd5b602085015160409095015190969495509392505050565b61145980620002026000396000f3fe608060405234801561001057600080fd5b50600436106101585760003560e01c80638fa482bf116100c3578063c7f758a81161007c578063c7f758a814610349578063c9d27afe1461036f578063d547741f14610382578063da35c66414610395578063e0a8f6f51461039e578063fca883cb146103b157600080fd5b80638fa482bf146102c857806391d14854146102eb57806399c1aadc146102fe578063a217fddf14610307578063a45b0ab41461030f578063a94015c81461032257600080fd5b8063248a9ca311610115578063248a9ca3146102215780632f2ff15d14610244578063301099621461025757806336568abe1461026057806343859632146102735780638f61f4f5146102a157600080fd5b8063013cf08b1461015d57806301ffc9a71461018e57806307bd0265146101b157806309c7e623146101e65780630d61b519146101fb578063161282111461020e575b600080fd5b61017061016b366004610fbb565b6103d4565b60405161018599989796959493929190611008565b60405180910390f35b6101a161019c3660046110b3565b6104b1565b6040519015158152602001610185565b6101d87fd8aa0f3194971a2a116679f7c2090f6939c8d4e01a2a8d7e41d55e5351469e6381565b604051908152602001610185565b6101f96101f4366004610fbb565b6104e8565b005b6101f9610209366004610fbb565b610532565b6101f961021c3660046110e4565b61069a565b6101d861022f366004610fbb565b60009081526020819052604090206001015490565b6101f9610252366004611122565b6106b1565b6101d860065481565b6101f961026e366004611122565b6106dc565b6101a1610281366004611122565b600260209081526000928352604080842090915290825290205460ff1681565b6101d87fb09aa5aeb3702cfd50b6b62bc4532604938f21248a27a1d5ca736082b6819cc181565b6101a16102d6366004610fbb565b60036020526000908152604090205460ff1681565b6101a16102f9366004611122565b610714565b6101d860055481565b6101d8600081565b6101d861031d36600461114e565b61073d565b6101d87f72c3eec1760bf69946625c2d4fb8e44e2c806345041960b434674fb9ab3976cf81565b61035c610357366004610fbb565b610949565b60405161018597969594939291906111db565b6101f961037d36600461122d565b610aec565b6101f9610390366004611122565b610d0f565b6101d860045481565b6101f96103ac366004610fbb565b610d34565b6101a16103bf366004610fbb565b60009081526003602052604090205460ff1690565b60016020819052600091825260409091208054918101546002820154600383015460048401546005850154600686015460078701805460ff808b169a610100900416986001600160a01b0390971696919061042e90611262565b80601f016020809104026020016040519081016040528092919081815260200182805461045a90611262565b80156104a75780601f1061047c576101008083540402835291602001916104a7565b820191906000526020600020905b81548152906001019060200180831161048a57829003601f168201915b5050505050905089565b60006001600160e01b03198216637965db0b60e01b14806104e257506301ffc9a760e01b6001600160e01b03198316145b92915050565b60006104f381610e74565b6040805133815242602082015283917fbe91f61379c1807a8d577094a87febfc469eeecc59314dfcf537bab0f1736eb691015b60405180910390a25050565b7fd8aa0f3194971a2a116679f7c2090f6939c8d4e01a2a8d7e41d55e5351469e6361055c81610e74565b6000828152600160208190526040909120908154610100900460ff16600481111561058957610589610fd4565b146105ca5760405162461bcd60e51b815260206004820152600c60248201526b139bdd08185c1c1c9bdd995960a21b60448201526064015b60405180910390fd5b805461030061ff0019821617825560009060ff1660048111156105ef576105ef610fd4565b0361065b576001818101805460009081526003602052604090819020805460ff19169093179092555490517fcb9e029f3a366069adb098585630d8d31769a11e1b3eb50f8defcea4bc49ce7a906106529086904290918252602082015260400190565b60405180910390a25b827ff758fc91e01b00ea6b4a6138756f7f28e021f9bf21db6dbf8c36c88eb737257a4260405161068d91815260200190565b60405180910390a2505050565b60006106a581610e74565b50600591909155600655565b6000828152602081905260409020600101546106cc81610e74565b6106d68383610e81565b50505050565b6001600160a01b03811633146107055760405163334bd91960e11b815260040160405180910390fd5b61070f8282610f13565b505050565b6000918252602082815260408084206001600160a01b0393909316845291905290205460ff1690565b60007fb09aa5aeb3702cfd50b6b62bc4532604938f21248a27a1d5ca736082b6819cc161076981610e74565b600480546000918261077a836112b2565b91905055905060405180610120016040528088600481111561079e5761079e610fd4565b815260200160008152602001878152602001336001600160a01b03168152602001428152602001600654426107d391906112cb565b8152602001600081526020016000815260200186868080601f01602080910402602001604051908101604052809392919081815260200183838082843760009201829052509390945250508381526001602081905260409091208351815491935091839160ff19169083600481111561084e5761084e610fd4565b021790555060208201518154829061ff00191661010083600481111561087657610876610fd4565b02179055506040820151600182015560608201516002820180546001600160a01b0319166001600160a01b039092169190911790556080820151600382015560a0820151600482015560c0820151600582015560e0820151600682015561010082015160078201906108e89082611342565b50905050336001600160a01b0316817fac4968d741b5b22faa117f2cd6e4b138b0af9117ebe9575d69f6a79723628bc189896006544261092891906112cb565b60405161093793929190611402565b60405180910390a39695505050505050565b60008181526001602052604080822081516101208101909252805483928392839283928392839283929190829060ff16600481111561098a5761098a610fd4565b600481111561099b5761099b610fd4565b81528154602090910190610100900460ff1660048111156109be576109be610fd4565b60048111156109cf576109cf610fd4565b81526001820154602082015260028201546001600160a01b031660408201526003820154606082015260048201546080820152600582015460a0820152600682015460c082015260078201805460e090920191610a2b90611262565b80601f0160208091040260200160405190810160405280929190818152602001828054610a5790611262565b8015610aa45780601f10610a7957610100808354040283529160200191610aa4565b820191906000526020600020905b815481529060010190602001808311610a8757829003601f168201915b505050505081525050905080600001518160200151826040015183606001518460c001518560e001518660a00151975097509750975097509750975050919395979092949650565b7f72c3eec1760bf69946625c2d4fb8e44e2c806345041960b434674fb9ab3976cf610b1681610e74565b60008381526001602052604090206003810154610b6a5760405162461bcd60e51b8152602060048201526012602482015271141c9bdc1bdcd85b081b9bdd08199bdd5b9960721b60448201526064016105c1565b60008154610100900460ff166004811115610b8757610b87610fd4565b14610bc25760405162461bcd60e51b815260206004820152600b60248201526a4e6f742070656e64696e6760a81b60448201526064016105c1565b80600401544210610bff5760405162461bcd60e51b8152602060048201526007602482015266115e1c1a5c995960ca1b60448201526064016105c1565b600084815260026020908152604080832033845290915290205460ff1615610c595760405162461bcd60e51b815260206004820152600d60248201526c105b1c9958591e481d9bdd1959609a1b60448201526064016105c1565b60008481526002602090815260408083203384529091529020805460ff191660011790558215610c9f57600581018054906000610c95836112b2565b9190505550610cb7565b600681018054906000610cb1836112b2565b91905055505b6040518315158152339085907f0def80f9a3b4c7a4251442658ccf516bf33ea4acaf31638fc6da8ebdb0f64c729060200160405180910390a36005548160050154106106d657805461ff001916610100179055505050565b600082815260208190526040902060010154610d2a81610e74565b6106d68383610f13565b60008181526001602052604090206003810154610d7f5760405162461bcd60e51b8152602060048201526009602482015268139bdd08199bdd5b9960ba1b60448201526064016105c1565b60028101546001600160a01b0316331480610da05750610da0600033610714565b610ddd5760405162461bcd60e51b815260206004820152600e60248201526d139bdd08185d5d1a1bdc9a5e995960921b60448201526064016105c1565b60008154610100900460ff166004811115610dfa57610dfa610fd4565b14610e355760405162461bcd60e51b815260206004820152600b60248201526a4e6f742070656e64696e6760a81b60448201526064016105c1565b805461ff00191661040017815560405142815282907f5be67b1762c29673dceae3c1de04ecbf702ab0755c93f0fcc8aec5252df5a2b490602001610526565b610e7e8133610f7e565b50565b6000610e8d8383610714565b610f0b576000838152602081815260408083206001600160a01b03861684529091529020805460ff19166001179055610ec33390565b6001600160a01b0316826001600160a01b0316847f2f8788117e7eff1d82e926ec794901d17c78024a50270940304540a733656f0d60405160405180910390a45060016104e2565b5060006104e2565b6000610f1f8383610714565b15610f0b576000838152602081815260408083206001600160a01b0386168085529252808320805460ff1916905551339286917ff6391f5c32d9c69d2a47ea670b442974b53935d1edc7fd64eb21e047a839171b9190a45060016104e2565b610f888282610714565b610fb75760405163e2517d3f60e01b81526001600160a01b0382166004820152602481018390526044016105c1565b5050565b600060208284031215610fcd57600080fd5b5035919050565b634e487b7160e01b600052602160045260246000fd5b60058110610e7e57634e487b7160e01b600052602160045260246000fd5b60006101206110168c610fea565b8b835260206110248c610fea565b8b818501528a604085015260018060a01b038a1660608501528860808501528760a08501528660c08501528560e08501528161010085015284518083860152600092505b8083101561108757858301820151858401610140015291810191611068565b6101409250600083828701015282601f19601f83011686010193505050509a9950505050505050505050565b6000602082840312156110c557600080fd5b81356001600160e01b0319811681146110dd57600080fd5b9392505050565b600080604083850312156110f757600080fd5b50508035926020909101359150565b80356001600160a01b038116811461111d57600080fd5b919050565b6000806040838503121561113557600080fd5b8235915061114560208401611106565b90509250929050565b6000806000806060858703121561116457600080fd5b84356005811061117357600080fd5b935060208501359250604085013567ffffffffffffffff8082111561119757600080fd5b818701915087601f8301126111ab57600080fd5b8135818111156111ba57600080fd5b8860208285010111156111cc57600080fd5b95989497505060200194505050565b60e081016111e889610fea565b8882526111f488610fea565b602082019790975260408101959095526001600160a01b03939093166060850152608084019190915260a083015260c090910152919050565b6000806040838503121561124057600080fd5b823591506020830135801515811461125757600080fd5b809150509250929050565b600181811c9082168061127657607f821691505b60208210810361129657634e487b7160e01b600052602260045260246000fd5b50919050565b634e487b7160e01b600052601160045260246000fd5b6000600182016112c4576112c461129c565b5060010190565b808201808211156104e2576104e261129c565b634e487b7160e01b600052604160045260246000fd5b601f82111561070f57600081815260208120601f850160051c8101602086101561131b5750805b601f850160051c820191505b8181101561133a57828155600101611327565b505050505050565b815167ffffffffffffffff81111561135c5761135c6112de565b6113708161136a8454611262565b846112f4565b602080601f8311600181146113a5576000841561138d5750858301515b600019600386901b1c1916600185901b17855561133a565b600085815260208120601f198616915b828110156113d4578886015182559484019460019091019084016113b5565b50858210156113f25787850151600019600388901b60f8161c191681555b5050505050600190811b01905550565b6060810161140f85610fea565b93815260208101929092526040909101529056fea26469706673582212206a6caa4a9eeebb4a074c4e0452545519f3ac1b05278d76c03bf1c40aef98072064736f6c63430008140033",
  "linkReferences": {},
  "deployedLinkReferences": {}
}