{
  "_format": "hh-sol-artifact-1",
  "contractName": "SecurityAudit",
  "sourceName": "contracts/SecurityAudit.sol",
  "abi": [
    {
      "inputs": [
        {
          "internalType": "address",
          "name": "admin",
          "type": "address"
        }
      ],
      "stateMutability": "nonpayable",
      "type": "constructor"
    },
    {
      "inputs": [],
      "name": "AccessControlBadConfirmation",
      "type": "error"
    },
    {
      "inputs": [
        {
          "internalType": "address",
          "name": "account",
          "type": "address"
        },
        {
          "internalType": "bytes32",
          "name": "neededRole",
          "type": "bytes32"
        }
      ],
      "name": "AccessControlUnauthorizedAccount",
      "type": "error"
    },
    {
      "anonymous": false,
      "inputs": [
        {
          "indexed": true,
          "internalType": "bytes32",
          "name": "incidentId",
          "type": "bytes32"
        },
        {
          "indexed": false,
          "internalType": "uint8",
          "name": "action",
          "type": "uint8"
        },
        {
          "indexed": true,
          "internalType": "bytes32",
          "name": "modelId",
          "type": "bytes32"
        },
        {
          "indexed": false,
          "internalType": "uint8",
          "name": "riskScore",
          "type": "uint8"
        },
        {
          "indexed": false,
          "internalType": "uint256",
          "name": "timestamp",
          "type": "uint256"
        },
        {
          "indexed": true,
          "internalType": "address",
          "name": "reporter",
          "type": "address"
        }
      ],
      "name": "IncidentLogged",
      "type": "event"
    },
    {
      "anonymous": false,
      "inputs": [
        {
          "indexed": true,
          "internalType": "bytes32",
          "name": "modelId",
          "type": "bytes32"
        },
        {
          "indexed": false,
          "internalType": "string",
          "name": "version",
          "type": "string"
        },
        {
          "indexed": false,
          "internalType": "uint256",
          "name": "timestamp",
          "type": "uint256"
        }
      ],
      "name": "ModelRegistered",
      "type": "event"
    },
    {
      "anonymous": false,
      "inputs": [
        {
          "indexed": true,
          "internalType": "bytes32",
          "name": "role",
          "type": "bytes32"
        },
        {
          "indexed": true,
          "internalType": "bytes32",
          "name": "previousAdminRole",
          "type": "bytes32"
        },
        {
          "indexed": true,
          "internalType": "bytes32",
          "name": "newAdminRole",
          "type": "bytes32"
        }
      ],
      "name": "RoleAdminChanged",
      "type": "event"
    },
    {
      "anonymous": false,
      "inputs": [
        {
          "indexed": true,
          "internalType": "bytes32",
          "name": "role",
          "type": "bytes32"
        },
        {
          "indexed": true,
          "internalType": "address",
          "name": "account",
          "type": "address"
        },
        {
          "indexed": true,
          "internalType": "address",
          "name": "sender",
          "type": "address"
        }
      ],
      "name": "RoleGranted",
      "type": "event"
    },
    {
      "anonymous": false,
      "inputs": [
        {
          "indexed": true,
          "internalType": "bytes32",
          "name": "role",
          "type": "bytes32"
        },
        {
          "indexed": true,
          "internalType": "address",
          "name": "account",
          "type": "address"
        },
        {
          "indexed": true,
          "internalType": "address",
          "name": "sender",
          "type": "address"
        }
      ],
      "name": "RoleRevoked",
      "type": "event"
    },
    {
      "inputs": [],
      "name": "AUDITOR_ROLE",
      "outputs": [
        {
          "internalType": "bytes32",
          "name": "",
          "type": "bytes32"
        }
      ],
      "stateMutability": "view",
      "type": "function"
    },
    {
      "inputs": [],
      "name": "DEFAULT_ADMIN_ROLE",
      "outputs": [
        {
          "internalType": "bytes32",
          "name": "",
          "type": "bytes32"
        }
      ],
      "stateMutability": "view",
      "type": "function"
    },
    {
      "inputs": [],
      "name": "PUBLISHER_ROLE",
      "outputs": [
        {
          "internalType": "bytes32",
          "name": "",
          "type": "bytes32"
        }
      ],
      "stateMutability": "view",
      "type": "function"
    },
    {
      "inputs": [
        {
          "internalType": "bytes32",
          "name": "incidentId",
          "type": "bytes32"
        }
      ],
      "name": "getIncidentTime",
      "outputs": [
        {
          "internalType": "uint256",
          "name": "",
          "type": "uint256"
        }
      ],
      "stateMutability": "view",
      "type": "function"
    },
    {
      "inputs": [
        {
          "internalType": "bytes32",
          "name": "role",
          "type": "bytes32"
        }
      ],
      "name": "getRoleAdmin",
      "outputs": [
        {
          "internalType": "bytes32",
          "name": "",
          "type": "bytes32"
        }
      ],
      "stateMutability": "view",
      "type": "function"
    },
    {
      "inputs": [],
      "name": "getStats",
      "outputs": [
        {
          "internalType": "uint256",
          "name": "total",
          "type": "uint256"
        },
        {
          "internalType": "uint256",
          "name": "lastTime",
          "type": "uint256"
        }
      ],
      "stateMutability": "view",
      "type": "function"
    },
    {
      "inputs": [
        {
          "internalType": "bytes32",
          "name": "role",
          "type": "bytes32"
        },
        {
          "internalType": "address",
          "name": "account",
          "type": "address"
        }
      ],
      "name": "grantRole",
      "outputs": [],
      "stateMutability": "nonpayable",
      "type": "function"
    },
    {
      "inputs": [
        {
          "internalType": "bytes32",
          "name": "role",
          "type": "bytes32"
        },
        {
          "internalType": "address",
          "name": "account",
          "type": "address"
        }
      ],
      "name": "hasRole",
      "outputs": [
        {
          "internalType": "bool",
          "name": "",
          "type": "bool"
        }
      ],
      "stateMutability": "view",
      "type": "function"
    },
    {
      "inputs": [
        {
          "internalType": "bytes32",
          "name": "incidentId",
          "type": "bytes32"
        }
      ],
      "name": "incidentExists",
      "outputs": [
        {
          "internalType": "bool",
          "name": "",
          "type": "bool"
        }
      ],
      "stateMutability": "view",
      "type": "function"
    },
    {
      "inputs": [],
      "name": "lastIncidentTime",
      "outputs": [
        {
          "internalType": "uint256",
          "name": "",
          "type": "uint256"
        }
      ],
      "stateMutability": "view",
      "type": "function"
    },
    {
      "inputs": [
        {
          "internalType": "bytes32",
          "name": "incidentId",
          "type": "bytes32"
        },
        {
          "internalType": "uint8",
          "name": "action",
          "type": "uint8"
        },
        {
          "internalType": "bytes32",
          "name": "modelId",
          "type": "bytes32"
        },
        {
          "internalType": "uint8",
          "name": "riskScore",
          "type": "uint8"
        }
      ],
      "name": "logIncident",
      "outputs": [],
      "stateMutability": "nonpayable",
      "type": "function"
    },
    {
      "inputs": [
        {
          "internalType": "bytes32[]",
          "name": "incidentIds",
          "type": "bytes32[]"
        },
        {
          "internalType": "uint8[]",
          "name": "actions",
          "type": "uint8[]"
        },
        {
          "internalType": "bytes32",
          "name": "modelId",
          "type": "bytes32"
        },
        {
          "internalType": "uint8[]",
          "name": "riskScores",
          "type": "uint8[]"
        }
      ],
      "name": "logIncidentBatch",
      "outputs": [],
      "stateMutability": "nonpayable",
      "type": "function"
    },
    {
      "inputs": [
        {
          "internalType": "bytes32",
          "name": "",
          "type": "bytes32"
        }
      ],
      "name": "loggedAt",
      "outputs": [
        {
          "internalType": "uint256",
          "name": "",
          "type": "uint256"
        }
      ],
      "stateMutability": "view",
      "type": "function"
    },
    {
      "inputs": [
        {
          "internalType": "bytes32",
          "name": "modelId",
          "type": "bytes32"
        },
        {
          "internalType": "string",
          "name": "version",
          "type": "string"
        }
      ],
      "name": "registerModel",
      "outputs": [],
      "stateMutability": "nonpayable",
      "type": "function"
    },
    {
      "inputs": [
        {
          "internalType": "bytes32",
          "name": "",
          "type": "bytes32"
        }
      ],
      "name": "registeredModels",
      "outputs": [
        {
          "internalType": "bool",
          "name": "",
          "type": "bool"
        }
      ],
      "stateMutability": "view",
      "type": "function"
    },
    {
      "inputs": [
        {
          "internalType": "bytes32",
          "name": "role",
          "type": "bytes32"
        },
        {
          "internalType": "address",
          "name": "callerConfirmation",
          "type": "address"
        }
      ],
      "name": "renounceRole",
      "outputs": [],
      "stateMutability": "nonpayable",
      "type": "function"
    },
    {
      "inputs": [
        {
          "internalType": "bytes32",
          "name": "role",
          "type": "bytes32"
        },
        {
          "internalType": "address",
          "name": "account",
          "type": "address"
        }
      ],
      "name": "revokeRole",
      "outputs": [],
      "stateMutability": "nonpayable",
      "type": "function"
    },
    {
      "inputs": [
        {
          "internalType": "bytes4",
          "name": "interfaceId",
          "type": "bytes4"
        }
      ],
      "name": "supportsInterface",
      "outputs": [
        {
          "internalType": "bool",
          "name": "",
          "type": "bool"
        }
      ],
      "stateMutability": "view",
      "type": "function"
    },
    {
      "inputs": [],
      "name": "totalIncidents",
      "outputs": [
        {
          "internalType": "uint256",
          "name": "",
          "type": "uint256"
        }
      ],
      "stateMutability": "view",
      "type": "function"
    }
  ],
  "bytecode": "0x608060405234801561001057600080fd5b50604051610dff380380610dff83398101604081905261002f91610143565b61003a600082610097565b506100657f0ac90c257048ef1c3e387c26d4a99bde06894efbcbff862dc1885c3a9319308a82610097565b506100907f59a1c48e5837ad7a7f3dcedcbe129bf3249ec4fbf651fd4f5e2600ead39fe2f582610097565b5050610173565b6000828152602081815260408083206001600160a01b038516845290915281205460ff16610139576000838152602081815260408083206001600160a01b03861684529091529020805460ff191660011790556100f13390565b6001600160a01b0316826001600160a01b0316847f2f8788117e7eff1d82e926ec794901d17c78024a50270940304540a733656f0d60405160405180910390a450600161013d565b5060005b92915050565b60006020828403121561015557600080fd5b81516001600160a01b038116811461016c57600080fd5b9392505050565b610c7d806101826000396000f3fe608060405234801561001057600080fd5b50600436106101215760003560e01c80637910b05a116100ad578063d547741f11610071578063d547741f1461027f578063d8f4b6fd14610292578063d96a593d146102a7578063da73bf9e146102c9578063f6d9592d146102dc57600080fd5b80637910b05a1461022057806391d14854146102295780639bfd1d5a1461023c578063a217fddf1461025c578063c59d48471461026457600080fd5b80632f2ff15d116100f45780632f2ff15d1461019d57806336568abe146101b05780633fdb2fe1146101c35780634c259f94146101d65780636e1d616e146101f957600080fd5b806301ffc9a7146101265780631684341b1461014e5780631f5619ef14610165578063248a9ca31461017a575b600080fd5b610139610134366004610948565b6102fc565b60405190151581526020015b60405180910390f35b61015760035481565b604051908152602001610145565b6101786101733660046109c5565b610333565b005b610157610188366004610a69565b60009081526020819052604090206001015490565b6101786101ab366004610a82565b61056b565b6101786101be366004610a82565b610596565b6101786101d1366004610ad4565b6105ce565b6101396101e4366004610a69565b60046020526000908152604090205460ff1681565b6101577f59a1c48e5837ad7a7f3dcedcbe129bf3249ec4fbf651fd4f5e2600ead39fe2f581565b61015760025481565b610139610237366004610a82565b61073e565b61015761024a366004610a69565b60009081526001602052604090205490565b610157600081565b60025460035460408051928352602083019190915201610145565b61017861028d366004610a82565b610767565b610157600080516020610c2883398151915281565b6101396102b5366004610a69565b600090815260016020526040902054151590565b6101786102d7366004610b1a565b61078c565b6101576102ea366004610a69565b60016020526000908152604090205481565b60006001600160e01b03198216637965db0b60e01b148061032d57506301ffc9a760e01b6001600160e01b03198316145b92915050565b600080516020610c2883398151915261034b81610801565b8685146103905760405162461bcd60e51b815260206004820152600e60248201526d082e4e4c2f240dad2e6dac2e8c6d60931b60448201526064015b60405180910390fd5b8682146103d05760405162461bcd60e51b815260206004820152600e60248201526d082e4e4c2f240dad2e6dac2e8c6d60931b6044820152606401610387565b60328711156104145760405162461bcd60e51b815260206004820152601060248201526f09ac2f0406a6040e0cae440c4c2e8c6d60831b6044820152606401610387565b60005b8781101561055c57600160008a8a8481811061043557610435610b96565b9050602002013581526020019081526020016000205460000361054a5742600160008b8b8581811061046957610469610b96565b905060200201358152602001908152602001600020819055506002600081548092919061049590610bac565b90915550339050858a8a848181106104af576104af610b96565b905060200201357f81d7058ebd3e4c965e47c7a4932c7691c1c64c93aaab32f793a5e0f3fc565e328a8a868181106104e9576104e9610b96565b90506020020160208101906104fe9190610bd3565b88888781811061051057610510610b96565b90506020020160208101906105259190610bd3565b6040805160ff9384168152929091166020830152429082015260600160405180910390a45b8061055481610bac565b915050610417565b50504260035550505050505050565b60008281526020819052604090206001015461058681610801565b610590838361080e565b50505050565b6001600160a01b03811633146105bf5760405163334bd91960e11b815260040160405180910390fd5b6105c982826108a0565b505050565b600080516020610c288339815191526105e681610801565b600085815260016020526040902054156106335760405162461bcd60e51b815260206004820152600e60248201526d105b1c9958591e481b1bd9d9d95960921b6044820152606401610387565b60038460ff1611156106785760405162461bcd60e51b815260206004820152600e60248201526d24b73b30b634b21030b1ba34b7b760911b6044820152606401610387565b60648260ff1611156106c15760405162461bcd60e51b8152602060048201526012602482015271496e76616c6964207269736b2073636f726560701b6044820152606401610387565b600085815260016020526040812042905560028054916106e083610bac565b90915550504260038190556040805160ff808816825285166020820152908101919091523390849087907f81d7058ebd3e4c965e47c7a4932c7691c1c64c93aaab32f793a5e0f3fc565e329060600160405180910390a45050505050565b6000918252602082815260408084206001600160a01b0393909316845291905290205460ff1690565b60008281526020819052604090206001015461078281610801565b61059083836108a0565b600080516020610c288339815191526107a481610801565b60008481526004602052604090819020805460ff191660011790555184907fcae6bd9a541d77dc7bbc864b8383d075d0e8b52827edb41ec9083c918c3601ae906107f390869086904290610bee565b60405180910390a250505050565b61080b813361090b565b50565b600061081a838361073e565b610898576000838152602081815260408083206001600160a01b03861684529091529020805460ff191660011790556108503390565b6001600160a01b0316826001600160a01b0316847f2f8788117e7eff1d82e926ec794901d17c78024a50270940304540a733656f0d60405160405180910390a450600161032d565b50600061032d565b60006108ac838361073e565b15610898576000838152602081815260408083206001600160a01b0386168085529252808320805460ff1916905551339286917ff6391f5c32d9c69d2a47ea670b442974b53935d1edc7fd64eb21e047a839171b9190a450600161032d565b610915828261073e565b6109445760405163e2517d3f60e01b81526001600160a01b038216600482015260248101839052604401610387565b5050565b60006020828403121561095a57600080fd5b81356001600160e01b03198116811461097257600080fd5b9392505050565b60008083601f84011261098b57600080fd5b50813567ffffffffffffffff8111156109a357600080fd5b6020830191508360208260051b85010111156109be57600080fd5b9250929050565b60008060008060008060006080888a0312156109e057600080fd5b873567ffffffffffffffff808211156109f857600080fd5b610a048b838c01610979565b909950975060208a0135915080821115610a1d57600080fd5b610a298b838c01610979565b909750955060408a0135945060608a0135915080821115610a4957600080fd5b50610a568a828b01610979565b989b979a50959850939692959293505050565b600060208284031215610a7b57600080fd5b5035919050565b60008060408385031215610a9557600080fd5b8235915060208301356001600160a01b0381168114610ab357600080fd5b809150509250929050565b803560ff81168114610acf57600080fd5b919050565b60008060008060808587031215610aea57600080fd5b84359350610afa60208601610abe565b925060408501359150610b0f60608601610abe565b905092959194509250565b600080600060408486031215610b2f57600080fd5b83359250602084013567ffffffffffffffff80821115610b4e57600080fd5b818601915086601f830112610b6257600080fd5b813581811115610b7157600080fd5b876020828501011115610b8357600080fd5b6020830194508093505050509250925092565b634e487b7160e01b600052603260045260246000fd5b600060018201610bcc57634e487b7160e01b600052601160045260246000fd5b5060010190565b600060208284031215610be557600080fd5b61097282610abe565b604081528260408201528284606083013760006060848301015260006060601f19601f860116830101905082602083015294935050505056fe0ac90c257048ef1c3e387c26d4a99bde06894efbcbff862dc1885c3a9319308aa2646970667358221220b90bfa9d32847eef952910feaf567b04c149071066a79b146ad2e27f91fcecae64736f6c63430008140033",
  "linkReferences": {},
  "deployedLinkReferences": {}
}