{
  "_format": "hh-sol-artifact-1",
  "contractName": "NodescryptAudit",
  "sourceName": "contracts/NodescryptAudit.sol",
  "abi": [
    {
      "inputs": [],
      "stateMutability": "nonpayable",
      "type": "constructor"
    },
    {
      "anonymous": false,
      "inputs": [
        {
          "indexed": true,
          "internalType": "address",
          "name": "oldAdmin",
          "type": "address"
        },
        {
          "indexed": true,
          "internalType": "address",
          "name": "newAdmin",
          "type": "address"
        }
      ],
      "name": "AdminTransferred",
      "type": "event"
    },
    {
      "anonymous": false,
      "inputs": [
        {
          "indexed": true,
          "internalType": "bytes32",
          "name": "incidentId",
          "type": "bytes32"
        },
        {
          "indexed": false,
          "internalType": "uint8",
          "name": "action",
          "type": "uint8"
        },
        {
          "indexed": false,
          "internalType": "bytes32",
          "name": "modelId",
          "type": "bytes32"
        },
        {
          "indexed": true,
          "internalType": "address",
          "name": "reporter",
          "type": "address"
        },
        {
          "indexed": false,
          "internalType": "uint256",
          "name": "timestamp",
          "type": "uint256"
        }
      ],
      "name": "IncidentLogged",
      "type": "event"
    },
    {
      "anonymous": false,
      "inputs": [
        {
          "indexed": true,
          "internalType": "address",
          "name": "node",
          "type": "address"
        }
      ],
      "name": "NodeAuthorized",
      "type": "event"
    },
    {
      "anonymous": false,
      "inputs": [
        {
          "indexed": true,
          "internalType": "address",
          "name": "node",
          "type": "address"
        }
      ],
      "name": "NodeRevoked",
      "type": "event"
    },
    {
      "inputs": [],
      "name": "admin",
      "outputs": [
        {
          "internalType": "address",
          "name": "",
          "type": "address"
        }
      ],
      "stateMutability": "view",
      "type": "function"
    },
    {
      "inputs": [
        {
          "internalType": "address",
          "name": "node",
          "type": "address"
        }
      ],
      "name": "authorizeNode",
      "outputs": [],
      "stateMutability": "nonpayable",
      "type": "function"
    },
    {
      "inputs": [
        {
          "internalType": "address",
          "name": "",
          "type": "address"
        }
      ],
      "name": "authorizedNodes",
      "outputs": [
        {
          "internalType": "bool",
          "name": "",
          "type": "bool"
        }
      ],
      "stateMutability": "view",
      "type": "function"
    },
    {
      "inputs": [
        {
          "internalType": "bytes32",
          "name": "incidentId",
          "type": "bytes32"
        }
      ],
      "name": "getIncident",
      "outputs": [
        {
          "internalType": "uint8",
          "name": "action",
          "type": "uint8"
        },
        {
          "internalType": "bytes32",
          "name": "modelId",
          "type": "bytes32"
        },
        {
          "internalType": "uint256",
          "name": "timestamp",
          "type": "uint256"
        },
        {
          "internalType": "address",
          "name": "reporter",
          "type": "address"
        }
      ],
      "stateMutability": "view",
      "type": "function"
    },
    {
      "inputs": [],
      "name": "getIncidentCount",
      "outputs": [
        {
          "internalType": "uint256",
          "name": "",
          "type": "uint256"
        }
      ],
      "stateMutability": "view",
      "type": "function"
    },
    {
      "inputs": [
        {
          "internalType": "uint256",
          "name": "count",
          "type": "uint256"
        }
      ],
      "name": "getRecentIncidents",
      "outputs": [
        {
          "internalType": "bytes32[]",
          "name": "",
          "type": "bytes32[]"
        }
      ],
      "stateMutability": "view",
      "type": "function"
    },
    {
      "inputs": [],
      "name": "getStats",
      "outputs": [
        {
          "internalType": "uint256",
          "name": "total",
          "type": "uint256"
        },
        {
          "internalType": "uint256",
          "name": "dropped",
          "type": "uint256"
        },
        {
          "internalType": "uint256",
          "name": "delayed",
          "type": "uint256"
        }
      ],
      "stateMutability": "view",
      "type": "function"
    },
    {
      "inputs": [
        {
          "internalType": "uint256",
          "name": "",
          "type": "uint256"
        }
      ],
      "name": "incidentIds",
      "outputs": [
        {
          "internalType": "bytes32",
          "name": "",
          "type": "bytes32"
        }
      ],
      "stateMutability": "view",
      "type": "function"
    },
    {
      "inputs": [
        {
          "internalType": "bytes32",
          "name": "",
          "type": "bytes32"
        }
      ],
      "name": "incidents",
      "outputs": [
        {
          "internalType": "bytes32",
          "name": "incidentId",
          "type": "bytes32"
        },
        {
          "internalType": "uint8",
          "name": "action",
          "type": "uint8"
        },
        {
          "internalType": "bytes32",
          "name": "modelId",
          "type": "bytes32"
        },
        {
          "internalType": "uint256",
          "name": "timestamp",
          "type": "uint256"
        },
        {
          "internalType": "address",
          "name": "reporter",
          "type": "address"
        }
      ],
      "stateMutability": "view",
      "type": "function"
    },
    {
      "inputs": [
        {
          "internalType": "bytes32",
          "name": "incidentId",
          "type": "bytes32"
        },
        {
          "internalType": "uint8",
          "name": "action",
          "type": "uint8"
        },
        {
          "internalType": "bytes32",
          "name": "modelId",
          "type": "bytes32"
        }
      ],
      "name": "logIncident",
      "outputs": [],
      "stateMutability": "nonpayable",
      "type": "function"
    },
    {
      "inputs": [
        {
          "internalType": "bytes32[]",
          "name": "ids",
          "type": "bytes32[]"
        },
        {
          "internalType": "uint8[]",
          "name": "actions",
          "type": "uint8[]"
        },
        {
          "internalType": "bytes32[]",
          "name": "modelIds",
          "type": "bytes32[]"
        }
      ],
      "name": "logIncidentBatch",
      "outputs": [],
      "stateMutability": "nonpayable",
      "type": "function"
    },
    {
      "inputs": [
        {
          "internalType": "address",
          "name": "node",
          "type": "address"
        }
      ],
      "name": "revokeNode",
      "outputs": [],
      "stateMutability": "nonpayable",
      "type": "function"
    },
    {
      "inputs": [],
      "name": "totalDelayed",
      "outputs": [
        {
          "internalType": "uint256",
          "name": "",
          "type": "uint256"
        }
      ],
      "stateMutability": "view",
      "type": "function"
    },
    {
      "inputs": [],
      "name": "totalDropped",
      "outputs": [
        {
          "internalType": "uint256",
          "name": "",
          "type": "uint256"
        }
      ],
      "stateMutability": "view",
      "type": "function"
    },
    {
      "inputs": [],
      "name": "totalIncidents",
      "outputs": [
        {
          "internalType": "uint256",
          "name": "",
          "type": "uint256"
        }
      ],
      "stateMutability": "view",
      "type": "function"
    },
    {
      "inputs": [
        {
          "internalType": "address",
          "name": "newAdmin",
          "type": "address"
        }
      ],
      "name": "transferAdmin",
      "outputs": [],
      "stateMutability": "nonpayable",
      "type": "function"
    }
  ],
  "bytecode": "0x608060405234801561001057600080fd5b50600380546001600160a01b031916339081179091556000908152600260205260409020805460ff19166001179055610eef8061004e6000396000f3fe608060405234801561001057600080fd5b50600436106101005760003560e01c8063b2c4f13a11610097578063cdccab5b11610066578063cdccab5b1461031c578063d144454b1461032f578063ef6086da14610338578063f851a4401461034157600080fd5b8063b2c4f13a14610238578063b76a8bd21461024b578063b8f038281461025e578063c59d4847146102f857600080fd5b80637e53a740116100d35780637e53a7401461016d57806395962692146101a05780639739d167146101a8578063acc72bc61461022557600080fd5b8063056840781461010557806331b7733f1461011a57806375829def146101435780637910b05a14610156575b600080fd5b610118610113366004610c5e565b61036c565b005b61012d610128366004610c93565b6105c2565b60405161013a9190610cac565b60405180910390f35b610118610151366004610cf0565b61068f565b61015f60045481565b60405190815260200161013a565b61019061017b366004610cf0565b60026020526000908152604090205460ff1681565b604051901515815260200161013a565b60015461015f565b6101f26101b6366004610c93565b60006020819052908152604090208054600182015460028301546003840154600490940154929360ff909216929091906001600160a01b031685565b6040805195865260ff90941660208601529284019190915260608301526001600160a01b0316608082015260a00161013a565b610118610233366004610cf0565b610775565b610118610246366004610d6c565b6107eb565b610118610259366004610cf0565b610bb4565b6102cb61026c366004610c93565b60009081526020818152604091829020825160a08101845281548152600182015460ff1692810183905260028201549381018490526003820154606082018190526004909201546001600160a01b031660809091018190529193909190565b6040805160ff90951685526020850193909352918301526001600160a01b0316606082015260800161013a565b6004546005546006546040805193845260208401929092529082015260600161013a565b61015f61032a366004610c93565b610c27565b61015f60055481565b61015f60065481565b600354610354906001600160a01b031681565b6040516001600160a01b03909116815260200161013a565b3360009081526002602052604090205460ff168061039457506003546001600160a01b031633145b6103d65760405162461bcd60e51b815260206004820152600e60248201526d139bdd08185d5d1a1bdc9a5e995960921b60448201526064015b60405180910390fd5b600083815260208190526040902060030154156104275760405162461bcd60e51b815260206004820152600f60248201526e496e636964656e742065786973747360881b60448201526064016103cd565b60038260ff16111561046c5760405162461bcd60e51b815260206004820152600e60248201526d24b73b30b634b21030b1ba34b7b760911b60448201526064016103cd565b6040805160a08101825284815260ff84811660208084019182528385018681524260608601908152336080870190815260008b8152938490529683209551865592516001808701805460ff19169290961691909117909455516002850155905160038401559251600492830180546001600160a01b0319166001600160a01b03909216919091179055805480820182559083527fb10e2d527612073b26eecdfd717e6a320cf44b4afac2b0732d9fcbe2b7fa0cf60185905580549161053083610e1c565b91905055508160ff16600203610556576005805490600061055083610e1c565b91905055505b8160ff16600103610577576006805490600061057183610e1c565b91905055505b6040805160ff841681526020810183905242818301529051339185917f78dd360096405ef6259046abde7e2ff8ea659036a7ea69bca6cd2947e6a132319181900360600190a3505050565b600154606090808311156105d4578092505b60008367ffffffffffffffff8111156105ef576105ef610e35565b604051908082528060200260200182016040528015610618578160200160208202803683370190505b50905060005b84811015610687576001816106338286610e4b565b61063d9190610e4b565b8154811061064d5761064d610e64565b906000526020600020015482828151811061066a5761066a610e64565b60209081029190910101528061067f81610e1c565b91505061061e565b509392505050565b6003546001600160a01b031633146106b95760405162461bcd60e51b81526004016103cd90610e7a565b6001600160a01b0381166107015760405162461bcd60e51b815260206004820152600f60248201526e496e76616c6964206164647265737360881b60448201526064016103cd565b6003546040516001600160a01b038084169216907ff8ccb027dfcd135e000e9d45e6cc2d662578a8825d4c45b5e32e0adf67e79ec690600090a3600380546001600160a01b039092166001600160a01b0319909216821790556000908152600260205260409020805460ff19166001179055565b6003546001600160a01b0316331461079f5760405162461bcd60e51b81526004016103cd90610e7a565b6001600160a01b038116600081815260026020526040808220805460ff19166001179055517f8638f01ed0471fe5cd807bb572bf42f715a4a2064a2c643b9d78bad2b95ec86f9190a250565b3360009081526002602052604090205460ff168061081357506003546001600160a01b031633145b6108505760405162461bcd60e51b815260206004820152600e60248201526d139bdd08185d5d1a1bdc9a5e995960921b60448201526064016103cd565b848314801561085e57508281145b61089c5760405162461bcd60e51b815260206004820152600f60248201526e098cadccee8d040dad2e6dac2e8c6d608b1b60448201526064016103cd565b60005b85811015610bab576000808888848181106108bc576108bc610e64565b90506020020135815260200190815260200160002060030154600014801561090e575060038585838181106108f3576108f3610e64565b90506020020160208101906109089190610e9e565b60ff1611155b15610b99576040518060a0016040528088888481811061093057610930610e64565b90506020020135815260200186868481811061094e5761094e610e64565b90506020020160208101906109639190610e9e565b60ff16815260200184848481811061097d5761097d610e64565b905060200201358152602001428152602001336001600160a01b03168152506000808989858181106109b1576109b1610e64565b6020908102929092013583525081810192909252604090810160002083518155918301516001808401805460ff191660ff9093169290921790915590830151600283015560608301516003830155608090920151600490910180546001600160a01b0319166001600160a01b03909216919091179055878783818110610a3957610a39610e64565b83546001810185556000948552602080862092029390930135920191909155506004805491610a6783610e1c565b9190505550848482818110610a7e57610a7e610e64565b9050602002016020810190610a939190610e9e565b60ff16600203610ab35760058054906000610aad83610e1c565b91905055505b848482818110610ac557610ac5610e64565b9050602002016020810190610ada9190610e9e565b60ff16600103610afa5760068054906000610af483610e1c565b91905055505b33878783818110610b0d57610b0d610e64565b905060200201357f78dd360096405ef6259046abde7e2ff8ea659036a7ea69bca6cd2947e6a13231878785818110610b4757610b47610e64565b9050602002016020810190610b5c9190610e9e565b868686818110610b6e57610b6e610e64565b6040805160ff9095168552602091820293909301359084015250429082015260600160405180910390a35b80610ba381610e1c565b91505061089f565b50505050505050565b6003546001600160a01b03163314610bde5760405162461bcd60e51b81526004016103cd90610e7a565b6001600160a01b038116600081815260026020526040808220805460ff19169055517f1ed1124975b36f977f88e26d9688d6772db1efc746521b431543fa5bc7e7d4a09190a250565b60018181548110610c3757600080fd5b600091825260209091200154905081565b803560ff81168114610c5957600080fd5b919050565b600080600060608486031215610c7357600080fd5b83359250610c8360208501610c48565b9150604084013590509250925092565b600060208284031215610ca557600080fd5b5035919050565b6020808252825182820181905260009190848201906040850190845b81811015610ce457835183529284019291840191600101610cc8565b50909695505050505050565b600060208284031215610d0257600080fd5b81356001600160a01b0381168114610d1957600080fd5b9392505050565b60008083601f840112610d3257600080fd5b50813567ffffffffffffffff811115610d4a57600080fd5b6020830191508360208260051b8501011115610d6557600080fd5b9250929050565b60008060008060008060608789031215610d8557600080fd5b863567ffffffffffffffff80821115610d9d57600080fd5b610da98a838b01610d20565b90985096506020890135915080821115610dc257600080fd5b610dce8a838b01610d20565b90965094506040890135915080821115610de757600080fd5b50610df489828a01610d20565b979a9699509497509295939492505050565b634e487b7160e01b600052601160045260246000fd5b600060018201610e2e57610e2e610e06565b5060010190565b634e487b7160e01b600052604160045260246000fd5b81810381811115610e5e57610e5e610e06565b92915050565b634e487b7160e01b600052603260045260246000fd5b6020808252600a908201526927b7363c9030b236b4b760b11b604082015260600190565b600060208284031215610eb057600080fd5b610d1982610c4856fea2646970667358221220f76a9908946177ed368331fe33ccb2fcc6aa86a679b53531fc990d628cc65d0364736f6c63430008140033",
  "linkReferences": {},
  "deployedLinkReferences": {}
}