{
  "_format": "hh-sol-artifact-1",
  "contractName": "PolicyRegistry",
  "sourceName": "contracts/PolicyRegistry.sol",
  "abi": [
    {
      "inputs": [
        {
          "internalType": "address",
          "name": "admin",
          "type": "address"
        }
      ],
      "stateMutability": "nonpayable",
      "type": "constructor"
    },
    {
      "inputs": [],
      "name": "AccessControlBadConfirmation",
      "type": "error"
    },
    {
      "inputs": [
        {
          "internalType": "address",
          "name": "account",
          "type": "address"
        },
        {
          "internalType": "bytes32",
          "name": "neededRole",
          "type": "bytes32"
        }
      ],
      "name": "AccessControlUnauthorizedAccount",
      "type": "error"
    },
    {
      "anonymous": false,
      "inputs": [
        {
          "indexed": true,
          "internalType": "bytes32",
          "name": "policyId",
          "type": "bytes32"
        },
        {
          "indexed": false,
          "internalType": "uint256",
          "name": "timestamp",
          "type": "uint256"
        }
      ],
      "name": "GlobalPolicySet",
      "type": "event"
    },
    {
      "anonymous": false,
      "inputs": [
        {
          "indexed": true,
          "internalType": "address",
          "name": "validator",
          "type": "address"
        },
        {
          "indexed": true,
          "internalType": "bytes32",
          "name": "policyId",
          "type": "bytes32"
        },
        {
          "indexed": false,
          "internalType": "uint256",
          "name": "timestamp",
          "type": "uint256"
        }
      ],
      "name": "PolicyAssigned",
      "type": "event"
    },
    {
      "anonymous": false,
      "inputs": [
        {
          "indexed": true,
          "internalType": "bytes32",
          "name": "policyId",
          "type": "bytes32"
        },
        {
          "indexed": false,
          "internalType": "bytes32",
          "name": "contentHash",
          "type": "bytes32"
        },
        {
          "indexed": false,
          "internalType": "string",
          "name": "version",
          "type": "string"
        },
        {
          "indexed": false,
          "internalType": "uint256",
          "name": "timestamp",
          "type": "uint256"
        }
      ],
      "name": "PolicyCreated",
      "type": "event"
    },
    {
      "anonymous": false,
      "inputs": [
        {
          "indexed": true,
          "internalType": "bytes32",
          "name": "policyId",
          "type": "bytes32"
        },
        {
          "indexed": false,
          "internalType": "bytes32",
          "name": "newContentHash",
          "type": "bytes32"
        },
        {
          "indexed": false,
          "internalType": "enum PolicyRegistry.PolicyStatus",
          "name": "status",
          "type": "uint8"
        },
        {
          "indexed": false,
          "internalType": "uint256",
          "name": "timestamp",
          "type": "uint256"
        }
      ],
      "name": "PolicyUpdated",
      "type": "event"
    },
    {
      "anonymous": false,
      "inputs": [
        {
          "indexed": true,
          "internalType": "bytes32",
          "name": "role",
          "type": "bytes32"
        },
        {
          "indexed": true,
          "internalType": "bytes32",
          "name": "previousAdminRole",
          "type": "bytes32"
        },
        {
          "indexed": true,
          "internalType": "bytes32",
          "name": "newAdminRole",
          "type": "bytes32"
        }
      ],
      "name": "RoleAdminChanged",
      "type": "event"
    },
    {
      "anonymous": false,
      "inputs": [
        {
          "indexed": true,
          "internalType": "bytes32",
          "name": "role",
          "type": "bytes32"
        },
        {
          "indexed": true,
          "internalType": "address",
          "name": "account",
          "type": "address"
        },
        {
          "indexed": true,
          "internalType": "address",
          "name": "sender",
          "type": "address"
        }
      ],
      "name": "RoleGranted",
      "type": "event"
    },
    {
      "anonymous": false,
      "inputs": [
        {
          "indexed": true,
          "internalType": "bytes32",
          "name": "role",
          "type": "bytes32"
        },
        {
          "indexed": true,
          "internalType": "address",
          "name": "account",
          "type": "address"
        },
        {
          "indexed": true,
          "internalType": "address",
          "name": "sender",
          "type": "address"
        }
      ],
      "name": "RoleRevoked",
      "type": "event"
    },
    {
      "inputs": [],
      "name": "DEFAULT_ADMIN_ROLE",
      "outputs": [
        {
          "internalType": "bytes32",
          "name": "",
          "type": "bytes32"
        }
      ],
      "stateMutability": "view",
      "type": "function"
    },
    {
      "inputs": [],
      "name": "POLICY_ADMIN_ROLE",
      "outputs": [
        {
          "internalType": "bytes32",
          "name": "",
          "type": "bytes32"
        }
      ],
      "stateMutability": "view",
      "type": "function"
    },
    {
      "inputs": [],
      "name": "VALIDATOR_ROLE",
      "outputs": [
        {
          "internalType": "bytes32",
          "name": "",
          "type": "bytes32"
        }
      ],
      "stateMutability": "view",
      "type": "function"
    },
    {
      "inputs": [
        {
          "internalType": "address",
          "name": "validator",
          "type": "address"
        },
        {
          "internalType": "bytes32",
          "name": "policyId",
          "type": "bytes32"
        }
      ],
      "name": "assignPolicy",
      "outputs": [],
      "stateMutability": "nonpayable",
      "type": "function"
    },
    {
      "inputs": [
        {
          "internalType": "bytes32",
          "name": "policyId",
          "type": "bytes32"
        },
        {
          "internalType": "bytes32",
          "name": "contentHash",
          "type": "bytes32"
        },
        {
          "internalType": "bytes32",
          "name": "encryptionKeyId",
          "type": "bytes32"
        },
        {
          "internalType": "string",
          "name": "version",
          "type": "string"
        }
      ],
      "name": "createPolicy",
      "outputs": [],
      "stateMutability": "nonpayable",
      "type": "function"
    },
    {
      "inputs": [
        {
          "internalType": "address",
          "name": "validator",
          "type": "address"
        }
      ],
      "name": "getEffectivePolicy",
      "outputs": [
        {
          "internalType": "bytes32",
          "name": "",
          "type": "bytes32"
        }
      ],
      "stateMutability": "view",
      "type": "function"
    },
    {
      "inputs": [
        {
          "internalType": "bytes32",
          "name": "policyId",
          "type": "bytes32"
        }
      ],
      "name": "getPolicy",
      "outputs": [
        {
          "internalType": "bytes32",
          "name": "contentHash",
          "type": "bytes32"
        },
        {
          "internalType": "bytes32",
          "name": "encryptionKeyId",
          "type": "bytes32"
        },
        {
          "internalType": "enum PolicyRegistry.PolicyStatus",
          "name": "status",
          "type": "uint8"
        },
        {
          "internalType": "uint256",
          "name": "createdAt",
          "type": "uint256"
        },
        {
          "internalType": "uint256",
          "name": "updatedAt",
          "type": "uint256"
        },
        {
          "internalType": "string",
          "name": "version",
          "type": "string"
        }
      ],
      "stateMutability": "view",
      "type": "function"
    },
    {
      "inputs": [],
      "name": "getPolicyCount",
      "outputs": [
        {
          "internalType": "uint256",
          "name": "",
          "type": "uint256"
        }
      ],
      "stateMutability": "view",
      "type": "function"
    },
    {
      "inputs": [
        {
          "internalType": "bytes32",
          "name": "policyId",
          "type": "bytes32"
        }
      ],
      "name": "getPolicyHash",
      "outputs": [
        {
          "internalType": "bytes32",
          "name": "",
          "type": "bytes32"
        }
      ],
      "stateMutability": "view",
      "type": "function"
    },
    {
      "inputs": [
        {
          "internalType": "bytes32",
          "name": "role",
          "type": "bytes32"
        }
      ],
      "name": "getRoleAdmin",
      "outputs": [
        {
          "internalType": "bytes32",
          "name": "",
          "type": "bytes32"
        }
      ],
      "stateMutability": "view",
      "type": "function"
    },
    {
      "inputs": [],
      "name": "globalDefaultPolicy",
      "outputs": [
        {
          "internalType": "bytes32",
          "name": "",
          "type": "bytes32"
        }
      ],
      "stateMutability": "view",
      "type": "function"
    },
    {
      "inputs": [
        {
          "internalType": "bytes32",
          "name": "role",
          "type": "bytes32"
        },
        {
          "internalType": "address",
          "name": "account",
          "type": "address"
        }
      ],
      "name": "grantRole",
      "outputs": [],
      "stateMutability": "nonpayable",
      "type": "function"
    },
    {
      "inputs": [
        {
          "internalType": "bytes32",
          "name": "role",
          "type": "bytes32"
        },
        {
          "internalType": "address",
          "name": "account",
          "type": "address"
        }
      ],
      "name": "hasRole",
      "outputs": [
        {
          "internalType": "bool",
          "name": "",
          "type": "bool"
        }
      ],
      "stateMutability": "view",
      "type": "function"
    },
    {
      "inputs": [
        {
          "internalType": "bytes32",
          "name": "",
          "type": "bytes32"
        }
      ],
      "name": "policies",
      "outputs": [
        {
          "internalType": "bytes32",
          "name": "contentHash",
          "type": "bytes32"
        },
        {
          "internalType": "bytes32",
          "name": "encryptionKeyId",
          "type": "bytes32"
        },
        {
          "internalType": "enum PolicyRegistry.PolicyStatus",
          "name": "status",
          "type": "uint8"
        },
        {
          "internalType": "uint256",
          "name": "createdAt",
          "type": "uint256"
        },
        {
          "internalType": "uint256",
          "name": "updatedAt",
          "type": "uint256"
        },
        {
          "internalType": "string",
          "name": "version",
          "type": "string"
        }
      ],
      "stateMutability": "view",
      "type": "function"
    },
    {
      "inputs": [
        {
          "internalType": "uint256",
          "name": "",
          "type": "uint256"
        }
      ],
      "name": "policyIds",
      "outputs": [
        {
          "internalType": "bytes32",
          "name": "",
          "type": "bytes32"
        }
      ],
      "stateMutability": "view",
      "type": "function"
    },
    {
      "inputs": [
        {
          "internalType": "bytes32",
          "name": "role",
          "type": "bytes32"
        },
        {
          "internalType": "address",
          "name": "callerConfirmation",
          "type": "address"
        }
      ],
      "name": "renounceRole",
      "outputs": [],
      "stateMutability": "nonpayable",
      "type": "function"
    },
    {
      "inputs": [
        {
          "internalType": "bytes32",
          "name": "role",
          "type": "bytes32"
        },
        {
          "internalType": "address",
          "name": "account",
          "type": "address"
        }
      ],
      "name": "revokeRole",
      "outputs": [],
      "stateMutability": "nonpayable",
      "type": "function"
    },
    {
      "inputs": [
        {
          "internalType": "bytes32",
          "name": "policyId",
          "type": "bytes32"
        }
      ],
      "name": "setGlobalDefaultPolicy",
      "outputs": [],
      "stateMutability": "nonpayable",
      "type": "function"
    },
    {
      "inputs": [
        {
          "internalType": "bytes32",
          "name": "policyId",
          "type": "bytes32"
        },
        {
          "internalType": "enum PolicyRegistry.PolicyStatus",
          "name": "status",
          "type": "uint8"
        }
      ],
      "name": "setPolicyStatus",
      "outputs": [],
      "stateMutability": "nonpayable",
      "type": "function"
    },
    {
      "inputs": [
        {
          "internalType": "bytes4",
          "name": "interfaceId",
          "type": "bytes4"
        }
      ],
      "name": "supportsInterface",
      "outputs": [
        {
          "internalType": "bool",
          "name": "",
          "type": "bool"
        }
      ],
      "stateMutability": "view",
      "type": "function"
    },
    {
      "inputs": [
        {
          "internalType": "bytes32",
          "name": "policyId",
          "type": "bytes32"
        },
        {
          "internalType": "bytes32",
          "name": "newContentHash",
          "type": "bytes32"
        },
        {
          "internalType": "string",
          "name": "newVersion",
          "type": "string"
        }
      ],
      "name": "updatePolicy",
      "outputs": [],
      "stateMutability": "nonpayable",
      "type": "function"
    },
    {
      "inputs": [
        {
          "internalType": "address",
          "name": "",
          "type": "address"
        }
      ],
      "name": "validatorPolicies",
      "outputs": [
        {
          "internalType": "bytes32",
          "name": "",
          "type": "bytes32"
        }
      ],
      "stateMutability": "view",
      "type": "function"
    }
  ],
  "bytecode": "0x60806040523480156200001157600080fd5b506040516200143f3803806200143f833981016040819052620000349162000125565b6200004160008262000076565b506200006e7face7350211ab645c1937904136ede4855ac3aa1eabb4970e1a51a335d2e199208262000076565b505062000157565b6000828152602081815260408083206001600160a01b038516845290915281205460ff166200011b576000838152602081815260408083206001600160a01b03861684529091529020805460ff19166001179055620000d23390565b6001600160a01b0316826001600160a01b0316847f2f8788117e7eff1d82e926ec794901d17c78024a50270940304540a733656f0d60405160405180910390a45060016200011f565b5060005b92915050565b6000602082840312156200013857600080fd5b81516001600160a01b03811681146200015057600080fd5b9392505050565b6112d880620001676000396000f3fe608060405234801561001057600080fd5b50600436106101425760003560e01c80638e6ec656116100b8578063a3f685f91161007c578063a3f685f9146102a6578063c49baebe146102cb578063c73176fa146102f2578063d547741f14610312578063ddbfd8ef14610325578063e59771d21461033857600080fd5b80638e6ec6561461025057806391d14854146102635780639bb9b42914610276578063a17620c114610289578063a217fddf1461029e57600080fd5b80632f500f6c1161010a5780632f500f6c146101db57806336568abe146101ee5780634bee9c281461020157806350efe2a814610214578063650bcfcd1461022757806380b28ea41461024757600080fd5b806301ffc9a7146101475780631776be001461016f578063244f731a14610184578063248a9ca3146101975780632f2ff15d146101c8575b600080fd5b61015a610155366004610d48565b610340565b60405190151581526020015b60405180910390f35b61018261017d366004610dc2565b610377565b005b610182610192366004610e15565b610468565b6101ba6101a5366004610e49565b60009081526020819052604090206001015490565b604051908152602001610166565b6101826101d6366004610e7e565b610560565b6101ba6101e9366004610e49565b61058b565b6101826101fc366004610e7e565b6105ac565b61018261020f366004610eaa565b6105e4565b610182610222366004610e49565b6106c2565b6101ba610235366004610ed4565b60026020526000908152604090205481565b6101ba60035481565b61018261025e366004610eef565b610781565b61015a610271366004610e7e565b61093d565b6101ba610284366004610ed4565b610966565b6101ba60008051602061128383398151915281565b6101ba600081565b6102b96102b4366004610e49565b6109c8565b60405161016696959493929190610f88565b6101ba7f21702c8af46127c7fa207f89d0b0a8441bb32959a0ac7df790e9ab1a25c9892681565b6101ba610300366004610e49565b60009081526001602052604090205490565b610182610320366004610e7e565b610b18565b6102b9610333366004610e49565b610b3d565b6004546101ba565b60006001600160e01b03198216637965db0b60e01b148061037157506301ffc9a760e01b6001600160e01b03198316145b92915050565b60008051602061128383398151915261038f81610c01565b6000858152600160205260409020600301546103e55760405162461bcd60e51b815260206004820152601060248201526f141bdb1a58de481b9bdd08199bdd5b9960821b60448201526064015b60405180910390fd5b600085815260016020526040902084815560050161040483858361109f565b50600085815260016020526040908190204260048201819055600290910154915187927f57ca6ff98b23fe0136d8001e6d1a2d1e41af879323ceebfc511226c01693ba0a9261045992899260ff169190611160565b60405180910390a25050505050565b60008051602061128383398151915261048081610c01565b6000838152600160205260409020600301546104d15760405162461bcd60e51b815260206004820152601060248201526f141bdb1a58de481b9bdd08199bdd5b9960821b60448201526064016103dc565b60008381526001602081905260409091206002018054849260ff199091169083600381111561050257610502610f50565b02179055506000838152600160205260409081902042600482018190559054915185927f57ca6ff98b23fe0136d8001e6d1a2d1e41af879323ceebfc511226c01693ba0a9261055392879190611160565b60405180910390a2505050565b60008281526020819052604090206001015461057b81610c01565b6105858383610c0e565b50505050565b6004818154811061059b57600080fd5b600091825260209091200154905081565b6001600160a01b03811633146105d55760405163334bd91960e11b815260040160405180910390fd5b6105df8282610ca0565b505050565b6000805160206112838339815191526105fc81610c01565b600160008381526001602052604090206002015460ff16600381111561062457610624610f50565b146106655760405162461bcd60e51b8152602060048201526011602482015270506f6c696379206e6f742061637469766560781b60448201526064016103dc565b6001600160a01b03831660008181526002602052604090819020849055518391907f8f4021b9177343eb63cf8a7c38855f003e1cf96447dbcb59f4ac10cb22047e46906106b59042815260200190565b60405180910390a3505050565b6000805160206112838339815191526106da81610c01565b600160008381526001602052604090206002015460ff16600381111561070257610702610f50565b146107435760405162461bcd60e51b8152602060048201526011602482015270506f6c696379206e6f742061637469766560781b60448201526064016103dc565b600382905560405142815282907fe70f002b40dbf528e5ec0b968107bed91fc46f89abe8a86bda06ae2a60d728fe9060200160405180910390a25050565b60008051602061128383398151915261079981610c01565b600086815260016020526040902060030154156107e85760405162461bcd60e51b815260206004820152600d60248201526c506f6c6963792065786973747360981b60448201526064016103dc565b6040805160c081018252868152602081018690529081016001815260200142815260200142815260200184848080601f016020809104026020016040519081016040528093929190818152602001838380828437600092018290525093909452505088815260016020818152604092839020855181559085015181830155918401516002830180549394509092909160ff199091169083600381111561089057610890610f50565b0217905550606082015160038201556080820151600482015560a082015160058201906108bd9082611182565b5050600480546001810182556000919091527f8a35acfbc15ff81a39ae7d344fd709f28e8600b4aa8c65c6b64bfe7fe36bd19b018790555060405186907f41bad84032b926478612625756a4b6aa793a6e4b548dcd0e71354f86a71fc3b99061092d908890879087904290611242565b60405180910390a2505050505050565b6000918252602082815260408084206001600160a01b0393909316845291905290205460ff1690565b6001600160a01b03811660009081526002602052604081205480158015906109b35750600160008281526001602052604090206002015460ff1660038111156109b1576109b1610f50565b145b156109be5792915050565b5050600354919050565b600080600080600060606000600160008981526020019081526020016000206040518060c001604052908160008201548152602001600182015481526020016002820160009054906101000a900460ff166003811115610a2a57610a2a610f50565b6003811115610a3b57610a3b610f50565b81526020016003820154815260200160048201548152602001600582018054610a6390611017565b80601f0160208091040260200160405190810160405280929190818152602001828054610a8f90611017565b8015610adc5780601f10610ab157610100808354040283529160200191610adc565b820191906000526020600020905b815481529060010190602001808311610abf57829003601f168201915b5050509190925250508151602083015160408401516060850151608086015160a090960151939e929d50909b5099509297509550909350505050565b600082815260208190526040902060010154610b3381610c01565b6105858383610ca0565b6001602081905260009182526040909120805491810154600282015460038301546004840154600585018054949560ff9094169492939192610b7e90611017565b80601f0160208091040260200160405190810160405280929190818152602001828054610baa90611017565b8015610bf75780601f10610bcc57610100808354040283529160200191610bf7565b820191906000526020600020905b815481529060010190602001808311610bda57829003601f168201915b5050505050905086565b610c0b8133610d0b565b50565b6000610c1a838361093d565b610c98576000838152602081815260408083206001600160a01b03861684529091529020805460ff19166001179055610c503390565b6001600160a01b0316826001600160a01b0316847f2f8788117e7eff1d82e926ec794901d17c78024a50270940304540a733656f0d60405160405180910390a4506001610371565b506000610371565b6000610cac838361093d565b15610c98576000838152602081815260408083206001600160a01b0386168085529252808320805460ff1916905551339286917ff6391f5c32d9c69d2a47ea670b442974b53935d1edc7fd64eb21e047a839171b9190a4506001610371565b610d15828261093d565b610d445760405163e2517d3f60e01b81526001600160a01b0382166004820152602481018390526044016103dc565b5050565b600060208284031215610d5a57600080fd5b81356001600160e01b031981168114610d7257600080fd5b9392505050565b60008083601f840112610d8b57600080fd5b50813567ffffffffffffffff811115610da357600080fd5b602083019150836020828501011115610dbb57600080fd5b9250929050565b60008060008060608587031215610dd857600080fd5b8435935060208501359250604085013567ffffffffffffffff811115610dfd57600080fd5b610e0987828801610d79565b95989497509550505050565b60008060408385031215610e2857600080fd5b82359150602083013560048110610e3e57600080fd5b809150509250929050565b600060208284031215610e5b57600080fd5b5035919050565b80356001600160a01b0381168114610e7957600080fd5b919050565b60008060408385031215610e9157600080fd5b82359150610ea160208401610e62565b90509250929050565b60008060408385031215610ebd57600080fd5b610ec683610e62565b946020939093013593505050565b600060208284031215610ee657600080fd5b610d7282610e62565b600080600080600060808688031215610f0757600080fd5b853594506020860135935060408601359250606086013567ffffffffffffffff811115610f3357600080fd5b610f3f88828901610d79565b969995985093965092949392505050565b634e487b7160e01b600052602160045260246000fd5b60048110610f8457634e487b7160e01b600052602160045260246000fd5b9052565b868152600060208781840152610fa16040840188610f66565b85606084015284608084015260c060a084015283518060c085015260005b81811015610fdb5785810183015185820160e001528201610fbf565b50600060e0828601015260e0601f19601f83011685010192505050979650505050505050565b634e487b7160e01b600052604160045260246000fd5b600181811c9082168061102b57607f821691505b60208210810361104b57634e487b7160e01b600052602260045260246000fd5b50919050565b601f8211156105df57600081815260208120601f850160051c810160208610156110785750805b601f850160051c820191505b8181101561109757828155600101611084565b505050505050565b67ffffffffffffffff8311156110b7576110b7611001565b6110cb836110c58354611017565b83611051565b6000601f8411600181146110ff57600085156110e75750838201355b600019600387901b1c1916600186901b178355611159565b600083815260209020601f19861690835b828110156111305786850135825560209485019460019092019101611110565b508682101561114d5760001960f88860031b161c19848701351681555b505060018560011b0183555b5050505050565b838152606081016111746020830185610f66565b826040830152949350505050565b815167ffffffffffffffff81111561119c5761119c611001565b6111b0816111aa8454611017565b84611051565b602080601f8311600181146111e557600084156111cd5750858301515b600019600386901b1c1916600185901b178555611097565b600085815260208120601f198616915b82811015611214578886015182559484019460019091019084016111f5565b50858210156112325787850151600019600388901b60f8161c191681555b5050505050600190811b01905550565b848152606060208201528260608201528284608083013760006080848301015260006080601f19601f86011683010190508260408301529594505050505056feace7350211ab645c1937904136ede4855ac3aa1eabb4970e1a51a335d2e19920a26469706673582212200c4e955fe755626a5193f014fba660192e6f29a80ce13996b5f5beb1e405f99264736f6c63430008140033",
  "linkReferences": {},
  "deployedLinkReferences": {}
}