{
  "_format": "hh-sol-artifact-1",
  "contractName": "ContractRegistry",
  "sourceName": "contracts/ContractRegistry.sol",
  "abi": [
    {
      "inputs": [
        {
          "internalType": "address",
          "name": "initialAdmin",
          "type": "address"
        }
      ],
      "stateMutability": "nonpayable",
      "type": "constructor"
    },
    {
      "inputs": [],
      "name": "AccessControlBadConfirmation",
      "type": "error"
    },
    {
      "inputs": [
        {
          "internalType": "address",
          "name": "account",
          "type": "address"
        },
        {
          "internalType": "bytes32",
          "name": "neededRole",
          "type": "bytes32"
        }
      ],
      "name": "AccessControlUnauthorizedAccount",
      "type": "error"
    },
    {
      "anonymous": false,
      "inputs": [
        {
          "indexed": true,
          "internalType": "bytes32",
          "name": "nameHash",
          "type": "bytes32"
        },
        {
          "indexed": false,
          "internalType": "string",
          "name": "name",
          "type": "string"
        },
        {
          "indexed": false,
          "internalType": "uint256",
          "name": "timestamp",
          "type": "uint256"
        }
      ],
      "name": "ContractRemoved",
      "type": "event"
    },
    {
      "anonymous": false,
      "inputs": [
        {
          "indexed": true,
          "internalType": "bytes32",
          "name": "nameHash",
          "type": "bytes32"
        },
        {
          "indexed": false,
          "internalType": "string",
          "name": "name",
          "type": "string"
        },
        {
          "indexed": true,
          "internalType": "address",
          "name": "addr",
          "type": "address"
        },
        {
          "indexed": false,
          "internalType": "uint256",
          "name": "version",
          "type": "uint256"
        },
        {
          "indexed": false,
          "internalType": "uint256",
          "name": "timestamp",
          "type": "uint256"
        }
      ],
      "name": "ContractUpdated",
      "type": "event"
    },
    {
      "anonymous": false,
      "inputs": [
        {
          "indexed": true,
          "internalType": "bytes32",
          "name": "role",
          "type": "bytes32"
        },
        {
          "indexed": true,
          "internalType": "bytes32",
          "name": "previousAdminRole",
          "type": "bytes32"
        },
        {
          "indexed": true,
          "internalType": "bytes32",
          "name": "newAdminRole",
          "type": "bytes32"
        }
      ],
      "name": "RoleAdminChanged",
      "type": "event"
    },
    {
      "anonymous": false,
      "inputs": [
        {
          "indexed": true,
          "internalType": "bytes32",
          "name": "role",
          "type": "bytes32"
        },
        {
          "indexed": true,
          "internalType": "address",
          "name": "account",
          "type": "address"
        },
        {
          "indexed": true,
          "internalType": "address",
          "name": "sender",
          "type": "address"
        }
      ],
      "name": "RoleGranted",
      "type": "event"
    },
    {
      "anonymous": false,
      "inputs": [
        {
          "indexed": true,
          "internalType": "bytes32",
          "name": "role",
          "type": "bytes32"
        },
        {
          "indexed": true,
          "internalType": "address",
          "name": "account",
          "type": "address"
        },
        {
          "indexed": true,
          "internalType": "address",
          "name": "sender",
          "type": "address"
        }
      ],
      "name": "RoleRevoked",
      "type": "event"
    },
    {
      "inputs": [],
      "name": "ADMIN_ROLE",
      "outputs": [
        {
          "internalType": "bytes32",
          "name": "",
          "type": "bytes32"
        }
      ],
      "stateMutability": "view",
      "type": "function"
    },
    {
      "inputs": [],
      "name": "DEFAULT_ADMIN_ROLE",
      "outputs": [
        {
          "internalType": "bytes32",
          "name": "",
          "type": "bytes32"
        }
      ],
      "stateMutability": "view",
      "type": "function"
    },
    {
      "inputs": [
        {
          "internalType": "bytes32",
          "name": "",
          "type": "bytes32"
        }
      ],
      "name": "contracts",
      "outputs": [
        {
          "internalType": "address",
          "name": "",
          "type": "address"
        }
      ],
      "stateMutability": "view",
      "type": "function"
    },
    {
      "inputs": [
        {
          "internalType": "string",
          "name": "name",
          "type": "string"
        }
      ],
      "name": "getContract",
      "outputs": [
        {
          "internalType": "address",
          "name": "",
          "type": "address"
        }
      ],
      "stateMutability": "view",
      "type": "function"
    },
    {
      "inputs": [
        {
          "internalType": "bytes32",
          "name": "nameHash",
          "type": "bytes32"
        }
      ],
      "name": "getContractByHash",
      "outputs": [
        {
          "internalType": "address",
          "name": "",
          "type": "address"
        }
      ],
      "stateMutability": "view",
      "type": "function"
    },
    {
      "inputs": [],
      "name": "getContractCount",
      "outputs": [
        {
          "internalType": "uint256",
          "name": "",
          "type": "uint256"
        }
      ],
      "stateMutability": "view",
      "type": "function"
    },
    {
      "inputs": [
        {
          "internalType": "bytes32",
          "name": "role",
          "type": "bytes32"
        }
      ],
      "name": "getRoleAdmin",
      "outputs": [
        {
          "internalType": "bytes32",
          "name": "",
          "type": "bytes32"
        }
      ],
      "stateMutability": "view",
      "type": "function"
    },
    {
      "inputs": [
        {
          "internalType": "string",
          "name": "name",
          "type": "string"
        }
      ],
      "name": "getVersion",
      "outputs": [
        {
          "internalType": "uint256",
          "name": "",
          "type": "uint256"
        }
      ],
      "stateMutability": "view",
      "type": "function"
    },
    {
      "inputs": [
        {
          "internalType": "bytes32",
          "name": "role",
          "type": "bytes32"
        },
        {
          "internalType": "address",
          "name": "account",
          "type": "address"
        }
      ],
      "name": "grantRole",
      "outputs": [],
      "stateMutability": "nonpayable",
      "type": "function"
    },
    {
      "inputs": [
        {
          "internalType": "bytes32",
          "name": "role",
          "type": "bytes32"
        },
        {
          "internalType": "address",
          "name": "account",
          "type": "address"
        }
      ],
      "name": "hasRole",
      "outputs": [
        {
          "internalType": "bool",
          "name": "",
          "type": "bool"
        }
      ],
      "stateMutability": "view",
      "type": "function"
    },
    {
      "inputs": [
        {
          "internalType": "bytes32",
          "name": "",
          "type": "bytes32"
        }
      ],
      "name": "names",
      "outputs": [
        {
          "internalType": "string",
          "name": "",
          "type": "string"
        }
      ],
      "stateMutability": "view",
      "type": "function"
    },
    {
      "inputs": [
        {
          "internalType": "uint256",
          "name": "",
          "type": "uint256"
        }
      ],
      "name": "registeredContracts",
      "outputs": [
        {
          "internalType": "bytes32",
          "name": "",
          "type": "bytes32"
        }
      ],
      "stateMutability": "view",
      "type": "function"
    },
    {
      "inputs": [
        {
          "internalType": "string",
          "name": "name",
          "type": "string"
        }
      ],
      "name": "removeContract",
      "outputs": [],
      "stateMutability": "nonpayable",
      "type": "function"
    },
    {
      "inputs": [
        {
          "internalType": "bytes32",
          "name": "role",
          "type": "bytes32"
        },
        {
          "internalType": "address",
          "name": "callerConfirmation",
          "type": "address"
        }
      ],
      "name": "renounceRole",
      "outputs": [],
      "stateMutability": "nonpayable",
      "type": "function"
    },
    {
      "inputs": [
        {
          "internalType": "bytes32",
          "name": "role",
          "type": "bytes32"
        },
        {
          "internalType": "address",
          "name": "account",
          "type": "address"
        }
      ],
      "name": "revokeRole",
      "outputs": [],
      "stateMutability": "nonpayable",
      "type": "function"
    },
    {
      "inputs": [
        {
          "internalType": "string",
          "name": "name",
          "type": "string"
        },
        {
          "internalType": "address",
          "name": "addr",
          "type": "address"
        }
      ],
      "name": "setContract",
      "outputs": [],
      "stateMutability": "nonpayable",
      "type": "function"
    },
    {
      "inputs": [
        {
          "internalType": "bytes4",
          "name": "interfaceId",
          "type": "bytes4"
        }
      ],
      "name": "supportsInterface",
      "outputs": [
        {
          "internalType": "bool",
          "name": "",
          "type": "bool"
        }
      ],
      "stateMutability": "view",
      "type": "function"
    },
    {
      "inputs": [
        {
          "internalType": "bytes32",
          "name": "",
          "type": "bytes32"
        }
      ],
      "name": "versions",
      "outputs": [
        {
          "internalType": "uint256",
          "name": "",
          "type": "uint256"
        }
      ],
      "stateMutability": "view",
      "type": "function"
    }
  ],
  "bytecode": "0x608060405234801561001057600080fd5b50604051610e52380380610e5283398101604081905261002f91610118565b61003a60008261006c565b506100657fa49807205ce4d355092ef5a8a18f56e8913cf4a201fbe287825b095693c217758261006c565b5050610148565b6000828152602081815260408083206001600160a01b038516845290915281205460ff1661010e576000838152602081815260408083206001600160a01b03861684529091529020805460ff191660011790556100c63390565b6001600160a01b0316826001600160a01b0316847f2f8788117e7eff1d82e926ec794901d17c78024a50270940304540a733656f0d60405160405180910390a4506001610112565b5060005b92915050565b60006020828403121561012a57600080fd5b81516001600160a01b038116811461014157600080fd5b9392505050565b610cfb806101576000396000f3fe608060405234801561001057600080fd5b50600436106101165760003560e01c806375b238fc116100a2578063a217fddf11610071578063a217fddf1461028b578063c7cec7f814610293578063d547741f146102b3578063e33c4cd2146102c6578063ec56a373146102d957600080fd5b806375b238fc1461023657806391d148541461025d5780639399869d1461027057806397623b581461027857600080fd5b806335817773116100e957806335817773146101a957806336568abe146101d45780633ab50a9c146101e75780633f0ed0df146101fa5780636933a44c1461020d57600080fd5b806301ffc9a71461011b57806320c38e2b14610143578063248a9ca3146101635780632f2ff15d14610194575b600080fd5b61012e610129366004610902565b610302565b60405190151581526020015b60405180910390f35b610156610151366004610933565b610339565b60405161013a919061094c565b610186610171366004610933565b60009081526020819052604090206001015490565b60405190815260200161013a565b6101a76101a23660046109b6565b6103d3565b005b6101bc6101b7366004610a2b565b6103fe565b6040516001600160a01b03909116815260200161013a565b6101a76101e23660046109b6565b61043e565b6101866101f5366004610a2b565b610476565b6101a7610208366004610a6d565b6104ab565b6101bc61021b366004610933565b6000908152600160205260409020546001600160a01b031690565b6101867fa49807205ce4d355092ef5a8a18f56e8913cf4a201fbe287825b095693c2177581565b61012e61026b3660046109b6565b610649565b600454610186565b6101a7610286366004610a2b565b610672565b610186600081565b6101866102a1366004610933565b60026020526000908152604090205481565b6101a76102c13660046109b6565b610775565b6101866102d4366004610933565b61079a565b6101bc6102e7366004610933565b6001602052600090815260409020546001600160a01b031681565b60006001600160e01b03198216637965db0b60e01b148061033357506301ffc9a760e01b6001600160e01b03198316145b92915050565b6003602052600090815260409020805461035290610ac1565b80601f016020809104026020016040519081016040528092919081815260200182805461037e90610ac1565b80156103cb5780601f106103a0576101008083540402835291602001916103cb565b820191906000526020600020905b8154815290600101906020018083116103ae57829003601f168201915b505050505081565b6000828152602081905260409020600101546103ee816107bb565b6103f883836107c8565b50505050565b6000600160008484604051610414929190610afb565b60408051918290039091208252602082019290925201600020546001600160a01b03169392505050565b6001600160a01b03811633146104675760405163334bd91960e11b815260040160405180910390fd5b610471828261085a565b505050565b600060026000848460405161048c929190610afb565b6040518091039020815260200190815260200160002054905092915050565b7fa49807205ce4d355092ef5a8a18f56e8913cf4a201fbe287825b095693c217756104d5816107bb565b6001600160a01b0382166105225760405162461bcd60e51b815260206004820152600f60248201526e496e76616c6964206164647265737360881b60448201526064015b60405180910390fd5b60008484604051610534929190610afb565b604080519182900390912060008181526001602081815284832080546001600160a01b038a81166001600160a01b03198316179092556002909252948320805494965094161593909290919061058b908490610b0b565b909155505080156105e65760008281526003602052604090206105af868883610b90565b50600480546001810182556000919091527f8a35acfbc15ff81a39ae7d344fd709f28e8600b4aa8c65c6b64bfe7fe36bd19b018290555b836001600160a01b0316827f1dcd9af8fad57ac3b2248e55d4ff80e3f5dc74dbd8e90d1a5d49f83adc12b62d88886002600088815260200190815260200160002054426040516106399493929190610c7a565b60405180910390a3505050505050565b6000918252602082815260408084206001600160a01b0393909316845291905290205460ff1690565b7fa49807205ce4d355092ef5a8a18f56e8913cf4a201fbe287825b095693c2177561069c816107bb565b600083836040516106ae929190610afb565b60408051918290039091206000818152600160205291909120549091506001600160a01b03166107155760405162461bcd60e51b815260206004820152601260248201527110dbdb9d1c9858dd081b9bdd08199bdd5b9960721b6044820152606401610519565b6000818152600160205260409081902080546001600160a01b03191690555181907fb153b3339a5c9100b8bca81969e42275d61f0ad2b90266c91ebc8114051b03839061076790879087904290610ca1565b60405180910390a250505050565b600082815260208190526040902060010154610790816107bb565b6103f8838361085a565b600481815481106107aa57600080fd5b600091825260209091200154905081565b6107c581336108c5565b50565b60006107d48383610649565b610852576000838152602081815260408083206001600160a01b03861684529091529020805460ff1916600117905561080a3390565b6001600160a01b0316826001600160a01b0316847f2f8788117e7eff1d82e926ec794901d17c78024a50270940304540a733656f0d60405160405180910390a4506001610333565b506000610333565b60006108668383610649565b15610852576000838152602081815260408083206001600160a01b0386168085529252808320805460ff1916905551339286917ff6391f5c32d9c69d2a47ea670b442974b53935d1edc7fd64eb21e047a839171b9190a4506001610333565b6108cf8282610649565b6108fe5760405163e2517d3f60e01b81526001600160a01b038216600482015260248101839052604401610519565b5050565b60006020828403121561091457600080fd5b81356001600160e01b03198116811461092c57600080fd5b9392505050565b60006020828403121561094557600080fd5b5035919050565b600060208083528351808285015260005b818110156109795785810183015185820160400152820161095d565b506000604082860101526040601f19601f8301168501019250505092915050565b80356001600160a01b03811681146109b157600080fd5b919050565b600080604083850312156109c957600080fd5b823591506109d96020840161099a565b90509250929050565b60008083601f8401126109f457600080fd5b50813567ffffffffffffffff811115610a0c57600080fd5b602083019150836020828501011115610a2457600080fd5b9250929050565b60008060208385031215610a3e57600080fd5b823567ffffffffffffffff811115610a5557600080fd5b610a61858286016109e2565b90969095509350505050565b600080600060408486031215610a8257600080fd5b833567ffffffffffffffff811115610a9957600080fd5b610aa5868287016109e2565b9094509250610ab890506020850161099a565b90509250925092565b600181811c90821680610ad557607f821691505b602082108103610af557634e487b7160e01b600052602260045260246000fd5b50919050565b8183823760009101908152919050565b8082018082111561033357634e487b7160e01b600052601160045260246000fd5b634e487b7160e01b600052604160045260246000fd5b601f82111561047157600081815260208120601f850160051c81016020861015610b695750805b601f850160051c820191505b81811015610b8857828155600101610b75565b505050505050565b67ffffffffffffffff831115610ba857610ba8610b2c565b610bbc83610bb68354610ac1565b83610b42565b6000601f841160018114610bf05760008515610bd85750838201355b600019600387901b1c1916600186901b178355610c4a565b600083815260209020601f19861690835b82811015610c215786850135825560209485019460019092019101610c01565b5086821015610c3e5760001960f88860031b161c19848701351681555b505060018560011b0183555b5050505050565b81835281816020850137506000828201602090810191909152601f909101601f19169091010190565b606081526000610c8e606083018688610c51565b6020830194909452506040015292915050565b604081526000610cb5604083018587610c51565b905082602083015294935050505056fea2646970667358221220c16baf7fdd1fea05100047b9a7f465ed5ecccf09081ef06afeefbf4fc0f6a4cc64736f6c63430008140033",
  "linkReferences": {},
  "deployedLinkReferences": {}
}