{
  "_format": "hh-sol-artifact-1",
  "contractName": "AddressBook",
  "sourceName": "contracts/AddressBook.sol",
  "abi": [
    {
      "inputs": [
        {
          "internalType": "address",
          "name": "admin",
          "type": "address"
        }
      ],
      "stateMutability": "nonpayable",
      "type": "constructor"
    },
    {
      "inputs": [],
      "name": "AccessControlBadConfirmation",
      "type": "error"
    },
    {
      "inputs": [
        {
          "internalType": "address",
          "name": "account",
          "type": "address"
        },
        {
          "internalType": "bytes32",
          "name": "neededRole",
          "type": "bytes32"
        }
      ],
      "name": "AccessControlUnauthorizedAccount",
      "type": "error"
    },
    {
      "anonymous": false,
      "inputs": [
        {
          "indexed": true,
          "internalType": "address",
          "name": "addr",
          "type": "address"
        },
        {
          "indexed": false,
          "internalType": "uint256",
          "name": "timestamp",
          "type": "uint256"
        }
      ],
      "name": "AddressRemoved",
      "type": "event"
    },
    {
      "anonymous": false,
      "inputs": [
        {
          "indexed": true,
          "internalType": "address",
          "name": "addr",
          "type": "address"
        },
        {
          "indexed": false,
          "internalType": "enum AddressBook.RiskLevel",
          "name": "riskLevel",
          "type": "uint8"
        },
        {
          "indexed": false,
          "internalType": "bool",
          "name": "active",
          "type": "bool"
        },
        {
          "indexed": false,
          "internalType": "uint256",
          "name": "timestamp",
          "type": "uint256"
        }
      ],
      "name": "AddressUpdated",
      "type": "event"
    },
    {
      "anonymous": false,
      "inputs": [
        {
          "indexed": true,
          "internalType": "address",
          "name": "addr",
          "type": "address"
        },
        {
          "indexed": false,
          "internalType": "enum AddressBook.RiskLevel",
          "name": "riskLevel",
          "type": "uint8"
        },
        {
          "indexed": true,
          "internalType": "bytes32",
          "name": "category",
          "type": "bytes32"
        },
        {
          "indexed": false,
          "internalType": "bytes32",
          "name": "labelHash",
          "type": "bytes32"
        },
        {
          "indexed": false,
          "internalType": "uint256",
          "name": "timestamp",
          "type": "uint256"
        }
      ],
      "name": "AddressWatched",
      "type": "event"
    },
    {
      "anonymous": false,
      "inputs": [
        {
          "indexed": true,
          "internalType": "bytes32",
          "name": "role",
          "type": "bytes32"
        },
        {
          "indexed": true,
          "internalType": "bytes32",
          "name": "previousAdminRole",
          "type": "bytes32"
        },
        {
          "indexed": true,
          "internalType": "bytes32",
          "name": "newAdminRole",
          "type": "bytes32"
        }
      ],
      "name": "RoleAdminChanged",
      "type": "event"
    },
    {
      "anonymous": false,
      "inputs": [
        {
          "indexed": true,
          "internalType": "bytes32",
          "name": "role",
          "type": "bytes32"
        },
        {
          "indexed": true,
          "internalType": "address",
          "name": "account",
          "type": "address"
        },
        {
          "indexed": true,
          "internalType": "address",
          "name": "sender",
          "type": "address"
        }
      ],
      "name": "RoleGranted",
      "type": "event"
    },
    {
      "anonymous": false,
      "inputs": [
        {
          "indexed": true,
          "internalType": "bytes32",
          "name": "role",
          "type": "bytes32"
        },
        {
          "indexed": true,
          "internalType": "address",
          "name": "account",
          "type": "address"
        },
        {
          "indexed": true,
          "internalType": "address",
          "name": "sender",
          "type": "address"
        }
      ],
      "name": "RoleRevoked",
      "type": "event"
    },
    {
      "inputs": [],
      "name": "CURATOR_ROLE",
      "outputs": [
        {
          "internalType": "bytes32",
          "name": "",
          "type": "bytes32"
        }
      ],
      "stateMutability": "view",
      "type": "function"
    },
    {
      "inputs": [],
      "name": "DEFAULT_ADMIN_ROLE",
      "outputs": [
        {
          "internalType": "bytes32",
          "name": "",
          "type": "bytes32"
        }
      ],
      "stateMutability": "view",
      "type": "function"
    },
    {
      "inputs": [
        {
          "internalType": "address",
          "name": "addr",
          "type": "address"
        },
        {
          "internalType": "enum AddressBook.RiskLevel",
          "name": "riskLevel",
          "type": "uint8"
        },
        {
          "internalType": "bytes32",
          "name": "category",
          "type": "bytes32"
        },
        {
          "internalType": "string",
          "name": "label",
          "type": "string"
        },
        {
          "internalType": "bool",
          "name": "isContract",
          "type": "bool"
        }
      ],
      "name": "addAddress",
      "outputs": [],
      "stateMutability": "nonpayable",
      "type": "function"
    },
    {
      "inputs": [
        {
          "internalType": "address[]",
          "name": "addrs",
          "type": "address[]"
        },
        {
          "internalType": "enum AddressBook.RiskLevel[]",
          "name": "levels",
          "type": "uint8[]"
        },
        {
          "internalType": "bytes32",
          "name": "category",
          "type": "bytes32"
        }
      ],
      "name": "addAddressBatch",
      "outputs": [],
      "stateMutability": "nonpayable",
      "type": "function"
    },
    {
      "inputs": [
        {
          "internalType": "uint256",
          "name": "",
          "type": "uint256"
        }
      ],
      "name": "addressList",
      "outputs": [
        {
          "internalType": "address",
          "name": "",
          "type": "address"
        }
      ],
      "stateMutability": "view",
      "type": "function"
    },
    {
      "inputs": [
        {
          "internalType": "bytes32",
          "name": "",
          "type": "bytes32"
        }
      ],
      "name": "categoryCount",
      "outputs": [
        {
          "internalType": "uint256",
          "name": "",
          "type": "uint256"
        }
      ],
      "stateMutability": "view",
      "type": "function"
    },
    {
      "inputs": [
        {
          "internalType": "address",
          "name": "addr",
          "type": "address"
        }
      ],
      "name": "deactivate",
      "outputs": [],
      "stateMutability": "nonpayable",
      "type": "function"
    },
    {
      "inputs": [
        {
          "internalType": "address",
          "name": "addr",
          "type": "address"
        }
      ],
      "name": "getAddress",
      "outputs": [
        {
          "internalType": "enum AddressBook.RiskLevel",
          "name": "riskLevel",
          "type": "uint8"
        },
        {
          "internalType": "bytes32",
          "name": "labelHash",
          "type": "bytes32"
        },
        {
          "internalType": "bytes32",
          "name": "category",
          "type": "bytes32"
        },
        {
          "internalType": "bool",
          "name": "isContract",
          "type": "bool"
        },
        {
          "internalType": "bool",
          "name": "active",
          "type": "bool"
        }
      ],
      "stateMutability": "view",
      "type": "function"
    },
    {
      "inputs": [
        {
          "internalType": "bytes32",
          "name": "category",
          "type": "bytes32"
        }
      ],
      "name": "getCategoryCount",
      "outputs": [
        {
          "internalType": "uint256",
          "name": "",
          "type": "uint256"
        }
      ],
      "stateMutability": "view",
      "type": "function"
    },
    {
      "inputs": [
        {
          "internalType": "address",
          "name": "addr",
          "type": "address"
        }
      ],
      "name": "getRiskLevel",
      "outputs": [
        {
          "internalType": "enum AddressBook.RiskLevel",
          "name": "",
          "type": "uint8"
        }
      ],
      "stateMutability": "view",
      "type": "function"
    },
    {
      "inputs": [
        {
          "internalType": "bytes32",
          "name": "role",
          "type": "bytes32"
        }
      ],
      "name": "getRoleAdmin",
      "outputs": [
        {
          "internalType": "bytes32",
          "name": "",
          "type": "bytes32"
        }
      ],
      "stateMutability": "view",
      "type": "function"
    },
    {
      "inputs": [],
      "name": "getWatchedCount",
      "outputs": [
        {
          "internalType": "uint256",
          "name": "",
          "type": "uint256"
        }
      ],
      "stateMutability": "view",
      "type": "function"
    },
    {
      "inputs": [
        {
          "internalType": "bytes32",
          "name": "role",
          "type": "bytes32"
        },
        {
          "internalType": "address",
          "name": "account",
          "type": "address"
        }
      ],
      "name": "grantRole",
      "outputs": [],
      "stateMutability": "nonpayable",
      "type": "function"
    },
    {
      "inputs": [
        {
          "internalType": "bytes32",
          "name": "role",
          "type": "bytes32"
        },
        {
          "internalType": "address",
          "name": "account",
          "type": "address"
        }
      ],
      "name": "hasRole",
      "outputs": [
        {
          "internalType": "bool",
          "name": "",
          "type": "bool"
        }
      ],
      "stateMutability": "view",
      "type": "function"
    },
    {
      "inputs": [
        {
          "internalType": "address",
          "name": "addr",
          "type": "address"
        }
      ],
      "name": "isWatched",
      "outputs": [
        {
          "internalType": "bool",
          "name": "",
          "type": "bool"
        }
      ],
      "stateMutability": "view",
      "type": "function"
    },
    {
      "inputs": [
        {
          "internalType": "bytes32",
          "name": "role",
          "type": "bytes32"
        },
        {
          "internalType": "address",
          "name": "callerConfirmation",
          "type": "address"
        }
      ],
      "name": "renounceRole",
      "outputs": [],
      "stateMutability": "nonpayable",
      "type": "function"
    },
    {
      "inputs": [
        {
          "internalType": "bytes32",
          "name": "role",
          "type": "bytes32"
        },
        {
          "internalType": "address",
          "name": "account",
          "type": "address"
        }
      ],
      "name": "revokeRole",
      "outputs": [],
      "stateMutability": "nonpayable",
      "type": "function"
    },
    {
      "inputs": [
        {
          "internalType": "bytes4",
          "name": "interfaceId",
          "type": "bytes4"
        }
      ],
      "name": "supportsInterface",
      "outputs": [
        {
          "internalType": "bool",
          "name": "",
          "type": "bool"
        }
      ],
      "stateMutability": "view",
      "type": "function"
    },
    {
      "inputs": [
        {
          "internalType": "address",
          "name": "addr",
          "type": "address"
        },
        {
          "internalType": "enum AddressBook.RiskLevel",
          "name": "newLevel",
          "type": "uint8"
        }
      ],
      "name": "updateRiskLevel",
      "outputs": [],
      "stateMutability": "nonpayable",
      "type": "function"
    },
    {
      "inputs": [
        {
          "internalType": "address",
          "name": "",
          "type": "address"
        }
      ],
      "name": "watchedAddresses",
      "outputs": [
        {
          "internalType": "enum AddressBook.RiskLevel",
          "name": "riskLevel",
          "type": "uint8"
        },
        {
          "internalType": "bytes32",
          "name": "labelHash",
          "type": "bytes32"
        },
        {
          "internalType": "bytes32",
          "name": "category",
          "type": "bytes32"
        },
        {
          "internalType": "bool",
          "name": "isContract",
          "type": "bool"
        },
        {
          "internalType": "uint256",
          "name": "addedAt",
          "type": "uint256"
        },
        {
          "internalType": "bool",
          "name": "active",
          "type": "bool"
        }
      ],
      "stateMutability": "view",
      "type": "function"
    }
  ],
  "bytecode": "0x608060405234801561001057600080fd5b5060405162001380380380620013808339810160408190526100319161011a565b61003c60008261006e565b506100677f850d585eb7f024ccee5e68e55f2c26cc72e1e6ee456acf62135757a5eb9d4a108261006e565b505061014a565b6000828152602081815260408083206001600160a01b038516845290915281205460ff16610110576000838152602081815260408083206001600160a01b03861684529091529020805460ff191660011790556100c83390565b6001600160a01b0316826001600160a01b0316847f2f8788117e7eff1d82e926ec794901d17c78024a50270940304540a733656f0d60405160405180910390a4506001610114565b5060005b92915050565b60006020828403121561012c57600080fd5b81516001600160a01b038116811461014357600080fd5b9392505050565b611226806200015a6000396000f3fe608060405234801561001057600080fd5b506004361061012c5760003560e01c8063523b6ba2116100ad578063a217fddf11610071578063a217fddf1461031e578063ae22c57d14610326578063b810fb431461034a578063d5312b0314610375578063d547741f1461038857600080fd5b8063523b6ba21461023d57806353b0d0801461025d57806374fb53d01461028c578063816c369d146102eb57806391d148541461030b57600080fd5b80632f2ff15d116100f45780632f2ff15d146101dc57806336568abe146101ef5780633ea053eb146102025780634a2cfb54146102155780634fe0e1321461022a57600080fd5b806301ffc9a714610131578063090d6835146101595780631615f2d41461016b578063248a9ca3146101a45780632929be2a146101c7575b600080fd5b61014461013f366004610e02565b61039b565b60405190151581526020015b60405180910390f35b6002545b604051908152602001610150565b610197610179366004610e4f565b6001600160a01b031660009081526001602052604090205460ff1690565b6040516101509190610ea2565b61015d6101b2366004610eb0565b60009081526020819052604090206001015490565b6101da6101d5366004610ed8565b6103d2565b005b6101da6101ea366004610f0b565b6104e0565b6101da6101fd366004610f0b565b61050b565b6101da610210366004610e4f565b610543565b61015d6000805160206111d183398151915281565b6101da610238366004610f2e565b610610565b61015d61024b366004610eb0565b60009081526003602052604090205490565b61014461026b366004610e4f565b6001600160a01b031660009081526001602052604090206005015460ff1690565b6102d961029a366004610e4f565b600160208190526000918252604090912080549181015460028201546003830154600484015460059094015460ff958616959394929391821692911686565b60405161015096959493929190610fe4565b61015d6102f9366004610eb0565b60036020526000908152604090205481565b610144610319366004610f0b565b61082e565b61015d600081565b610339610334366004610e4f565b610857565b60405161015095949392919061101c565b61035d610358366004610eb0565b610920565b6040516001600160a01b039091168152602001610150565b6101da61038336600461109b565b61094a565b6101da610396366004610f0b565b610c96565b60006001600160e01b03198216637965db0b60e01b14806103cc57506301ffc9a760e01b6001600160e01b03198316145b92915050565b6000805160206111d18339815191526103ea81610cbb565b6001600160a01b0383166000908152600160205260409020600401546104435760405162461bcd60e51b8152602060048201526009602482015268139bdd08199bdd5b9960ba1b60448201526064015b60405180910390fd5b6001600160a01b03831660009081526001602081905260409091208054849260ff199091169083600481111561047b5761047b610e6a565b02179055506001600160a01b038316600081815260016020526040908190206005015490517fd059358e431f3d6f3b0089dfa82968e4b9b230770b582a533865a2331f93c6ec916104d391869160ff1690429061110f565b60405180910390a2505050565b6000828152602081905260409020600101546104fb81610cbb565b6105058383610cc8565b50505050565b6001600160a01b03811633146105345760405163334bd91960e11b815260040160405180910390fd5b61053e8282610d5a565b505050565b6000805160206111d183398151915261055b81610cbb565b6001600160a01b0382166000908152600160205260409020600401546105af5760405162461bcd60e51b8152602060048201526009602482015268139bdd08199bdd5b9960ba1b604482015260640161043a565b6001600160a01b03821660008181526001602052604090819020600501805460ff19169055517f7d851b998d813b4411ff47632041862d27873efb27dd5a6b4c021549ee337494906106049042815260200190565b60405180910390a25050565b6000805160206111d183398151915261062881610cbb565b6001600160a01b038716600090815260016020526040902060040154156106835760405162461bcd60e51b815260206004820152600f60248201526e105b1c9958591e481dd85d18da1959608a1b604482015260640161043a565b6000848460405161069592919061112e565b604051809103902090506040518060c001604052808860048111156106bc576106bc610e6a565b8152602080820184905260408083018a90528615156060840152426080840152600160a09093018390526001600160a01b038c1660009081529183905290208251815491929091839160ff199091169083600481111561071e5761071e610e6a565b021790555060208281015160018084019190915560408085015160028086019190915560608601516003808701805492151560ff199384161790556080880151600488015560a09097015160059096018054961515969091169590951790945583549182019093557f405787fa12a823e0f2b7631cc41b3ba8828b3321ca811111fa75cd3aa3bb5ace0180546001600160a01b038d166001600160a01b0319909116179055600089815292905281208054916107d983611154565b919050555085886001600160a01b03167fd6f7a6e1baf089fcd3488a3668fde307ec01f750b269024aea60d7c20b4322ee89844260405161081c9392919061116d565b60405180910390a35050505050505050565b6000918252602082815260408084206001600160a01b0393909316845291905290205460ff1690565b6001600160a01b038116600090815260016020526040808220815160c081019092528054839283928392839283929091829060ff16600481111561089d5761089d610e6a565b60048111156108ae576108ae610e6a565b815260018201546020808301919091526002830154604080840191909152600384015460ff90811615156060808601919091526004860154608086015260059095015416151560a09384015284519185015190850151938501519490920151909b919a50919850919650945092505050565b6002818154811061093057600080fd5b6000918252602090912001546001600160a01b0316905081565b6000805160206111d183398151915261096281610cbb565b8483146109a25760405162461bcd60e51b815260206004820152600e60248201526d082e4e4c2f240dad2e6dac2e8c6d60931b604482015260640161043a565b60648511156109e75760405162461bcd60e51b815260206004820152601160248201527009ac2f04062606040e0cae440c4c2e8c6d607b1b604482015260640161043a565b60005b85811015610c6a5760016000888884818110610a0857610a0861118c565b9050602002016020810190610a1d9190610e4f565b6001600160a01b03166001600160a01b0316815260200190815260200160002060040154600003610c58576040518060c00160405280868684818110610a6557610a6561118c565b9050602002016020810190610a7a91906111a2565b6004811115610a8b57610a8b610e6a565b81526000602082018190526040820186905260016060830181905242608084015260a0909201829052898985818110610ac657610ac661118c565b9050602002016020810190610adb9190610e4f565b6001600160a01b03168152602081019190915260400160002081518154829060ff19166001836004811115610b1257610b12610e6a565b0217905550602082015160018201556040820151600280830191909155606083015160038301805491151560ff199283161790556080840151600484015560a090930151600590920180549215159290931691909117909155878783818110610b7d57610b7d61118c565b9050602002016020810190610b929190610e4f565b81546001810183556000928352602090922090910180546001600160a01b0319166001600160a01b0390921691909117905582878783818110610bd757610bd761118c565b9050602002016020810190610bec9190610e4f565b6001600160a01b03167fd6f7a6e1baf089fcd3488a3668fde307ec01f750b269024aea60d7c20b4322ee878785818110610c2857610c2861118c565b9050602002016020810190610c3d91906111a2565b604051610c4f9190600090429061116d565b60405180910390a35b80610c6281611154565b9150506109ea565b5060008281526003602052604081208054879290610c899084906111bd565b9091555050505050505050565b600082815260208190526040902060010154610cb181610cbb565b6105058383610d5a565b610cc58133610dc5565b50565b6000610cd4838361082e565b610d52576000838152602081815260408083206001600160a01b03861684529091529020805460ff19166001179055610d0a3390565b6001600160a01b0316826001600160a01b0316847f2f8788117e7eff1d82e926ec794901d17c78024a50270940304540a733656f0d60405160405180910390a45060016103cc565b5060006103cc565b6000610d66838361082e565b15610d52576000838152602081815260408083206001600160a01b0386168085529252808320805460ff1916905551339286917ff6391f5c32d9c69d2a47ea670b442974b53935d1edc7fd64eb21e047a839171b9190a45060016103cc565b610dcf828261082e565b610dfe5760405163e2517d3f60e01b81526001600160a01b03821660048201526024810183905260440161043a565b5050565b600060208284031215610e1457600080fd5b81356001600160e01b031981168114610e2c57600080fd5b9392505050565b80356001600160a01b0381168114610e4a57600080fd5b919050565b600060208284031215610e6157600080fd5b610e2c82610e33565b634e487b7160e01b600052602160045260246000fd5b60058110610e9e57634e487b7160e01b600052602160045260246000fd5b9052565b602081016103cc8284610e80565b600060208284031215610ec257600080fd5b5035919050565b803560058110610e4a57600080fd5b60008060408385031215610eeb57600080fd5b610ef483610e33565b9150610f0260208401610ec9565b90509250929050565b60008060408385031215610f1e57600080fd5b82359150610f0260208401610e33565b60008060008060008060a08789031215610f4757600080fd5b610f5087610e33565b9550610f5e60208801610ec9565b945060408701359350606087013567ffffffffffffffff80821115610f8257600080fd5b818901915089601f830112610f9657600080fd5b813581811115610fa557600080fd5b8a6020828501011115610fb757600080fd5b60208301955080945050505060808701358015158114610fd657600080fd5b809150509295509295509295565b60c08101610ff28289610e80565b6020820196909652604081019490945291151560608401526080830152151560a090910152919050565b60a0810161102a8288610e80565b6020820195909552604081019390935290151560608301521515608090910152919050565b60008083601f84011261106157600080fd5b50813567ffffffffffffffff81111561107957600080fd5b6020830191508360208260051b850101111561109457600080fd5b9250929050565b6000806000806000606086880312156110b357600080fd5b853567ffffffffffffffff808211156110cb57600080fd5b6110d789838a0161104f565b909750955060208801359150808211156110f057600080fd5b506110fd8882890161104f565b96999598509660400135949350505050565b6060810161111d8286610e80565b921515602082015260400152919050565b8183823760009101908152919050565b634e487b7160e01b600052601160045260246000fd5b6000600182016111665761116661113e565b5060010190565b6060810161117b8286610e80565b602082019390935260400152919050565b634e487b7160e01b600052603260045260246000fd5b6000602082840312156111b457600080fd5b610e2c82610ec9565b808201808211156103cc576103cc61113e56fe850d585eb7f024ccee5e68e55f2c26cc72e1e6ee456acf62135757a5eb9d4a10a264697066735822122018bedf7a1badc1aa481bb3670907820716251435f0f07f7562e71812d9f4434664736f6c63430008140033",
  "linkReferences": {},
  "deployedLinkReferences": {}
}