{
  "_format": "hh-sol-artifact-1",
  "contractName": "MerkleBatchAnchor",
  "sourceName": "contracts/MerkleBatchAnchor.sol",
  "abi": [
    {
      "inputs": [
        {
          "internalType": "address",
          "name": "admin",
          "type": "address"
        }
      ],
      "stateMutability": "nonpayable",
      "type": "constructor"
    },
    {
      "inputs": [],
      "name": "AccessControlBadConfirmation",
      "type": "error"
    },
    {
      "inputs": [
        {
          "internalType": "address",
          "name": "account",
          "type": "address"
        },
        {
          "internalType": "bytes32",
          "name": "neededRole",
          "type": "bytes32"
        }
      ],
      "name": "AccessControlUnauthorizedAccount",
      "type": "error"
    },
    {
      "anonymous": false,
      "inputs": [
        {
          "indexed": true,
          "internalType": "bytes32",
          "name": "root",
          "type": "bytes32"
        },
        {
          "indexed": true,
          "internalType": "bytes32",
          "name": "modelId",
          "type": "bytes32"
        },
        {
          "indexed": false,
          "internalType": "uint256",
          "name": "batchSize",
          "type": "uint256"
        },
        {
          "indexed": false,
          "internalType": "uint256",
          "name": "timestamp",
          "type": "uint256"
        },
        {
          "indexed": true,
          "internalType": "address",
          "name": "reporter",
          "type": "address"
        }
      ],
      "name": "BatchAnchored",
      "type": "event"
    },
    {
      "anonymous": false,
      "inputs": [
        {
          "indexed": true,
          "internalType": "bytes32",
          "name": "root",
          "type": "bytes32"
        },
        {
          "indexed": false,
          "internalType": "bytes32",
          "name": "leaf",
          "type": "bytes32"
        },
        {
          "indexed": false,
          "internalType": "address",
          "name": "verifier",
          "type": "address"
        }
      ],
      "name": "BatchVerified",
      "type": "event"
    },
    {
      "anonymous": false,
      "inputs": [
        {
          "indexed": true,
          "internalType": "bytes32",
          "name": "role",
          "type": "bytes32"
        },
        {
          "indexed": true,
          "internalType": "bytes32",
          "name": "previousAdminRole",
          "type": "bytes32"
        },
        {
          "indexed": true,
          "internalType": "bytes32",
          "name": "newAdminRole",
          "type": "bytes32"
        }
      ],
      "name": "RoleAdminChanged",
      "type": "event"
    },
    {
      "anonymous": false,
      "inputs": [
        {
          "indexed": true,
          "internalType": "bytes32",
          "name": "role",
          "type": "bytes32"
        },
        {
          "indexed": true,
          "internalType": "address",
          "name": "account",
          "type": "address"
        },
        {
          "indexed": true,
          "internalType": "address",
          "name": "sender",
          "type": "address"
        }
      ],
      "name": "RoleGranted",
      "type": "event"
    },
    {
      "anonymous": false,
      "inputs": [
        {
          "indexed": true,
          "internalType": "bytes32",
          "name": "role",
          "type": "bytes32"
        },
        {
          "indexed": true,
          "internalType": "address",
          "name": "account",
          "type": "address"
        },
        {
          "indexed": true,
          "internalType": "address",
          "name": "sender",
          "type": "address"
        }
      ],
      "name": "RoleRevoked",
      "type": "event"
    },
    {
      "inputs": [],
      "name": "DEFAULT_ADMIN_ROLE",
      "outputs": [
        {
          "internalType": "bytes32",
          "name": "",
          "type": "bytes32"
        }
      ],
      "stateMutability": "view",
      "type": "function"
    },
    {
      "inputs": [],
      "name": "PUBLISHER_ROLE",
      "outputs": [
        {
          "internalType": "bytes32",
          "name": "",
          "type": "bytes32"
        }
      ],
      "stateMutability": "view",
      "type": "function"
    },
    {
      "inputs": [
        {
          "internalType": "bytes32",
          "name": "root",
          "type": "bytes32"
        },
        {
          "internalType": "bytes32",
          "name": "modelId",
          "type": "bytes32"
        },
        {
          "internalType": "uint256",
          "name": "batchSize",
          "type": "uint256"
        }
      ],
      "name": "anchorBatch",
      "outputs": [],
      "stateMutability": "nonpayable",
      "type": "function"
    },
    {
      "inputs": [
        {
          "internalType": "bytes32",
          "name": "root",
          "type": "bytes32"
        }
      ],
      "name": "batchExists",
      "outputs": [
        {
          "internalType": "bool",
          "name": "",
          "type": "bool"
        }
      ],
      "stateMutability": "view",
      "type": "function"
    },
    {
      "inputs": [
        {
          "internalType": "bytes32",
          "name": "",
          "type": "bytes32"
        }
      ],
      "name": "batches",
      "outputs": [
        {
          "internalType": "uint256",
          "name": "timestamp",
          "type": "uint256"
        },
        {
          "internalType": "uint256",
          "name": "size",
          "type": "uint256"
        },
        {
          "internalType": "bytes32",
          "name": "modelId",
          "type": "bytes32"
        }
      ],
      "stateMutability": "view",
      "type": "function"
    },
    {
      "inputs": [
        {
          "internalType": "bytes32",
          "name": "root",
          "type": "bytes32"
        }
      ],
      "name": "getBatchInfo",
      "outputs": [
        {
          "internalType": "uint256",
          "name": "timestamp",
          "type": "uint256"
        },
        {
          "internalType": "uint256",
          "name": "size",
          "type": "uint256"
        },
        {
          "internalType": "bytes32",
          "name": "modelId",
          "type": "bytes32"
        }
      ],
      "stateMutability": "view",
      "type": "function"
    },
    {
      "inputs": [
        {
          "internalType": "bytes32",
          "name": "role",
          "type": "bytes32"
        }
      ],
      "name": "getRoleAdmin",
      "outputs": [
        {
          "internalType": "bytes32",
          "name": "",
          "type": "bytes32"
        }
      ],
      "stateMutability": "view",
      "type": "function"
    },
    {
      "inputs": [],
      "name": "getStats",
      "outputs": [
        {
          "internalType": "uint256",
          "name": "batchCount",
          "type": "uint256"
        },
        {
          "internalType": "uint256",
          "name": "totalIncidents",
          "type": "uint256"
        }
      ],
      "stateMutability": "view",
      "type": "function"
    },
    {
      "inputs": [
        {
          "internalType": "bytes32",
          "name": "role",
          "type": "bytes32"
        },
        {
          "internalType": "address",
          "name": "account",
          "type": "address"
        }
      ],
      "name": "grantRole",
      "outputs": [],
      "stateMutability": "nonpayable",
      "type": "function"
    },
    {
      "inputs": [
        {
          "internalType": "bytes32",
          "name": "role",
          "type": "bytes32"
        },
        {
          "internalType": "address",
          "name": "account",
          "type": "address"
        }
      ],
      "name": "hasRole",
      "outputs": [
        {
          "internalType": "bool",
          "name": "",
          "type": "bool"
        }
      ],
      "stateMutability": "view",
      "type": "function"
    },
    {
      "inputs": [
        {
          "internalType": "bytes32",
          "name": "root",
          "type": "bytes32"
        },
        {
          "internalType": "bytes32",
          "name": "leaf",
          "type": "bytes32"
        }
      ],
      "name": "recordVerification",
      "outputs": [],
      "stateMutability": "nonpayable",
      "type": "function"
    },
    {
      "inputs": [
        {
          "internalType": "bytes32",
          "name": "role",
          "type": "bytes32"
        },
        {
          "internalType": "address",
          "name": "callerConfirmation",
          "type": "address"
        }
      ],
      "name": "renounceRole",
      "outputs": [],
      "stateMutability": "nonpayable",
      "type": "function"
    },
    {
      "inputs": [
        {
          "internalType": "bytes32",
          "name": "role",
          "type": "bytes32"
        },
        {
          "internalType": "address",
          "name": "account",
          "type": "address"
        }
      ],
      "name": "revokeRole",
      "outputs": [],
      "stateMutability": "nonpayable",
      "type": "function"
    },
    {
      "inputs": [
        {
          "internalType": "bytes4",
          "name": "interfaceId",
          "type": "bytes4"
        }
      ],
      "name": "supportsInterface",
      "outputs": [
        {
          "internalType": "bool",
          "name": "",
          "type": "bool"
        }
      ],
      "stateMutability": "view",
      "type": "function"
    },
    {
      "inputs": [],
      "name": "totalBatches",
      "outputs": [
        {
          "internalType": "uint256",
          "name": "",
          "type": "uint256"
        }
      ],
      "stateMutability": "view",
      "type": "function"
    },
    {
      "inputs": [],
      "name": "totalIncidentsAnchored",
      "outputs": [
        {
          "internalType": "uint256",
          "name": "",
          "type": "uint256"
        }
      ],
      "stateMutability": "view",
      "type": "function"
    },
    {
      "inputs": [
        {
          "internalType": "bytes32",
          "name": "root",
          "type": "bytes32"
        },
        {
          "internalType": "bytes32",
          "name": "leaf",
          "type": "bytes32"
        },
        {
          "internalType": "bytes32[]",
          "name": "proof",
          "type": "bytes32[]"
        }
      ],
      "name": "verifyIncident",
      "outputs": [
        {
          "internalType": "bool",
          "name": "",
          "type": "bool"
        }
      ],
      "stateMutability": "view",
      "type": "function"
    }
  ],
  "bytecode": "0x608060405234801561001057600080fd5b50604051610b6a380380610b6a83398101604081905261002f91610118565b61003a60008261006c565b506100657f0ac90c257048ef1c3e387c26d4a99bde06894efbcbff862dc1885c3a9319308a8261006c565b5050610148565b6000828152602081815260408083206001600160a01b038516845290915281205460ff1661010e576000838152602081815260408083206001600160a01b03861684529091529020805460ff191660011790556100c63390565b6001600160a01b0316826001600160a01b0316847f2f8788117e7eff1d82e926ec794901d17c78024a50270940304540a733656f0d60405160405180910390a4506001610112565b5060005b92915050565b60006020828403121561012a57600080fd5b81516001600160a01b038116811461014157600080fd5b9392505050565b610a13806101576000396000f3fe608060405234801561001057600080fd5b506004361061010b5760003560e01c8063a217fddf116100a2578063c81e25ab11610071578063c81e25ab14610263578063d547741f14610291578063d8f4b6fd146102a4578063e3bf211c146102cb578063ecd144a7146102de57600080fd5b8063a217fddf14610224578063b216ebd61461022c578063c59d48471461023f578063c61188141461025a57600080fd5b80636850ab7b116100de5780636850ab7b1461019157806369ff6abb146101a4578063753207c7146101ad57806391d148541461021157600080fd5b806301ffc9a714610110578063248a9ca3146101385780632f2ff15d1461016957806336568abe1461017e575b600080fd5b61012361011e36600461082e565b610300565b60405190151581526020015b60405180910390f35b61015b61014636600461085f565b60009081526020819052604090206001015490565b60405190815260200161012f565b61017c610177366004610878565b610337565b005b61017c61018c366004610878565b610362565b61017c61019f3660046108b4565b61039a565b61015b60025481565b6101f66101bb36600461085f565b600081815260016020818152604092839020835160608101855281548082529382015492810183905260029091015493018390529093909250565b6040805193845260208401929092529082015260600161012f565b61012361021f366004610878565b610514565b61015b600081565b61017c61023a3660046108e0565b61053d565b6002546003546040805192835260208301919091520161012f565b61015b60035481565b6101f661027136600461085f565b600160208190526000918252604090912080549181015460029091015483565b61017c61029f366004610878565b6105c8565b61015b7f0ac90c257048ef1c3e387c26d4a99bde06894efbcbff862dc1885c3a9319308a81565b6101236102d9366004610902565b6105ed565b6101236102ec36600461085f565b600090815260016020526040902054151590565b60006001600160e01b03198216637965db0b60e01b148061033157506301ffc9a760e01b6001600160e01b03198316145b92915050565b600082815260208190526040902060010154610352816106e7565b61035c83836106f4565b50505050565b6001600160a01b038116331461038b5760405163334bd91960e11b815260040160405180910390fd5b6103958282610786565b505050565b7f0ac90c257048ef1c3e387c26d4a99bde06894efbcbff862dc1885c3a9319308a6103c4816106e7565b600084815260016020526040902054156104185760405162461bcd60e51b815260206004820152601060248201526f105b1c9958591e48185b98da1bdc995960821b60448201526064015b60405180910390fd5b60008211801561042a57506127108211155b61046b5760405162461bcd60e51b8152602060048201526012602482015271496e76616c69642062617463682073697a6560701b604482015260640161040f565b604080516060810182524281526020808201858152828401878152600089815260019384905294852093518455905191830191909155516002918201558054916104b48361099b565b919050555081600360008282546104cb91906109b4565b9091555050604080518381524260208201523391859187917fe67f06af57e73adfa95e0d623853e3619e88f944078bea63844dbd208842d5ae910160405180910390a450505050565b6000918252602082815260408084206001600160a01b0393909316845291905290205460ff1690565b60008281526001602052604090205461058a5760405162461bcd60e51b815260206004820152600f60248201526e10985d18da081b9bdd08199bdd5b99608a1b604482015260640161040f565b6040805182815233602082015283917fd9488c6e842a8228ae54197086da3be4d8826634115d729fd2b1fa924d04eb4d910160405180910390a25050565b6000828152602081905260409020600101546105e3816106e7565b61035c8383610786565b60008481526001602052604081205461063a5760405162461bcd60e51b815260206004820152600f60248201526e10985d18da081b9bdd08199bdd5b99608a1b604482015260640161040f565b8360005b838110156106db57600085858381811061065a5761065a6109c7565b90506020020135905080831161069b5760408051602081018590529081018290526060016040516020818303038152906040528051906020012092506106c8565b60408051602081018390529081018490526060016040516020818303038152906040528051906020012092505b50806106d38161099b565b91505061063e565b50909414949350505050565b6106f181336107f1565b50565b60006107008383610514565b61077e576000838152602081815260408083206001600160a01b03861684529091529020805460ff191660011790556107363390565b6001600160a01b0316826001600160a01b0316847f2f8788117e7eff1d82e926ec794901d17c78024a50270940304540a733656f0d60405160405180910390a4506001610331565b506000610331565b60006107928383610514565b1561077e576000838152602081815260408083206001600160a01b0386168085529252808320805460ff1916905551339286917ff6391f5c32d9c69d2a47ea670b442974b53935d1edc7fd64eb21e047a839171b9190a4506001610331565b6107fb8282610514565b61082a5760405163e2517d3f60e01b81526001600160a01b03821660048201526024810183905260440161040f565b5050565b60006020828403121561084057600080fd5b81356001600160e01b03198116811461085857600080fd5b9392505050565b60006020828403121561087157600080fd5b5035919050565b6000806040838503121561088b57600080fd5b8235915060208301356001600160a01b03811681146108a957600080fd5b809150509250929050565b6000806000606084860312156108c957600080fd5b505081359360208301359350604090920135919050565b600080604083850312156108f357600080fd5b50508035926020909101359150565b6000806000806060858703121561091857600080fd5b8435935060208501359250604085013567ffffffffffffffff8082111561093e57600080fd5b818701915087601f83011261095257600080fd5b81358181111561096157600080fd5b8860208260051b850101111561097657600080fd5b95989497505060200194505050565b634e487b7160e01b600052601160045260246000fd5b6000600182016109ad576109ad610985565b5060010190565b8082018082111561033157610331610985565b634e487b7160e01b600052603260045260246000fdfea2646970667358221220894e0d4e2821d77fe70755890ab80f17d1f111c1d160ca568b2aa558c4dd5d9564736f6c63430008140033",
  "linkReferences": {},
  "deployedLinkReferences": {}
}